{
	"data": {
		"bytecode": {
			"linkReferences": {},
			"object": "608060405262015180600a5534801562000017575f80fd5b506040518060400160405280601481526020017f3c3135302a31353070782c20233132313231323e0000000000000000000000008152506040518060400160405280600381526020017f42534e0000000000000000000000000000000000000000000000000000000000815250815f90816200009491906200107b565b508060019081620000a691906200107b565b505050620000c9620000bd6200011660201b60201c565b6200011d60201b60201c565b620000d9620001e060201b60201c565b5f600190505b603281116200010f57620000f9816200033c60201b60201c565b808062000106906200118c565b915050620000df565b5062001a7f565b5f33905090565b5f60075f9054906101000a900473ffffffffffffffffffffffffffffffffffffffff1690508160075f6101000a81548173ffffffffffffffffffffffffffffffffffffffff021916908373ffffffffffffffffffffffffffffffffffffffff1602179055508173ffffffffffffffffffffffffffffffffffffffff168173ffffffffffffffffffffffffffffffffffffffff167f8be0079c531659141344cd1fd0a4f28419497f9722a3daafe3b4186f6b6457e060405160405180910390a35050565b620001f06200011660201b60201c565b73ffffffffffffffffffffffffffffffffffffffff16620002166200041e60201b60201c565b73ffffffffffffffffffffffffffffffffffffffff16146200026f576040517f08c379a0000000000000000000000000000000000000000000000000000000008152600401620002669062001236565b60405180910390fd5b5f600190505b60328111620003395762000290600b6200044660201b60201c565b5f620002a3600b6200045a60201b60201c565b90505f620002c7620002bb836200046660201b60201c565b6200056360201b60201c565b604051602001620002d991906200130e565b60405160208183030381529060405290508060085f8481526020019081526020015f2090816200030a91906200107b565b504260095f8481526020019081526020015f20819055505050808062000330906200118c565b91505062000275565b50565b6200034e600b6200045a60201b60201c565b81111562000393576040517f08c379a00000000000000000000000000000000000000000000000000000000081526004016200038a9062001381565b60405180910390fd5b600a5460095f8381526020019081526020015f2054620003b49190620013a1565b42106200040957620003cc81620006d560201b60201c565b6040517f08c379a000000000000000000000000000000000000000000000000000000000815260040162000400906200144f565b60405180910390fd5b6200041b3382620006e960201b60201c565b50565b5f60075f9054906101000a900473ffffffffffffffffffffffffffffffffffffffff16905090565b6001815f015f828254019250508190555050565b5f815f01549050919050565b60605f6040516020016200047a906200152f565b60405160208183030381529060405290505f620004e55f603286620004a0919062001572565b14620004c9576001603286620004b79190620015a9565b620004c39190620013a1565b620004d9565b603285620004d89190620015a9565b5b620008d860201b60201c565b620005235f603287620004f9919062001572565b1462000514576032866200050e919062001572565b62000517565b60325b620008d860201b60201c565b62000534846200056360201b60201c565b6040516020016200054893929190620017da565b60405160208183030381529060405290508092505050919050565b60605f825103620005855760405180602001604052805f8152509050620006d0565b5f604051806060016040528060408152602001620053c76040913990505f600360028551620005b59190620013a1565b620005c19190620015a9565b6004620005cf91906200185e565b67ffffffffffffffff811115620005eb57620005ea62000e21565b5b6040519080825280601f01601f1916602001820160405280156200061e5781602001600182028036833780820191505090505b509050600182016020820185865187015b808210156200068c576003820191508151603f8160121c168501518453600184019350603f81600c1c168501518453600184019350603f8160061c168501518453600184019350603f81168501518453600184019350506200062f565b5050600386510660018114620006ab5760028114620006bf57620006c7565b603d6001830353603d6002830353620006c7565b603d60018303535b50505080925050505b919050565b620006e68162000a4a60201b60201c565b50565b5f73ffffffffffffffffffffffffffffffffffffffff168273ffffffffffffffffffffffffffffffffffffffff16036200075a576040517f08c379a00000000000000000000000000000000000000000000000000000000081526004016200075190620018f6565b60405180910390fd5b6200076b8162000aa460201b60201c565b15620007ae576040517f08c379a0000000000000000000000000000000000000000000000000000000008152600401620007a59062001964565b60405180910390fd5b620007c15f838362000b0c60201b60201c565b600160035f8473ffffffffffffffffffffffffffffffffffffffff1673ffffffffffffffffffffffffffffffffffffffff1681526020019081526020015f205f828254620008109190620013a1565b925050819055508160025f8381526020019081526020015f205f6101000a81548173ffffffffffffffffffffffffffffffffffffffff021916908373ffffffffffffffffffffffffffffffffffffffff160217905550808273ffffffffffffffffffffffffffffffffffffffff165f73ffffffffffffffffffffffffffffffffffffffff167fddf252ad1be2c89b69c2b068fc378daa952ba7f163c4a11628f55a4df523b3ef60405160405180910390a4620008d45f838362000b1160201b60201c565b5050565b60605f820362000920576040518060400160405280600181526020017f3000000000000000000000000000000000000000000000000000000000000000815250905062000a45565b5f8290505f5b5f8214620009555780806200093b906200118c565b915050600a826200094d9190620015a9565b915062000926565b5f8167ffffffffffffffff81111562000973576200097262000e21565b5b6040519080825280601f01601f191660200182016040528015620009a65781602001600182028036833780820191505090505b5090505b5f851462000a3e57600182620009c1919062001984565b9150600a85620009d2919062001572565b6030620009e09190620013a1565b60f81b818381518110620009f957620009f8620019be565b5b60200101907effffffffffffffffffffffffffffffffffffffffffffffffffffffffffffff191690815f1a905350600a8562000a369190620015a9565b9450620009aa565b8093505050505b919050565b62000a5b8162000b1660201b60201c565b5f60065f8381526020019081526020015f20805462000a7a9062000e7b565b90501462000aa15760065f8281526020019081526020015f205f62000aa0919062000db7565b5b50565b5f8073ffffffffffffffffffffffffffffffffffffffff1660025f8481526020019081526020015f205f9054906101000a900473ffffffffffffffffffffffffffffffffffffffff1673ffffffffffffffffffffffffffffffffffffffff1614159050919050565b505050565b505050565b5f62000b288262000c4a60201b60201c565b905062000b3d815f8462000b0c60201b60201c565b62000b4f5f8362000cf960201b60201c565b600160035f8373ffffffffffffffffffffffffffffffffffffffff1673ffffffffffffffffffffffffffffffffffffffff1681526020019081526020015f205f82825462000b9e919062001984565b9250508190555060025f8381526020019081526020015f205f6101000a81549073ffffffffffffffffffffffffffffffffffffffff0219169055815f73ffffffffffffffffffffffffffffffffffffffff168273ffffffffffffffffffffffffffffffffffffffff167fddf252ad1be2c89b69c2b068fc378daa952ba7f163c4a11628f55a4df523b3ef60405160405180910390a462000c46815f8462000b1160201b60201c565b5050565b5f8060025f8481526020019081526020015f205f9054906101000a900473ffffffffffffffffffffffffffffffffffffffff1690505f73ffffffffffffffffffffffffffffffffffffffff168173ffffffffffffffffffffffffffffffffffffffff160362000cf0576040517f08c379a000000000000000000000000000000000000000000000000000000000815260040162000ce79062001a5f565b60405180910390fd5b80915050919050565b8160045f8381526020019081526020015f205f6101000a81548173ffffffffffffffffffffffffffffffffffffffff021916908373ffffffffffffffffffffffffffffffffffffffff160217905550808273ffffffffffffffffffffffffffffffffffffffff1662000d718362000c4a60201b60201c565b73ffffffffffffffffffffffffffffffffffffffff167f8c5be1e5ebec7d5bd14f71427d1e84f3dd0314c0f7b2291e5b200ac8c7c3b92560405160405180910390a45050565b50805462000dc59062000e7b565b5f825580601f1062000dd8575062000df7565b601f0160209004905f5260205f209081019062000df6919062000dfa565b5b50565b5b8082111562000e13575f815f90555060010162000dfb565b5090565b5f81519050919050565b7f4e487b71000000000000000000000000000000000000000000000000000000005f52604160045260245ffd5b7f4e487b71000000000000000000000000000000000000000000000000000000005f52602260045260245ffd5b5f600282049050600182168062000e9357607f821691505b60208210810362000ea95762000ea862000e4e565b5b50919050565b5f819050815f5260205f209050919050565b5f6020601f8301049050919050565b5f82821b905092915050565b5f6008830262000f0d7fffffffffffffffffffffffffffffffffffffffffffffffffffffffffffffffff8262000ed0565b62000f19868362000ed0565b95508019841693508086168417925050509392505050565b5f819050919050565b5f819050919050565b5f62000f6362000f5d62000f578462000f31565b62000f3a565b62000f31565b9050919050565b5f819050919050565b62000f7e8362000f43565b62000f9662000f8d8262000f6a565b84845462000edc565b825550505050565b5f90565b62000fac62000f9e565b62000fb981848462000f73565b505050565b5b8181101562000fe05762000fd45f8262000fa2565b60018101905062000fbf565b5050565b601f8211156200102f5762000ff98162000eaf565b620010048462000ec1565b8101602085101562001014578190505b6200102c620010238562000ec1565b83018262000fbe565b50505b505050565b5f82821c905092915050565b5f620010515f198460080262001034565b1980831691505092915050565b5f6200106b838362001040565b9150826002028217905092915050565b620010868262000e17565b67ffffffffffffffff811115620010a257620010a162000e21565b5b620010ae825462000e7b565b620010bb82828562000fe4565b5f60209050601f831160018114620010f1575f8415620010dc578287015190505b620010e885826200105e565b86555062001157565b601f198416620011018662000eaf565b5f5b828110156200112a5784890151825560018201915060208501945060208101905062001103565b868310156200114a578489015162001146601f89168262001040565b8355505b6001600288020188555050505b505050505050565b7f4e487b71000000000000000000000000000000000000000000000000000000005f52601160045260245ffd5b5f620011988262000f31565b91507fffffffffffffffffffffffffffffffffffffffffffffffffffffffffffffffff8203620011cd57620011cc6200115f565b5b600182019050919050565b5f82825260208201905092915050565b7f4f776e61626c653a2063616c6c6572206973206e6f7420746865206f776e65725f82015250565b5f6200121e602083620011d8565b91506200122b82620011e8565b602082019050919050565b5f6020820190508181035f8301526200124f8162001210565b9050919050565b5f81905092915050565b7f646174613a6170706c69636174696f6e2f6a736f6e3b6261736536342c0000005f82015250565b5f62001296601d8362001256565b9150620012a38262001260565b601d82019050919050565b5f5b83811015620012cd578082015181840152602081019050620012b0565b5f8484015250505050565b5f620012e48262000e17565b620012f0818562001256565b935062001302818560208601620012ae565b80840191505092915050565b5f6200131a8262001288565b9150620013288284620012d8565b915081905092915050565b7f496e76616c696420746f6b656e204944000000000000000000000000000000005f82015250565b5f62001369601083620011d8565b9150620013768262001333565b602082019050919050565b5f6020820190508181035f8301526200139a816200135b565b9050919050565b5f620013ad8262000f31565b9150620013ba8362000f31565b9250828201905080821115620013d557620013d46200115f565b5b92915050565b7f546f6b656e2063616e2774206265206d696e7465642c20616e642069742068615f8201527f73206265656e206275726e742e00000000000000000000000000000000000000602082015250565b5f62001437602d83620011d8565b91506200144482620013db565b604082019050919050565b5f6020820190508181035f830152620014688162001429565b9050919050565b7f3c7376672077696474683d2731353027206865696768743d273135302720786d5f8201527f6c6e733d27687474703a2f2f7777772e77332e6f72672f323030302f7376672760208201527f3e3c726563742077696474683d2731353027206865696768743d27313530272060408201527f66696c6c3d2723313231323132272f3e3c2f7376673e00000000000000000000606082015250565b5f6200151760768362001256565b915062001524826200146f565b607682019050919050565b5f6200153b8262001509565b9150819050919050565b7f4e487b71000000000000000000000000000000000000000000000000000000005f52601260045260245ffd5b5f6200157e8262000f31565b91506200158b8362000f31565b9250826200159e576200159d62001545565b5b828206905092915050565b5f620015b58262000f31565b9150620015c28362000f31565b925082620015d557620015d462001545565b5b828204905092915050565b7f7b226e616d65223a2200000000000000000000000000000000000000000000005f82015250565b5f6200161660098362001256565b91506200162382620015e0565b600982019050919050565b7f3c3135302a31353070782c20233132313231323e2000000000000000000000005f82015250565b5f6200166460158362001256565b915062001671826200162e565b601582019050919050565b7f2d000000000000000000000000000000000000000000000000000000000000005f82015250565b5f620016b260018362001256565b9150620016bf826200167c565b600182019050919050565b7f222c226465736372697074696f6e223a2254657374222c0000000000000000005f82015250565b5f6200170060178362001256565b91506200170d82620016ca565b601782019050919050565b7f22616e696d6174696f6e5f75726c223a2022646174613a696d6167652f7376675f8201527f2b786d6c3b6261736536342c0000000000000000000000000000000000000000602082015250565b5f62001774602c8362001256565b9150620017818262001718565b602c82019050919050565b7f227d0000000000000000000000000000000000000000000000000000000000005f82015250565b5f620017c260028362001256565b9150620017cf826200178c565b600282019050919050565b5f620017e68262001608565b9150620017f38262001656565b9150620018018286620012d8565b91506200180e82620016a4565b91506200181c8285620012d8565b91506200182982620016f2565b9150620018368262001766565b9150620018448284620012d8565b91506200185182620017b4565b9150819050949350505050565b5f6200186a8262000f31565b9150620018778362000f31565b9250828202620018878162000f31565b91508282048414831517620018a157620018a06200115f565b5b5092915050565b7f4552433732313a206d696e7420746f20746865207a65726f20616464726573735f82015250565b5f620018de602083620011d8565b9150620018eb82620018a8565b602082019050919050565b5f6020820190508181035f8301526200190f81620018d0565b9050919050565b7f4552433732313a20746f6b656e20616c7265616479206d696e746564000000005f82015250565b5f6200194c601c83620011d8565b9150620019598262001916565b602082019050919050565b5f6020820190508181035f8301526200197d816200193e565b9050919050565b5f620019908262000f31565b91506200199d8362000f31565b9250828203905081811115620019b857620019b76200115f565b5b92915050565b7f4e487b71000000000000000000000000000000000000000000000000000000005f52603260045260245ffd5b7f4552433732313a206f776e657220717565727920666f72206e6f6e65786973745f8201527f656e7420746f6b656e0000000000000000000000000000000000000000000000602082015250565b5f62001a47602983620011d8565b915062001a5482620019eb565b604082019050919050565b5f6020820190508181035f83015262001a788162001a39565b9050919050565b61393a8062001a8d5f395ff3fe608060405234801561000f575f80fd5b506004361061011f575f3560e01c80636352211e116100ab578063a22cb4651161006f578063a22cb465146102f1578063b88d4fde1461030d578063c87b56dd14610329578063e985e9c514610359578063f2fde38b146103895761011f565b80636352211e1461024b57806370a082311461027b578063715018a6146102ab5780638da5cb5b146102b557806395d89b41146102d35761011f565b806319c4f2df116100f257806319c4f2df146101bd57806320e3dfee146101c757806323b872dd146101e3578063423fcb01146101ff57806342842e0e1461022f5761011f565b806301ffc9a71461012357806306fdde0314610153578063081812fc14610171578063095ea7b3146101a1575b5f80fd5b61013d60048036038101906101389190612058565b6103a5565b60405161014a919061209d565b60405180910390f35b61015b610486565b6040516101689190612140565b60405180910390f35b61018b60048036038101906101869190612193565b610515565b60405161019891906121fd565b60405180910390f35b6101bb60048036038101906101b69190612240565b610596565b005b6101c56106ac565b005b6101e160048036038101906101dc9190612193565b6107cd565b005b6101fd60048036038101906101f8919061227e565b61088f565b005b61021960048036038101906102149190612193565b6108ef565b6040516102269190612320565b60405180910390f35b6102496004803603810190610244919061227e565b6109c0565b005b61026560048036038101906102609190612193565b6109df565b60405161027291906121fd565b60405180910390f35b61029560048036038101906102909190612340565b610a8b565b6040516102a2919061237a565b60405180910390f35b6102b3610b3f565b005b6102bd610bc6565b6040516102ca91906121fd565b60405180910390f35b6102db610bee565b6040516102e89190612140565b60405180910390f35b61030b600480360381019061030691906123bd565b610c7e565b005b61032760048036038101906103229190612527565b610c94565b005b610343600480360381019061033e9190612193565b610cf6565b6040516103509190612140565b60405180910390f35b610373600480360381019061036e91906125a7565b610d08565b604051610380919061209d565b60405180910390f35b6103a3600480360381019061039e9190612340565b610d96565b005b5f7f80ac58cd000000000000000000000000000000000000000000000000000000007bffffffffffffffffffffffffffffffffffffffffffffffffffffffff1916827bffffffffffffffffffffffffffffffffffffffffffffffffffffffff1916148061046f57507f5b5e139f000000000000000000000000000000000000000000000000000000007bffffffffffffffffffffffffffffffffffffffffffffffffffffffff1916827bffffffffffffffffffffffffffffffffffffffffffffffffffffffff1916145b8061047f575061047e82610e8c565b5b9050919050565b60605f805461049490612612565b80601f01602080910402602001604051908101604052809291908181526020018280546104c090612612565b801561050b5780601f106104e25761010080835404028352916020019161050b565b820191905f5260205f20905b8154815290600101906020018083116104ee57829003601f168201915b5050505050905090565b5f61051f82610ef5565b61055e576040517f08c379a0000000000000000000000000000000000000000000000000000000008152600401610555906126b2565b60405180910390fd5b60045f8381526020019081526020015f205f9054906101000a900473ffffffffffffffffffffffffffffffffffffffff169050919050565b5f6105a0826109df565b90508073ffffffffffffffffffffffffffffffffffffffff168373ffffffffffffffffffffffffffffffffffffffff1603610610576040517f08c379a000000000000000000000000000000000000000000000000000000000815260040161060790612740565b60405180910390fd5b8073ffffffffffffffffffffffffffffffffffffffff1661062f610f5d565b73ffffffffffffffffffffffffffffffffffffffff16148061065e575061065d81610658610f5d565b610d08565b5b61069d576040517f08c379a0000000000000000000000000000000000000000000000000000000008152600401610694906127ce565b60405180910390fd5b6106a78383610f64565b505050565b6106b4610f5d565b73ffffffffffffffffffffffffffffffffffffffff166106d2610bc6565b73ffffffffffffffffffffffffffffffffffffffff1614610728576040517f08c379a000000000000000000000000000000000000000000000000000000000815260040161071f90612836565b60405180910390fd5b5f600190505b603281116107ca57610740600b61101a565b5f61074b600b61102e565b90505f61075f61075a836108ef565b61103a565b60405160200161076f91906128d8565b60405160208183030381529060405290508060085f8481526020019081526020015f20908161079e9190612a96565b504260095f8481526020019081526020015f2081905550505080806107c290612b92565b91505061072e565b50565b6107d7600b61102e565b811115610819576040517f08c379a000000000000000000000000000000000000000000000000000000000815260040161081090612c23565b60405180910390fd5b600a5460095f8381526020019081526020015f20546108389190612c41565b42106108825761084781611199565b6040517f08c379a000000000000000000000000000000000000000000000000000000000815260040161087990612ce4565b60405180910390fd5b61088c33826111a5565b50565b6108a061089a610f5d565b82611374565b6108df576040517f08c379a00000000000000000000000000000000000000000000000000000000081526004016108d690612d72565b60405180910390fd5b6108ea838383611450565b505050565b60605f60405160200161090190612e4c565b60405160208183030381529060405290505f61095a5f6032866109249190612e8d565b146109475760016032866109389190612ebd565b6109429190612c41565b610955565b6032856109549190612ebd565b5b6116ab565b61098a5f60328761096b9190612e8d565b146109825760328661097d9190612e8d565b610985565b60325b6116ab565b6109938461103a565b6040516020016109a5939291906130cf565b60405160208183030381529060405290508092505050919050565b6109da83838360405180602001604052805f815250610c94565b505050565b5f8060025f8481526020019081526020015f205f9054906101000a900473ffffffffffffffffffffffffffffffffffffffff1690505f73ffffffffffffffffffffffffffffffffffffffff168173ffffffffffffffffffffffffffffffffffffffff1603610a82576040517f08c379a0000000000000000000000000000000000000000000000000000000008152600401610a79906131b1565b60405180910390fd5b80915050919050565b5f8073ffffffffffffffffffffffffffffffffffffffff168273ffffffffffffffffffffffffffffffffffffffff1603610afa576040517f08c379a0000000000000000000000000000000000000000000000000000000008152600401610af19061323f565b60405180910390fd5b60035f8373ffffffffffffffffffffffffffffffffffffffff1673ffffffffffffffffffffffffffffffffffffffff1681526020019081526020015f20549050919050565b610b47610f5d565b73ffffffffffffffffffffffffffffffffffffffff16610b65610bc6565b73ffffffffffffffffffffffffffffffffffffffff1614610bbb576040517f08c379a0000000000000000000000000000000000000000000000000000000008152600401610bb290612836565b60405180910390fd5b610bc45f611804565b565b5f60075f9054906101000a900473ffffffffffffffffffffffffffffffffffffffff16905090565b606060018054610bfd90612612565b80601f0160208091040260200160405190810160405280929190818152602001828054610c2990612612565b8015610c745780601f10610c4b57610100808354040283529160200191610c74565b820191905f5260205f20905b815481529060010190602001808311610c5757829003601f168201915b5050505050905090565b610c90610c89610f5d565b83836118c7565b5050565b610ca5610c9f610f5d565b83611374565b610ce4576040517f08c379a0000000000000000000000000000000000000000000000000000000008152600401610cdb90612d72565b60405180910390fd5b610cf084848484611a2e565b50505050565b6060610d0182611a8a565b9050919050565b5f60055f8473ffffffffffffffffffffffffffffffffffffffff1673ffffffffffffffffffffffffffffffffffffffff1681526020019081526020015f205f8373ffffffffffffffffffffffffffffffffffffffff1673ffffffffffffffffffffffffffffffffffffffff1681526020019081526020015f205f9054906101000a900460ff16905092915050565b610d9e610f5d565b73ffffffffffffffffffffffffffffffffffffffff16610dbc610bc6565b73ffffffffffffffffffffffffffffffffffffffff1614610e12576040517f08c379a0000000000000000000000000000000000000000000000000000000008152600401610e0990612836565b60405180910390fd5b5f73ffffffffffffffffffffffffffffffffffffffff168173ffffffffffffffffffffffffffffffffffffffff1603610e80576040517f08c379a0000000000000000000000000000000000000000000000000000000008152600401610e77906132cd565b60405180910390fd5b610e8981611804565b50565b5f7f01ffc9a7000000000000000000000000000000000000000000000000000000007bffffffffffffffffffffffffffffffffffffffffffffffffffffffff1916827bffffffffffffffffffffffffffffffffffffffffffffffffffffffff1916149050919050565b5f8073ffffffffffffffffffffffffffffffffffffffff1660025f8481526020019081526020015f205f9054906101000a900473ffffffffffffffffffffffffffffffffffffffff1673ffffffffffffffffffffffffffffffffffffffff1614159050919050565b5f33905090565b8160045f8381526020019081526020015f205f6101000a81548173ffffffffffffffffffffffffffffffffffffffff021916908373ffffffffffffffffffffffffffffffffffffffff160217905550808273ffffffffffffffffffffffffffffffffffffffff16610fd4836109df565b73ffffffffffffffffffffffffffffffffffffffff167f8c5be1e5ebec7d5bd14f71427d1e84f3dd0314c0f7b2291e5b200ac8c7c3b92560405160405180910390a45050565b6001815f015f828254019250508190555050565b5f815f01549050919050565b60605f82510361105a5760405180602001604052805f8152509050611194565b5f6040518060600160405280604081526020016138c56040913990505f6003600285516110879190612c41565b6110919190612ebd565b600461109d91906132eb565b67ffffffffffffffff8111156110b6576110b5612403565b5b6040519080825280601f01601f1916602001820160405280156110e85781602001600182028036833780820191505090505b509050600182016020820185865187015b80821015611154576003820191508151603f8160121c168501518453600184019350603f81600c1c168501518453600184019350603f8160061c168501518453600184019350603f81168501518453600184019350506110f9565b505060038651066001811461117057600281146111835761118b565b603d6001830353603d600283035361118b565b603d60018303535b50505080925050505b919050565b6111a281611bd3565b50565b5f73ffffffffffffffffffffffffffffffffffffffff168273ffffffffffffffffffffffffffffffffffffffff1603611213576040517f08c379a000000000000000000000000000000000000000000000000000000000815260040161120a90613376565b60405180910390fd5b61121c81610ef5565b1561125c576040517f08c379a0000000000000000000000000000000000000000000000000000000008152600401611253906133de565b60405180910390fd5b6112675f8383611c20565b600160035f8473ffffffffffffffffffffffffffffffffffffffff1673ffffffffffffffffffffffffffffffffffffffff1681526020019081526020015f205f8282546112b49190612c41565b925050819055508160025f8381526020019081526020015f205f6101000a81548173ffffffffffffffffffffffffffffffffffffffff021916908373ffffffffffffffffffffffffffffffffffffffff160217905550808273ffffffffffffffffffffffffffffffffffffffff165f73ffffffffffffffffffffffffffffffffffffffff167fddf252ad1be2c89b69c2b068fc378daa952ba7f163c4a11628f55a4df523b3ef60405160405180910390a46113705f8383611c25565b5050565b5f61137e82610ef5565b6113bd576040517f08c379a00000000000000000000000000000000000000000000000000000000081526004016113b49061346c565b60405180910390fd5b5f6113c7836109df565b90508073ffffffffffffffffffffffffffffffffffffffff168473ffffffffffffffffffffffffffffffffffffffff16148061140957506114088185610d08565b5b8061144757508373ffffffffffffffffffffffffffffffffffffffff1661142f84610515565b73ffffffffffffffffffffffffffffffffffffffff16145b91505092915050565b8273ffffffffffffffffffffffffffffffffffffffff16611470826109df565b73ffffffffffffffffffffffffffffffffffffffff16146114c6576040517f08c379a00000000000000000000000000000000000000000000000000000000081526004016114bd906134fa565b60405180910390fd5b5f73ffffffffffffffffffffffffffffffffffffffff168273ffffffffffffffffffffffffffffffffffffffff1603611534576040517f08c379a000000000000000000000000000000000000000000000000000000000815260040161152b90613588565b60405180910390fd5b61153f838383611c20565b6115495f82610f64565b600160035f8573ffffffffffffffffffffffffffffffffffffffff1673ffffffffffffffffffffffffffffffffffffffff1681526020019081526020015f205f82825461159691906135a6565b92505081905550600160035f8473ffffffffffffffffffffffffffffffffffffffff1673ffffffffffffffffffffffffffffffffffffffff1681526020019081526020015f205f8282546115ea9190612c41565b925050819055508160025f8381526020019081526020015f205f6101000a81548173ffffffffffffffffffffffffffffffffffffffff021916908373ffffffffffffffffffffffffffffffffffffffff160217905550808273ffffffffffffffffffffffffffffffffffffffff168473ffffffffffffffffffffffffffffffffffffffff167fddf252ad1be2c89b69c2b068fc378daa952ba7f163c4a11628f55a4df523b3ef60405160405180910390a46116a6838383611c25565b505050565b60605f82036116f1576040518060400160405280600181526020017f300000000000000000000000000000000000000000000000000000000000000081525090506117ff565b5f8290505f5b5f821461172057808061170990612b92565b915050600a826117199190612ebd565b91506116f7565b5f8167ffffffffffffffff81111561173b5761173a612403565b5b6040519080825280601f01601f19166020018201604052801561176d5781602001600182028036833780820191505090505b5090505b5f85146117f85760018261178591906135a6565b9150600a856117949190612e8d565b60306117a09190612c41565b60f81b8183815181106117b6576117b56135d9565b5b60200101907effffffffffffffffffffffffffffffffffffffffffffffffffffffffffffff191690815f1a905350600a856117f19190612ebd565b9450611771565b8093505050505b919050565b5f60075f9054906101000a900473ffffffffffffffffffffffffffffffffffffffff1690508160075f6101000a81548173ffffffffffffffffffffffffffffffffffffffff021916908373ffffffffffffffffffffffffffffffffffffffff1602179055508173ffffffffffffffffffffffffffffffffffffffff168173ffffffffffffffffffffffffffffffffffffffff167f8be0079c531659141344cd1fd0a4f28419497f9722a3daafe3b4186f6b6457e060405160405180910390a35050565b8173ffffffffffffffffffffffffffffffffffffffff168373ffffffffffffffffffffffffffffffffffffffff1603611935576040517f08c379a000000000000000000000000000000000000000000000000000000000815260040161192c90613650565b60405180910390fd5b8060055f8573ffffffffffffffffffffffffffffffffffffffff1673ffffffffffffffffffffffffffffffffffffffff1681526020019081526020015f205f8473ffffffffffffffffffffffffffffffffffffffff1673ffffffffffffffffffffffffffffffffffffffff1681526020019081526020015f205f6101000a81548160ff0219169083151502179055508173ffffffffffffffffffffffffffffffffffffffff168373ffffffffffffffffffffffffffffffffffffffff167f17307eab39ab6107e8899845ad3d59bd9653f200f220920489ca2b5937696c3183604051611a21919061209d565b60405180910390a3505050565b611a39848484611450565b611a4584848484611c2a565b611a84576040517f08c379a0000000000000000000000000000000000000000000000000000000008152600401611a7b906136de565b60405180910390fd5b50505050565b6060611a9582610ef5565b611ad4576040517f08c379a0000000000000000000000000000000000000000000000000000000008152600401611acb9061376c565b60405180910390fd5b5f60065f8481526020019081526020015f208054611af190612612565b80601f0160208091040260200160405190810160405280929190818152602001828054611b1d90612612565b8015611b685780601f10611b3f57610100808354040283529160200191611b68565b820191905f5260205f20905b815481529060010190602001808311611b4b57829003601f168201915b505050505090505f611b78611dac565b90505f815103611b8c578192505050611bce565b5f82511115611bc0578082604051602001611ba892919061378a565b60405160208183030381529060405292505050611bce565b611bc984611dc2565b925050505b919050565b611bdc81611e66565b5f60065f8381526020019081526020015f208054611bf990612612565b905014611c1d5760065f8281526020019081526020015f205f611c1c9190611f9a565b5b50565b505050565b505050565b5f611c4a8473ffffffffffffffffffffffffffffffffffffffff16611f78565b15611d9f578373ffffffffffffffffffffffffffffffffffffffff1663150b7a02611c73610f5d565b8786866040518563ffffffff1660e01b8152600401611c9594939291906137ad565b6020604051808303815f875af1925050508015611cd057506040513d601f19601f82011682018060405250810190611ccd919061380b565b60015b611d4f573d805f8114611cfe576040519150601f19603f3d011682016040523d82523d5f602084013e611d03565b606091505b505f815103611d47576040517f08c379a0000000000000000000000000000000000000000000000000000000008152600401611d3e906136de565b60405180910390fd5b805181602001fd5b63150b7a0260e01b7bffffffffffffffffffffffffffffffffffffffffffffffffffffffff1916817bffffffffffffffffffffffffffffffffffffffffffffffffffffffff191614915050611da4565b600190505b949350505050565b606060405180602001604052805f815250905090565b6060611dcd82610ef5565b611e0c576040517f08c379a0000000000000000000000000000000000000000000000000000000008152600401611e03906138a6565b60405180910390fd5b5f611e15611dac565b90505f815111611e335760405180602001604052805f815250611e5e565b80611e3d846116ab565b604051602001611e4e92919061378a565b6040516020818303038152906040525b915050919050565b5f611e70826109df565b9050611e7d815f84611c20565b611e875f83610f64565b600160035f8373ffffffffffffffffffffffffffffffffffffffff1673ffffffffffffffffffffffffffffffffffffffff1681526020019081526020015f205f828254611ed491906135a6565b9250508190555060025f8381526020019081526020015f205f6101000a81549073ffffffffffffffffffffffffffffffffffffffff0219169055815f73ffffffffffffffffffffffffffffffffffffffff168273ffffffffffffffffffffffffffffffffffffffff167fddf252ad1be2c89b69c2b068fc378daa952ba7f163c4a11628f55a4df523b3ef60405160405180910390a4611f74815f84611c25565b5050565b5f808273ffffffffffffffffffffffffffffffffffffffff163b119050919050565b508054611fa690612612565b5f825580601f10611fb75750611fd4565b601f0160209004905f5260205f2090810190611fd39190611fd7565b5b50565b5b80821115611fee575f815f905550600101611fd8565b5090565b5f604051905090565b5f80fd5b5f80fd5b5f7fffffffff0000000000000000000000000000000000000000000000000000000082169050919050565b61203781612003565b8114612041575f80fd5b50565b5f813590506120528161202e565b92915050565b5f6020828403121561206d5761206c611ffb565b5b5f61207a84828501612044565b91505092915050565b5f8115159050919050565b61209781612083565b82525050565b5f6020820190506120b05f83018461208e565b92915050565b5f81519050919050565b5f82825260208201905092915050565b5f5b838110156120ed5780820151818401526020810190506120d2565b5f8484015250505050565b5f601f19601f8301169050919050565b5f612112826120b6565b61211c81856120c0565b935061212c8185602086016120d0565b612135816120f8565b840191505092915050565b5f6020820190508181035f8301526121588184612108565b905092915050565b5f819050919050565b61217281612160565b811461217c575f80fd5b50565b5f8135905061218d81612169565b92915050565b5f602082840312156121a8576121a7611ffb565b5b5f6121b58482850161217f565b91505092915050565b5f73ffffffffffffffffffffffffffffffffffffffff82169050919050565b5f6121e7826121be565b9050919050565b6121f7816121dd565b82525050565b5f6020820190506122105f8301846121ee565b92915050565b61221f816121dd565b8114612229575f80fd5b50565b5f8135905061223a81612216565b92915050565b5f806040838503121561225657612255611ffb565b5b5f6122638582860161222c565b92505060206122748582860161217f565b9150509250929050565b5f805f6060848603121561229557612294611ffb565b5b5f6122a28682870161222c565b93505060206122b38682870161222c565b92505060406122c48682870161217f565b9150509250925092565b5f81519050919050565b5f82825260208201905092915050565b5f6122f2826122ce565b6122fc81856122d8565b935061230c8185602086016120d0565b612315816120f8565b840191505092915050565b5f6020820190508181035f83015261233881846122e8565b905092915050565b5f6020828403121561235557612354611ffb565b5b5f6123628482850161222c565b91505092915050565b61237481612160565b82525050565b5f60208201905061238d5f83018461236b565b92915050565b61239c81612083565b81146123a6575f80fd5b50565b5f813590506123b781612393565b92915050565b5f80604083850312156123d3576123d2611ffb565b5b5f6123e08582860161222c565b92505060206123f1858286016123a9565b9150509250929050565b5f80fd5b5f80fd5b7f4e487b71000000000000000000000000000000000000000000000000000000005f52604160045260245ffd5b612439826120f8565b810181811067ffffffffffffffff8211171561245857612457612403565b5b80604052505050565b5f61246a611ff2565b90506124768282612430565b919050565b5f67ffffffffffffffff82111561249557612494612403565b5b61249e826120f8565b9050602081019050919050565b828183375f83830152505050565b5f6124cb6124c68461247b565b612461565b9050828152602081018484840111156124e7576124e66123ff565b5b6124f28482856124ab565b509392505050565b5f82601f83011261250e5761250d6123fb565b5b813561251e8482602086016124b9565b91505092915050565b5f805f806080858703121561253f5761253e611ffb565b5b5f61254c8782880161222c565b945050602061255d8782880161222c565b935050604061256e8782880161217f565b925050606085013567ffffffffffffffff81111561258f5761258e611fff565b5b61259b878288016124fa565b91505092959194509250565b5f80604083850312156125bd576125bc611ffb565b5b5f6125ca8582860161222c565b92505060206125db8582860161222c565b9150509250929050565b7f4e487b71000000000000000000000000000000000000000000000000000000005f52602260045260245ffd5b5f600282049050600182168061262957607f821691505b60208210810361263c5761263b6125e5565b5b50919050565b7f4552433732313a20617070726f76656420717565727920666f72206e6f6e65785f8201527f697374656e7420746f6b656e0000000000000000000000000000000000000000602082015250565b5f61269c602c836120c0565b91506126a782612642565b604082019050919050565b5f6020820190508181035f8301526126c981612690565b9050919050565b7f4552433732313a20617070726f76616c20746f2063757272656e74206f776e655f8201527f7200000000000000000000000000000000000000000000000000000000000000602082015250565b5f61272a6021836120c0565b9150612735826126d0565b604082019050919050565b5f6020820190508181035f8301526127578161271e565b9050919050565b7f4552433732313a20617070726f76652063616c6c6572206973206e6f74206f775f8201527f6e6572206e6f7220617070726f76656420666f7220616c6c0000000000000000602082015250565b5f6127b86038836120c0565b91506127c38261275e565b604082019050919050565b5f6020820190508181035f8301526127e5816127ac565b9050919050565b7f4f776e61626c653a2063616c6c6572206973206e6f7420746865206f776e65725f82015250565b5f6128206020836120c0565b915061282b826127ec565b602082019050919050565b5f6020820190508181035f83015261284d81612814565b9050919050565b5f81905092915050565b7f646174613a6170706c69636174696f6e2f6a736f6e3b6261736536342c0000005f82015250565b5f612892601d83612854565b915061289d8261285e565b601d82019050919050565b5f6128b2826120b6565b6128bc8185612854565b93506128cc8185602086016120d0565b80840191505092915050565b5f6128e282612886565b91506128ee82846128a8565b915081905092915050565b5f819050815f5260205f209050919050565b5f6020601f8301049050919050565b5f82821b905092915050565b5f600883026129557fffffffffffffffffffffffffffffffffffffffffffffffffffffffffffffffff8261291a565b61295f868361291a565b95508019841693508086168417925050509392505050565b5f819050919050565b5f61299a61299561299084612160565b612977565b612160565b9050919050565b5f819050919050565b6129b383612980565b6129c76129bf826129a1565b848454612926565b825550505050565b5f90565b6129db6129cf565b6129e68184846129aa565b505050565b5b81811015612a09576129fe5f826129d3565b6001810190506129ec565b5050565b601f821115612a4e57612a1f816128f9565b612a288461290b565b81016020851015612a37578190505b612a4b612a438561290b565b8301826129eb565b50505b505050565b5f82821c905092915050565b5f612a6e5f1984600802612a53565b1980831691505092915050565b5f612a868383612a5f565b9150826002028217905092915050565b612a9f826120b6565b67ffffffffffffffff811115612ab857612ab7612403565b5b612ac28254612612565b612acd828285612a0d565b5f60209050601f831160018114612afe575f8415612aec578287015190505b612af68582612a7b565b865550612b5d565b601f198416612b0c866128f9565b5f5b82811015612b3357848901518255600182019150602085019450602081019050612b0e565b86831015612b505784890151612b4c601f891682612a5f565b8355505b6001600288020188555050505b505050505050565b7f4e487b71000000000000000000000000000000000000000000000000000000005f52601160045260245ffd5b5f612b9c82612160565b91507fffffffffffffffffffffffffffffffffffffffffffffffffffffffffffffffff8203612bce57612bcd612b65565b5b600182019050919050565b7f496e76616c696420746f6b656e204944000000000000000000000000000000005f82015250565b5f612c0d6010836120c0565b9150612c1882612bd9565b602082019050919050565b5f6020820190508181035f830152612c3a81612c01565b9050919050565b5f612c4b82612160565b9150612c5683612160565b9250828201905080821115612c6e57612c6d612b65565b5b92915050565b7f546f6b656e2063616e2774206265206d696e7465642c20616e642069742068615f8201527f73206265656e206275726e742e00000000000000000000000000000000000000602082015250565b5f612cce602d836120c0565b9150612cd982612c74565b604082019050919050565b5f6020820190508181035f830152612cfb81612cc2565b9050919050565b7f4552433732313a207472616e736665722063616c6c6572206973206e6f74206f5f8201527f776e6572206e6f7220617070726f766564000000000000000000000000000000602082015250565b5f612d5c6031836120c0565b9150612d6782612d02565b604082019050919050565b5f6020820190508181035f830152612d8981612d50565b9050919050565b7f3c7376672077696474683d2731353027206865696768743d273135302720786d5f8201527f6c6e733d27687474703a2f2f7777772e77332e6f72672f323030302f7376672760208201527f3e3c726563742077696474683d2731353027206865696768743d27313530272060408201527f66696c6c3d2723313231323132272f3e3c2f7376673e00000000000000000000606082015250565b5f612e36607683612854565b9150612e4182612d90565b607682019050919050565b5f612e5682612e2a565b9150819050919050565b7f4e487b71000000000000000000000000000000000000000000000000000000005f52601260045260245ffd5b5f612e9782612160565b9150612ea283612160565b925082612eb257612eb1612e60565b5b828206905092915050565b5f612ec782612160565b9150612ed283612160565b925082612ee257612ee1612e60565b5b828204905092915050565b7f7b226e616d65223a2200000000000000000000000000000000000000000000005f82015250565b5f612f21600983612854565b9150612f2c82612eed565b600982019050919050565b7f3c3135302a31353070782c20233132313231323e2000000000000000000000005f82015250565b5f612f6b601583612854565b9150612f7682612f37565b601582019050919050565b7f2d000000000000000000000000000000000000000000000000000000000000005f82015250565b5f612fb5600183612854565b9150612fc082612f81565b600182019050919050565b7f222c226465736372697074696f6e223a2254657374222c0000000000000000005f82015250565b5f612fff601783612854565b915061300a82612fcb565b601782019050919050565b7f22616e696d6174696f6e5f75726c223a2022646174613a696d6167652f7376675f8201527f2b786d6c3b6261736536342c0000000000000000000000000000000000000000602082015250565b5f61306f602c83612854565b915061307a82613015565b602c82019050919050565b7f227d0000000000000000000000000000000000000000000000000000000000005f82015250565b5f6130b9600283612854565b91506130c482613085565b600282019050919050565b5f6130d982612f15565b91506130e482612f5f565b91506130f082866128a8565b91506130fb82612fa9565b915061310782856128a8565b915061311282612ff3565b915061311d82613063565b915061312982846128a8565b9150613134826130ad565b9150819050949350505050565b7f4552433732313a206f776e657220717565727920666f72206e6f6e65786973745f8201527f656e7420746f6b656e0000000000000000000000000000000000000000000000602082015250565b5f61319b6029836120c0565b91506131a682613141565b604082019050919050565b5f6020820190508181035f8301526131c88161318f565b9050919050565b7f4552433732313a2062616c616e636520717565727920666f7220746865207a655f8201527f726f206164647265737300000000000000000000000000000000000000000000602082015250565b5f613229602a836120c0565b9150613234826131cf565b604082019050919050565b5f6020820190508181035f8301526132568161321d565b9050919050565b7f4f776e61626c653a206e6577206f776e657220697320746865207a65726f20615f8201527f6464726573730000000000000000000000000000000000000000000000000000602082015250565b5f6132b76026836120c0565b91506132c28261325d565b604082019050919050565b5f6020820190508181035f8301526132e4816132ab565b9050919050565b5f6132f582612160565b915061330083612160565b925082820261330e81612160565b9150828204841483151761332557613324612b65565b5b5092915050565b7f4552433732313a206d696e7420746f20746865207a65726f20616464726573735f82015250565b5f6133606020836120c0565b915061336b8261332c565b602082019050919050565b5f6020820190508181035f83015261338d81613354565b9050919050565b7f4552433732313a20746f6b656e20616c7265616479206d696e746564000000005f82015250565b5f6133c8601c836120c0565b91506133d382613394565b602082019050919050565b5f6020820190508181035f8301526133f5816133bc565b9050919050565b7f4552433732313a206f70657261746f7220717565727920666f72206e6f6e65785f8201527f697374656e7420746f6b656e0000000000000000000000000000000000000000602082015250565b5f613456602c836120c0565b9150613461826133fc565b604082019050919050565b5f6020820190508181035f8301526134838161344a565b9050919050565b7f4552433732313a207472616e736665722066726f6d20696e636f7272656374205f8201527f6f776e6572000000000000000000000000000000000000000000000000000000602082015250565b5f6134e46025836120c0565b91506134ef8261348a565b604082019050919050565b5f6020820190508181035f830152613511816134d8565b9050919050565b7f4552433732313a207472616e7366657220746f20746865207a65726f206164645f8201527f7265737300000000000000000000000000000000000000000000000000000000602082015250565b5f6135726024836120c0565b915061357d82613518565b604082019050919050565b5f6020820190508181035f83015261359f81613566565b9050919050565b5f6135b082612160565b91506135bb83612160565b92508282039050818111156135d3576135d2612b65565b5b92915050565b7f4e487b71000000000000000000000000000000000000000000000000000000005f52603260045260245ffd5b7f4552433732313a20617070726f766520746f2063616c6c6572000000000000005f82015250565b5f61363a6019836120c0565b915061364582613606565b602082019050919050565b5f6020820190508181035f8301526136678161362e565b9050919050565b7f4552433732313a207472616e7366657220746f206e6f6e2045524337323152655f8201527f63656976657220696d706c656d656e7465720000000000000000000000000000602082015250565b5f6136c86032836120c0565b91506136d38261366e565b604082019050919050565b5f6020820190508181035f8301526136f5816136bc565b9050919050565b7f45524337323155524953746f726167653a2055524920717565727920666f72205f8201527f6e6f6e6578697374656e7420746f6b656e000000000000000000000000000000602082015250565b5f6137566031836120c0565b9150613761826136fc565b604082019050919050565b5f6020820190508181035f8301526137838161374a565b9050919050565b5f61379582856128a8565b91506137a182846128a8565b91508190509392505050565b5f6080820190506137c05f8301876121ee565b6137cd60208301866121ee565b6137da604083018561236b565b81810360608301526137ec81846122e8565b905095945050505050565b5f815190506138058161202e565b92915050565b5f602082840312156138205761381f611ffb565b5b5f61382d848285016137f7565b91505092915050565b7f4552433732314d657461646174613a2055524920717565727920666f72206e6f5f8201527f6e6578697374656e7420746f6b656e0000000000000000000000000000000000602082015250565b5f613890602f836120c0565b915061389b82613836565b604082019050919050565b5f6020820190508181035f8301526138bd81613884565b905091905056fe4142434445464748494a4b4c4d4e4f505152535455565758595a6162636465666768696a6b6c6d6e6f707172737475767778797a303132333435363738392b2fa2646970667358221220b46e48d9b0f28428e1f73baaf3a4f101bfab7b5b7fd6bdc8d846ba6e386651d764736f6c634300081800334142434445464748494a4b4c4d4e4f505152535455565758595a6162636465666768696a6b6c6d6e6f707172737475767778797a303132333435363738392b2f",
			"opcodes": "PUSH1 0x80 PUSH1 0x40 MSTORE PUSH3 0x15180 PUSH1 0xA SSTORE CALLVALUE DUP1 ISZERO PUSH3 0x17 JUMPI PUSH0 DUP1 REVERT JUMPDEST POP PUSH1 0x40 MLOAD DUP1 PUSH1 0x40 ADD PUSH1 0x40 MSTORE DUP1 PUSH1 0x14 DUP2 MSTORE PUSH1 0x20 ADD PUSH32 0x3C3135302A31353070782C20233132313231323E000000000000000000000000 DUP2 MSTORE POP PUSH1 0x40 MLOAD DUP1 PUSH1 0x40 ADD PUSH1 0x40 MSTORE DUP1 PUSH1 0x3 DUP2 MSTORE PUSH1 0x20 ADD PUSH32 0x42534E0000000000000000000000000000000000000000000000000000000000 DUP2 MSTORE POP DUP2 PUSH0 SWAP1 DUP2 PUSH3 0x94 SWAP2 SWAP1 PUSH3 0x107B JUMP JUMPDEST POP DUP1 PUSH1 0x1 SWAP1 DUP2 PUSH3 0xA6 SWAP2 SWAP1 PUSH3 0x107B JUMP JUMPDEST POP POP POP PUSH3 0xC9 PUSH3 0xBD PUSH3 0x116 PUSH1 0x20 SHL PUSH1 0x20 SHR JUMP JUMPDEST PUSH3 0x11D PUSH1 0x20 SHL PUSH1 0x20 SHR JUMP JUMPDEST PUSH3 0xD9 PUSH3 0x1E0 PUSH1 0x20 SHL PUSH1 0x20 SHR JUMP JUMPDEST PUSH0 PUSH1 0x1 SWAP1 POP JUMPDEST PUSH1 0x32 DUP2 GT PUSH3 0x10F JUMPI PUSH3 0xF9 DUP2 PUSH3 0x33C PUSH1 0x20 SHL PUSH1 0x20 SHR JUMP JUMPDEST DUP1 DUP1 PUSH3 0x106 SWAP1 PUSH3 0x118C JUMP JUMPDEST SWAP2 POP POP PUSH3 0xDF JUMP JUMPDEST POP PUSH3 0x1A7F JUMP JUMPDEST PUSH0 CALLER SWAP1 POP SWAP1 JUMP JUMPDEST PUSH0 PUSH1 0x7 PUSH0 SWAP1 SLOAD SWAP1 PUSH2 0x100 EXP SWAP1 DIV PUSH20 0xFFFFFFFFFFFFFFFFFFFFFFFFFFFFFFFFFFFFFFFF AND SWAP1 POP DUP2 PUSH1 0x7 PUSH0 PUSH2 0x100 EXP DUP2 SLOAD DUP2 PUSH20 0xFFFFFFFFFFFFFFFFFFFFFFFFFFFFFFFFFFFFFFFF MUL NOT AND SWAP1 DUP4 PUSH20 0xFFFFFFFFFFFFFFFFFFFFFFFFFFFFFFFFFFFFFFFF AND MUL OR SWAP1 SSTORE POP DUP2 PUSH20 0xFFFFFFFFFFFFFFFFFFFFFFFFFFFFFFFFFFFFFFFF AND DUP2 PUSH20 0xFFFFFFFFFFFFFFFFFFFFFFFFFFFFFFFFFFFFFFFF AND PUSH32 0x8BE0079C531659141344CD1FD0A4F28419497F9722A3DAAFE3B4186F6B6457E0 PUSH1 0x40 MLOAD PUSH1 0x40 MLOAD DUP1 SWAP2 SUB SWAP1 LOG3 POP POP JUMP JUMPDEST PUSH3 0x1F0 PUSH3 0x116 PUSH1 0x20 SHL PUSH1 0x20 SHR JUMP JUMPDEST PUSH20 0xFFFFFFFFFFFFFFFFFFFFFFFFFFFFFFFFFFFFFFFF AND PUSH3 0x216 PUSH3 0x41E PUSH1 0x20 SHL PUSH1 0x20 SHR JUMP JUMPDEST PUSH20 0xFFFFFFFFFFFFFFFFFFFFFFFFFFFFFFFFFFFFFFFF AND EQ PUSH3 0x26F JUMPI PUSH1 0x40 MLOAD PUSH32 0x8C379A000000000000000000000000000000000000000000000000000000000 DUP2 MSTORE PUSH1 0x4 ADD PUSH3 0x266 SWAP1 PUSH3 0x1236 JUMP JUMPDEST PUSH1 0x40 MLOAD DUP1 SWAP2 SUB SWAP1 REVERT JUMPDEST PUSH0 PUSH1 0x1 SWAP1 POP JUMPDEST PUSH1 0x32 DUP2 GT PUSH3 0x339 JUMPI PUSH3 0x290 PUSH1 0xB PUSH3 0x446 PUSH1 0x20 SHL PUSH1 0x20 SHR JUMP JUMPDEST PUSH0 PUSH3 0x2A3 PUSH1 0xB PUSH3 0x45A PUSH1 0x20 SHL PUSH1 0x20 SHR JUMP JUMPDEST SWAP1 POP PUSH0 PUSH3 0x2C7 PUSH3 0x2BB DUP4 PUSH3 0x466 PUSH1 0x20 SHL PUSH1 0x20 SHR JUMP JUMPDEST PUSH3 0x563 PUSH1 0x20 SHL PUSH1 0x20 SHR JUMP JUMPDEST PUSH1 0x40 MLOAD PUSH1 0x20 ADD PUSH3 0x2D9 SWAP2 SWAP1 PUSH3 0x130E JUMP JUMPDEST PUSH1 0x40 MLOAD PUSH1 0x20 DUP2 DUP4 SUB SUB DUP2 MSTORE SWAP1 PUSH1 0x40 MSTORE SWAP1 POP DUP1 PUSH1 0x8 PUSH0 DUP5 DUP2 MSTORE PUSH1 0x20 ADD SWAP1 DUP2 MSTORE PUSH1 0x20 ADD PUSH0 KECCAK256 SWAP1 DUP2 PUSH3 0x30A SWAP2 SWAP1 PUSH3 0x107B JUMP JUMPDEST POP TIMESTAMP PUSH1 0x9 PUSH0 DUP5 DUP2 MSTORE PUSH1 0x20 ADD SWAP1 DUP2 MSTORE PUSH1 0x20 ADD PUSH0 KECCAK256 DUP2 SWAP1 SSTORE POP POP POP DUP1 DUP1 PUSH3 0x330 SWAP1 PUSH3 0x118C JUMP JUMPDEST SWAP2 POP POP PUSH3 0x275 JUMP JUMPDEST POP JUMP JUMPDEST PUSH3 0x34E PUSH1 0xB PUSH3 0x45A PUSH1 0x20 SHL PUSH1 0x20 SHR JUMP JUMPDEST DUP2 GT ISZERO PUSH3 0x393 JUMPI PUSH1 0x40 MLOAD PUSH32 0x8C379A000000000000000000000000000000000000000000000000000000000 DUP2 MSTORE PUSH1 0x4 ADD PUSH3 0x38A SWAP1 PUSH3 0x1381 JUMP JUMPDEST PUSH1 0x40 MLOAD DUP1 SWAP2 SUB SWAP1 REVERT JUMPDEST PUSH1 0xA SLOAD PUSH1 0x9 PUSH0 DUP4 DUP2 MSTORE PUSH1 0x20 ADD SWAP1 DUP2 MSTORE PUSH1 0x20 ADD PUSH0 KECCAK256 SLOAD PUSH3 0x3B4 SWAP2 SWAP1 PUSH3 0x13A1 JUMP JUMPDEST TIMESTAMP LT PUSH3 0x409 JUMPI PUSH3 0x3CC DUP2 PUSH3 0x6D5 PUSH1 0x20 SHL PUSH1 0x20 SHR JUMP JUMPDEST PUSH1 0x40 MLOAD PUSH32 0x8C379A000000000000000000000000000000000000000000000000000000000 DUP2 MSTORE PUSH1 0x4 ADD PUSH3 0x400 SWAP1 PUSH3 0x144F JUMP JUMPDEST PUSH1 0x40 MLOAD DUP1 SWAP2 SUB SWAP1 REVERT JUMPDEST PUSH3 0x41B CALLER DUP3 PUSH3 0x6E9 PUSH1 0x20 SHL PUSH1 0x20 SHR JUMP JUMPDEST POP JUMP JUMPDEST PUSH0 PUSH1 0x7 PUSH0 SWAP1 SLOAD SWAP1 PUSH2 0x100 EXP SWAP1 DIV PUSH20 0xFFFFFFFFFFFFFFFFFFFFFFFFFFFFFFFFFFFFFFFF AND SWAP1 POP SWAP1 JUMP JUMPDEST PUSH1 0x1 DUP2 PUSH0 ADD PUSH0 DUP3 DUP3 SLOAD ADD SWAP3 POP POP DUP2 SWAP1 SSTORE POP POP JUMP JUMPDEST PUSH0 DUP2 PUSH0 ADD SLOAD SWAP1 POP SWAP2 SWAP1 POP JUMP JUMPDEST PUSH1 0x60 PUSH0 PUSH1 0x40 MLOAD PUSH1 0x20 ADD PUSH3 0x47A SWAP1 PUSH3 0x152F JUMP JUMPDEST PUSH1 0x40 MLOAD PUSH1 0x20 DUP2 DUP4 SUB SUB DUP2 MSTORE SWAP1 PUSH1 0x40 MSTORE SWAP1 POP PUSH0 PUSH3 0x4E5 PUSH0 PUSH1 0x32 DUP7 PUSH3 0x4A0 SWAP2 SWAP1 PUSH3 0x1572 JUMP JUMPDEST EQ PUSH3 0x4C9 JUMPI PUSH1 0x1 PUSH1 0x32 DUP7 PUSH3 0x4B7 SWAP2 SWAP1 PUSH3 0x15A9 JUMP JUMPDEST PUSH3 0x4C3 SWAP2 SWAP1 PUSH3 0x13A1 JUMP JUMPDEST PUSH3 0x4D9 JUMP JUMPDEST PUSH1 0x32 DUP6 PUSH3 0x4D8 SWAP2 SWAP1 PUSH3 0x15A9 JUMP JUMPDEST JUMPDEST PUSH3 0x8D8 PUSH1 0x20 SHL PUSH1 0x20 SHR JUMP JUMPDEST PUSH3 0x523 PUSH0 PUSH1 0x32 DUP8 PUSH3 0x4F9 SWAP2 SWAP1 PUSH3 0x1572 JUMP JUMPDEST EQ PUSH3 0x514 JUMPI PUSH1 0x32 DUP7 PUSH3 0x50E SWAP2 SWAP1 PUSH3 0x1572 JUMP JUMPDEST PUSH3 0x517 JUMP JUMPDEST PUSH1 0x32 JUMPDEST PUSH3 0x8D8 PUSH1 0x20 SHL PUSH1 0x20 SHR JUMP JUMPDEST PUSH3 0x534 DUP5 PUSH3 0x563 PUSH1 0x20 SHL PUSH1 0x20 SHR JUMP JUMPDEST PUSH1 0x40 MLOAD PUSH1 0x20 ADD PUSH3 0x548 SWAP4 SWAP3 SWAP2 SWAP1 PUSH3 0x17DA JUMP JUMPDEST PUSH1 0x40 MLOAD PUSH1 0x20 DUP2 DUP4 SUB SUB DUP2 MSTORE SWAP1 PUSH1 0x40 MSTORE SWAP1 POP DUP1 SWAP3 POP POP POP SWAP2 SWAP1 POP JUMP JUMPDEST PUSH1 0x60 PUSH0 DUP3 MLOAD SUB PUSH3 0x585 JUMPI PUSH1 0x40 MLOAD DUP1 PUSH1 0x20 ADD PUSH1 0x40 MSTORE DUP1 PUSH0 DUP2 MSTORE POP SWAP1 POP PUSH3 0x6D0 JUMP JUMPDEST PUSH0 PUSH1 0x40 MLOAD DUP1 PUSH1 0x60 ADD PUSH1 0x40 MSTORE DUP1 PUSH1 0x40 DUP2 MSTORE PUSH1 0x20 ADD PUSH3 0x53C7 PUSH1 0x40 SWAP2 CODECOPY SWAP1 POP PUSH0 PUSH1 0x3 PUSH1 0x2 DUP6 MLOAD PUSH3 0x5B5 SWAP2 SWAP1 PUSH3 0x13A1 JUMP JUMPDEST PUSH3 0x5C1 SWAP2 SWAP1 PUSH3 0x15A9 JUMP JUMPDEST PUSH1 0x4 PUSH3 0x5CF SWAP2 SWAP1 PUSH3 0x185E JUMP JUMPDEST PUSH8 0xFFFFFFFFFFFFFFFF DUP2 GT ISZERO PUSH3 0x5EB JUMPI PUSH3 0x5EA PUSH3 0xE21 JUMP JUMPDEST JUMPDEST PUSH1 0x40 MLOAD SWAP1 DUP1 DUP3 MSTORE DUP1 PUSH1 0x1F ADD PUSH1 0x1F NOT AND PUSH1 0x20 ADD DUP3 ADD PUSH1 0x40 MSTORE DUP1 ISZERO PUSH3 0x61E JUMPI DUP2 PUSH1 0x20 ADD PUSH1 0x1 DUP3 MUL DUP1 CALLDATASIZE DUP4 CALLDATACOPY DUP1 DUP3 ADD SWAP2 POP POP SWAP1 POP JUMPDEST POP SWAP1 POP PUSH1 0x1 DUP3 ADD PUSH1 0x20 DUP3 ADD DUP6 DUP7 MLOAD DUP8 ADD JUMPDEST DUP1 DUP3 LT ISZERO PUSH3 0x68C JUMPI PUSH1 0x3 DUP3 ADD SWAP2 POP DUP2 MLOAD PUSH1 0x3F DUP2 PUSH1 0x12 SHR AND DUP6 ADD MLOAD DUP5 MSTORE8 PUSH1 0x1 DUP5 ADD SWAP4 POP PUSH1 0x3F DUP2 PUSH1 0xC SHR AND DUP6 ADD MLOAD DUP5 MSTORE8 PUSH1 0x1 DUP5 ADD SWAP4 POP PUSH1 0x3F DUP2 PUSH1 0x6 SHR AND DUP6 ADD MLOAD DUP5 MSTORE8 PUSH1 0x1 DUP5 ADD SWAP4 POP PUSH1 0x3F DUP2 AND DUP6 ADD MLOAD DUP5 MSTORE8 PUSH1 0x1 DUP5 ADD SWAP4 POP POP PUSH3 0x62F JUMP JUMPDEST POP POP PUSH1 0x3 DUP7 MLOAD MOD PUSH1 0x1 DUP2 EQ PUSH3 0x6AB JUMPI PUSH1 0x2 DUP2 EQ PUSH3 0x6BF JUMPI PUSH3 0x6C7 JUMP JUMPDEST PUSH1 0x3D PUSH1 0x1 DUP4 SUB MSTORE8 PUSH1 0x3D PUSH1 0x2 DUP4 SUB MSTORE8 PUSH3 0x6C7 JUMP JUMPDEST PUSH1 0x3D PUSH1 0x1 DUP4 SUB MSTORE8 JUMPDEST POP POP POP DUP1 SWAP3 POP POP POP JUMPDEST SWAP2 SWAP1 POP JUMP JUMPDEST PUSH3 0x6E6 DUP2 PUSH3 0xA4A PUSH1 0x20 SHL PUSH1 0x20 SHR JUMP JUMPDEST POP JUMP JUMPDEST PUSH0 PUSH20 0xFFFFFFFFFFFFFFFFFFFFFFFFFFFFFFFFFFFFFFFF AND DUP3 PUSH20 0xFFFFFFFFFFFFFFFFFFFFFFFFFFFFFFFFFFFFFFFF AND SUB PUSH3 0x75A JUMPI PUSH1 0x40 MLOAD PUSH32 0x8C379A000000000000000000000000000000000000000000000000000000000 DUP2 MSTORE PUSH1 0x4 ADD PUSH3 0x751 SWAP1 PUSH3 0x18F6 JUMP JUMPDEST PUSH1 0x40 MLOAD DUP1 SWAP2 SUB SWAP1 REVERT JUMPDEST PUSH3 0x76B DUP2 PUSH3 0xAA4 PUSH1 0x20 SHL PUSH1 0x20 SHR JUMP JUMPDEST ISZERO PUSH3 0x7AE JUMPI PUSH1 0x40 MLOAD PUSH32 0x8C379A000000000000000000000000000000000000000000000000000000000 DUP2 MSTORE PUSH1 0x4 ADD PUSH3 0x7A5 SWAP1 PUSH3 0x1964 JUMP JUMPDEST PUSH1 0x40 MLOAD DUP1 SWAP2 SUB SWAP1 REVERT JUMPDEST PUSH3 0x7C1 PUSH0 DUP4 DUP4 PUSH3 0xB0C PUSH1 0x20 SHL PUSH1 0x20 SHR JUMP JUMPDEST PUSH1 0x1 PUSH1 0x3 PUSH0 DUP5 PUSH20 0xFFFFFFFFFFFFFFFFFFFFFFFFFFFFFFFFFFFFFFFF AND PUSH20 0xFFFFFFFFFFFFFFFFFFFFFFFFFFFFFFFFFFFFFFFF AND DUP2 MSTORE PUSH1 0x20 ADD SWAP1 DUP2 MSTORE PUSH1 0x20 ADD PUSH0 KECCAK256 PUSH0 DUP3 DUP3 SLOAD PUSH3 0x810 SWAP2 SWAP1 PUSH3 0x13A1 JUMP JUMPDEST SWAP3 POP POP DUP2 SWAP1 SSTORE POP DUP2 PUSH1 0x2 PUSH0 DUP4 DUP2 MSTORE PUSH1 0x20 ADD SWAP1 DUP2 MSTORE PUSH1 0x20 ADD PUSH0 KECCAK256 PUSH0 PUSH2 0x100 EXP DUP2 SLOAD DUP2 PUSH20 0xFFFFFFFFFFFFFFFFFFFFFFFFFFFFFFFFFFFFFFFF MUL NOT AND SWAP1 DUP4 PUSH20 0xFFFFFFFFFFFFFFFFFFFFFFFFFFFFFFFFFFFFFFFF AND MUL OR SWAP1 SSTORE POP DUP1 DUP3 PUSH20 0xFFFFFFFFFFFFFFFFFFFFFFFFFFFFFFFFFFFFFFFF AND PUSH0 PUSH20 0xFFFFFFFFFFFFFFFFFFFFFFFFFFFFFFFFFFFFFFFF AND PUSH32 0xDDF252AD1BE2C89B69C2B068FC378DAA952BA7F163C4A11628F55A4DF523B3EF PUSH1 0x40 MLOAD PUSH1 0x40 MLOAD DUP1 SWAP2 SUB SWAP1 LOG4 PUSH3 0x8D4 PUSH0 DUP4 DUP4 PUSH3 0xB11 PUSH1 0x20 SHL PUSH1 0x20 SHR JUMP JUMPDEST POP POP JUMP JUMPDEST PUSH1 0x60 PUSH0 DUP3 SUB PUSH3 0x920 JUMPI PUSH1 0x40 MLOAD DUP1 PUSH1 0x40 ADD PUSH1 0x40 MSTORE DUP1 PUSH1 0x1 DUP2 MSTORE PUSH1 0x20 ADD PUSH32 0x3000000000000000000000000000000000000000000000000000000000000000 DUP2 MSTORE POP SWAP1 POP PUSH3 0xA45 JUMP JUMPDEST PUSH0 DUP3 SWAP1 POP PUSH0 JUMPDEST PUSH0 DUP3 EQ PUSH3 0x955 JUMPI DUP1 DUP1 PUSH3 0x93B SWAP1 PUSH3 0x118C JUMP JUMPDEST SWAP2 POP POP PUSH1 0xA DUP3 PUSH3 0x94D SWAP2 SWAP1 PUSH3 0x15A9 JUMP JUMPDEST SWAP2 POP PUSH3 0x926 JUMP JUMPDEST PUSH0 DUP2 PUSH8 0xFFFFFFFFFFFFFFFF DUP2 GT ISZERO PUSH3 0x973 JUMPI PUSH3 0x972 PUSH3 0xE21 JUMP JUMPDEST JUMPDEST PUSH1 0x40 MLOAD SWAP1 DUP1 DUP3 MSTORE DUP1 PUSH1 0x1F ADD PUSH1 0x1F NOT AND PUSH1 0x20 ADD DUP3 ADD PUSH1 0x40 MSTORE DUP1 ISZERO PUSH3 0x9A6 JUMPI DUP2 PUSH1 0x20 ADD PUSH1 0x1 DUP3 MUL DUP1 CALLDATASIZE DUP4 CALLDATACOPY DUP1 DUP3 ADD SWAP2 POP POP SWAP1 POP JUMPDEST POP SWAP1 POP JUMPDEST PUSH0 DUP6 EQ PUSH3 0xA3E JUMPI PUSH1 0x1 DUP3 PUSH3 0x9C1 SWAP2 SWAP1 PUSH3 0x1984 JUMP JUMPDEST SWAP2 POP PUSH1 0xA DUP6 PUSH3 0x9D2 SWAP2 SWAP1 PUSH3 0x1572 JUMP JUMPDEST PUSH1 0x30 PUSH3 0x9E0 SWAP2 SWAP1 PUSH3 0x13A1 JUMP JUMPDEST PUSH1 0xF8 SHL DUP2 DUP4 DUP2 MLOAD DUP2 LT PUSH3 0x9F9 JUMPI PUSH3 0x9F8 PUSH3 0x19BE JUMP JUMPDEST JUMPDEST PUSH1 0x20 ADD ADD SWAP1 PUSH31 0xFFFFFFFFFFFFFFFFFFFFFFFFFFFFFFFFFFFFFFFFFFFFFFFFFFFFFFFFFFFFFF NOT AND SWAP1 DUP2 PUSH0 BYTE SWAP1 MSTORE8 POP PUSH1 0xA DUP6 PUSH3 0xA36 SWAP2 SWAP1 PUSH3 0x15A9 JUMP JUMPDEST SWAP5 POP PUSH3 0x9AA JUMP JUMPDEST DUP1 SWAP4 POP POP POP POP JUMPDEST SWAP2 SWAP1 POP JUMP JUMPDEST PUSH3 0xA5B DUP2 PUSH3 0xB16 PUSH1 0x20 SHL PUSH1 0x20 SHR JUMP JUMPDEST PUSH0 PUSH1 0x6 PUSH0 DUP4 DUP2 MSTORE PUSH1 0x20 ADD SWAP1 DUP2 MSTORE PUSH1 0x20 ADD PUSH0 KECCAK256 DUP1 SLOAD PUSH3 0xA7A SWAP1 PUSH3 0xE7B JUMP JUMPDEST SWAP1 POP EQ PUSH3 0xAA1 JUMPI PUSH1 0x6 PUSH0 DUP3 DUP2 MSTORE PUSH1 0x20 ADD SWAP1 DUP2 MSTORE PUSH1 0x20 ADD PUSH0 KECCAK256 PUSH0 PUSH3 0xAA0 SWAP2 SWAP1 PUSH3 0xDB7 JUMP JUMPDEST JUMPDEST POP JUMP JUMPDEST PUSH0 DUP1 PUSH20 0xFFFFFFFFFFFFFFFFFFFFFFFFFFFFFFFFFFFFFFFF AND PUSH1 0x2 PUSH0 DUP5 DUP2 MSTORE PUSH1 0x20 ADD SWAP1 DUP2 MSTORE PUSH1 0x20 ADD PUSH0 KECCAK256 PUSH0 SWAP1 SLOAD SWAP1 PUSH2 0x100 EXP SWAP1 DIV PUSH20 0xFFFFFFFFFFFFFFFFFFFFFFFFFFFFFFFFFFFFFFFF AND PUSH20 0xFFFFFFFFFFFFFFFFFFFFFFFFFFFFFFFFFFFFFFFF AND EQ ISZERO SWAP1 POP SWAP2 SWAP1 POP JUMP JUMPDEST POP POP POP JUMP JUMPDEST POP POP POP JUMP JUMPDEST PUSH0 PUSH3 0xB28 DUP3 PUSH3 0xC4A PUSH1 0x20 SHL PUSH1 0x20 SHR JUMP JUMPDEST SWAP1 POP PUSH3 0xB3D DUP2 PUSH0 DUP5 PUSH3 0xB0C PUSH1 0x20 SHL PUSH1 0x20 SHR JUMP JUMPDEST PUSH3 0xB4F PUSH0 DUP4 PUSH3 0xCF9 PUSH1 0x20 SHL PUSH1 0x20 SHR JUMP JUMPDEST PUSH1 0x1 PUSH1 0x3 PUSH0 DUP4 PUSH20 0xFFFFFFFFFFFFFFFFFFFFFFFFFFFFFFFFFFFFFFFF AND PUSH20 0xFFFFFFFFFFFFFFFFFFFFFFFFFFFFFFFFFFFFFFFF AND DUP2 MSTORE PUSH1 0x20 ADD SWAP1 DUP2 MSTORE PUSH1 0x20 ADD PUSH0 KECCAK256 PUSH0 DUP3 DUP3 SLOAD PUSH3 0xB9E SWAP2 SWAP1 PUSH3 0x1984 JUMP JUMPDEST SWAP3 POP POP DUP2 SWAP1 SSTORE POP PUSH1 0x2 PUSH0 DUP4 DUP2 MSTORE PUSH1 0x20 ADD SWAP1 DUP2 MSTORE PUSH1 0x20 ADD PUSH0 KECCAK256 PUSH0 PUSH2 0x100 EXP DUP2 SLOAD SWAP1 PUSH20 0xFFFFFFFFFFFFFFFFFFFFFFFFFFFFFFFFFFFFFFFF MUL NOT AND SWAP1 SSTORE DUP2 PUSH0 PUSH20 0xFFFFFFFFFFFFFFFFFFFFFFFFFFFFFFFFFFFFFFFF AND DUP3 PUSH20 0xFFFFFFFFFFFFFFFFFFFFFFFFFFFFFFFFFFFFFFFF AND PUSH32 0xDDF252AD1BE2C89B69C2B068FC378DAA952BA7F163C4A11628F55A4DF523B3EF PUSH1 0x40 MLOAD PUSH1 0x40 MLOAD DUP1 SWAP2 SUB SWAP1 LOG4 PUSH3 0xC46 DUP2 PUSH0 DUP5 PUSH3 0xB11 PUSH1 0x20 SHL PUSH1 0x20 SHR JUMP JUMPDEST POP POP JUMP JUMPDEST PUSH0 DUP1 PUSH1 0x2 PUSH0 DUP5 DUP2 MSTORE PUSH1 0x20 ADD SWAP1 DUP2 MSTORE PUSH1 0x20 ADD PUSH0 KECCAK256 PUSH0 SWAP1 SLOAD SWAP1 PUSH2 0x100 EXP SWAP1 DIV PUSH20 0xFFFFFFFFFFFFFFFFFFFFFFFFFFFFFFFFFFFFFFFF AND SWAP1 POP PUSH0 PUSH20 0xFFFFFFFFFFFFFFFFFFFFFFFFFFFFFFFFFFFFFFFF AND DUP2 PUSH20 0xFFFFFFFFFFFFFFFFFFFFFFFFFFFFFFFFFFFFFFFF AND SUB PUSH3 0xCF0 JUMPI PUSH1 0x40 MLOAD PUSH32 0x8C379A000000000000000000000000000000000000000000000000000000000 DUP2 MSTORE PUSH1 0x4 ADD PUSH3 0xCE7 SWAP1 PUSH3 0x1A5F JUMP JUMPDEST PUSH1 0x40 MLOAD DUP1 SWAP2 SUB SWAP1 REVERT JUMPDEST DUP1 SWAP2 POP POP SWAP2 SWAP1 POP JUMP JUMPDEST DUP2 PUSH1 0x4 PUSH0 DUP4 DUP2 MSTORE PUSH1 0x20 ADD SWAP1 DUP2 MSTORE PUSH1 0x20 ADD PUSH0 KECCAK256 PUSH0 PUSH2 0x100 EXP DUP2 SLOAD DUP2 PUSH20 0xFFFFFFFFFFFFFFFFFFFFFFFFFFFFFFFFFFFFFFFF MUL NOT AND SWAP1 DUP4 PUSH20 0xFFFFFFFFFFFFFFFFFFFFFFFFFFFFFFFFFFFFFFFF AND MUL OR SWAP1 SSTORE POP DUP1 DUP3 PUSH20 0xFFFFFFFFFFFFFFFFFFFFFFFFFFFFFFFFFFFFFFFF AND PUSH3 0xD71 DUP4 PUSH3 0xC4A PUSH1 0x20 SHL PUSH1 0x20 SHR JUMP JUMPDEST PUSH20 0xFFFFFFFFFFFFFFFFFFFFFFFFFFFFFFFFFFFFFFFF AND PUSH32 0x8C5BE1E5EBEC7D5BD14F71427D1E84F3DD0314C0F7B2291E5B200AC8C7C3B925 PUSH1 0x40 MLOAD PUSH1 0x40 MLOAD DUP1 SWAP2 SUB SWAP1 LOG4 POP POP JUMP JUMPDEST POP DUP1 SLOAD PUSH3 0xDC5 SWAP1 PUSH3 0xE7B JUMP JUMPDEST PUSH0 DUP3 SSTORE DUP1 PUSH1 0x1F LT PUSH3 0xDD8 JUMPI POP PUSH3 0xDF7 JUMP JUMPDEST PUSH1 0x1F ADD PUSH1 0x20 SWAP1 DIV SWAP1 PUSH0 MSTORE PUSH1 0x20 PUSH0 KECCAK256 SWAP1 DUP2 ADD SWAP1 PUSH3 0xDF6 SWAP2 SWAP1 PUSH3 0xDFA JUMP JUMPDEST JUMPDEST POP JUMP JUMPDEST JUMPDEST DUP1 DUP3 GT ISZERO PUSH3 0xE13 JUMPI PUSH0 DUP2 PUSH0 SWAP1 SSTORE POP PUSH1 0x1 ADD PUSH3 0xDFB JUMP JUMPDEST POP SWAP1 JUMP JUMPDEST PUSH0 DUP2 MLOAD SWAP1 POP SWAP2 SWAP1 POP JUMP JUMPDEST PUSH32 0x4E487B7100000000000000000000000000000000000000000000000000000000 PUSH0 MSTORE PUSH1 0x41 PUSH1 0x4 MSTORE PUSH1 0x24 PUSH0 REVERT JUMPDEST PUSH32 0x4E487B7100000000000000000000000000000000000000000000000000000000 PUSH0 MSTORE PUSH1 0x22 PUSH1 0x4 MSTORE PUSH1 0x24 PUSH0 REVERT JUMPDEST PUSH0 PUSH1 0x2 DUP3 DIV SWAP1 POP PUSH1 0x1 DUP3 AND DUP1 PUSH3 0xE93 JUMPI PUSH1 0x7F DUP3 AND SWAP2 POP JUMPDEST PUSH1 0x20 DUP3 LT DUP2 SUB PUSH3 0xEA9 JUMPI PUSH3 0xEA8 PUSH3 0xE4E JUMP JUMPDEST JUMPDEST POP SWAP2 SWAP1 POP JUMP JUMPDEST PUSH0 DUP2 SWAP1 POP DUP2 PUSH0 MSTORE PUSH1 0x20 PUSH0 KECCAK256 SWAP1 POP SWAP2 SWAP1 POP JUMP JUMPDEST PUSH0 PUSH1 0x20 PUSH1 0x1F DUP4 ADD DIV SWAP1 POP SWAP2 SWAP1 POP JUMP JUMPDEST PUSH0 DUP3 DUP3 SHL SWAP1 POP SWAP3 SWAP2 POP POP JUMP JUMPDEST PUSH0 PUSH1 0x8 DUP4 MUL PUSH3 0xF0D PUSH32 0xFFFFFFFFFFFFFFFFFFFFFFFFFFFFFFFFFFFFFFFFFFFFFFFFFFFFFFFFFFFFFFFF DUP3 PUSH3 0xED0 JUMP JUMPDEST PUSH3 0xF19 DUP7 DUP4 PUSH3 0xED0 JUMP JUMPDEST SWAP6 POP DUP1 NOT DUP5 AND SWAP4 POP DUP1 DUP7 AND DUP5 OR SWAP3 POP POP POP SWAP4 SWAP3 POP POP POP JUMP JUMPDEST PUSH0 DUP2 SWAP1 POP SWAP2 SWAP1 POP JUMP JUMPDEST PUSH0 DUP2 SWAP1 POP SWAP2 SWAP1 POP JUMP JUMPDEST PUSH0 PUSH3 0xF63 PUSH3 0xF5D PUSH3 0xF57 DUP5 PUSH3 0xF31 JUMP JUMPDEST PUSH3 0xF3A JUMP JUMPDEST PUSH3 0xF31 JUMP JUMPDEST SWAP1 POP SWAP2 SWAP1 POP JUMP JUMPDEST PUSH0 DUP2 SWAP1 POP SWAP2 SWAP1 POP JUMP JUMPDEST PUSH3 0xF7E DUP4 PUSH3 0xF43 JUMP JUMPDEST PUSH3 0xF96 PUSH3 0xF8D DUP3 PUSH3 0xF6A JUMP JUMPDEST DUP5 DUP5 SLOAD PUSH3 0xEDC JUMP JUMPDEST DUP3 SSTORE POP POP POP POP JUMP JUMPDEST PUSH0 SWAP1 JUMP JUMPDEST PUSH3 0xFAC PUSH3 0xF9E JUMP JUMPDEST PUSH3 0xFB9 DUP2 DUP5 DUP5 PUSH3 0xF73 JUMP JUMPDEST POP POP POP JUMP JUMPDEST JUMPDEST DUP2 DUP2 LT ISZERO PUSH3 0xFE0 JUMPI PUSH3 0xFD4 PUSH0 DUP3 PUSH3 0xFA2 JUMP JUMPDEST PUSH1 0x1 DUP2 ADD SWAP1 POP PUSH3 0xFBF JUMP JUMPDEST POP POP JUMP JUMPDEST PUSH1 0x1F DUP3 GT ISZERO PUSH3 0x102F JUMPI PUSH3 0xFF9 DUP2 PUSH3 0xEAF JUMP JUMPDEST PUSH3 0x1004 DUP5 PUSH3 0xEC1 JUMP JUMPDEST DUP2 ADD PUSH1 0x20 DUP6 LT ISZERO PUSH3 0x1014 JUMPI DUP2 SWAP1 POP JUMPDEST PUSH3 0x102C PUSH3 0x1023 DUP6 PUSH3 0xEC1 JUMP JUMPDEST DUP4 ADD DUP3 PUSH3 0xFBE JUMP JUMPDEST POP POP JUMPDEST POP POP POP JUMP JUMPDEST PUSH0 DUP3 DUP3 SHR SWAP1 POP SWAP3 SWAP2 POP POP JUMP JUMPDEST PUSH0 PUSH3 0x1051 PUSH0 NOT DUP5 PUSH1 0x8 MUL PUSH3 0x1034 JUMP JUMPDEST NOT DUP1 DUP4 AND SWAP2 POP POP SWAP3 SWAP2 POP POP JUMP JUMPDEST PUSH0 PUSH3 0x106B DUP4 DUP4 PUSH3 0x1040 JUMP JUMPDEST SWAP2 POP DUP3 PUSH1 0x2 MUL DUP3 OR SWAP1 POP SWAP3 SWAP2 POP POP JUMP JUMPDEST PUSH3 0x1086 DUP3 PUSH3 0xE17 JUMP JUMPDEST PUSH8 0xFFFFFFFFFFFFFFFF DUP2 GT ISZERO PUSH3 0x10A2 JUMPI PUSH3 0x10A1 PUSH3 0xE21 JUMP JUMPDEST JUMPDEST PUSH3 0x10AE DUP3 SLOAD PUSH3 0xE7B JUMP JUMPDEST PUSH3 0x10BB DUP3 DUP3 DUP6 PUSH3 0xFE4 JUMP JUMPDEST PUSH0 PUSH1 0x20 SWAP1 POP PUSH1 0x1F DUP4 GT PUSH1 0x1 DUP2 EQ PUSH3 0x10F1 JUMPI PUSH0 DUP5 ISZERO PUSH3 0x10DC JUMPI DUP3 DUP8 ADD MLOAD SWAP1 POP JUMPDEST PUSH3 0x10E8 DUP6 DUP3 PUSH3 0x105E JUMP JUMPDEST DUP7 SSTORE POP PUSH3 0x1157 JUMP JUMPDEST PUSH1 0x1F NOT DUP5 AND PUSH3 0x1101 DUP7 PUSH3 0xEAF JUMP JUMPDEST PUSH0 JUMPDEST DUP3 DUP2 LT ISZERO PUSH3 0x112A JUMPI DUP5 DUP10 ADD MLOAD DUP3 SSTORE PUSH1 0x1 DUP3 ADD SWAP2 POP PUSH1 0x20 DUP6 ADD SWAP5 POP PUSH1 0x20 DUP2 ADD SWAP1 POP PUSH3 0x1103 JUMP JUMPDEST DUP7 DUP4 LT ISZERO PUSH3 0x114A JUMPI DUP5 DUP10 ADD MLOAD PUSH3 0x1146 PUSH1 0x1F DUP10 AND DUP3 PUSH3 0x1040 JUMP JUMPDEST DUP4 SSTORE POP JUMPDEST PUSH1 0x1 PUSH1 0x2 DUP9 MUL ADD DUP9 SSTORE POP POP POP JUMPDEST POP POP POP POP POP POP JUMP JUMPDEST PUSH32 0x4E487B7100000000000000000000000000000000000000000000000000000000 PUSH0 MSTORE PUSH1 0x11 PUSH1 0x4 MSTORE PUSH1 0x24 PUSH0 REVERT JUMPDEST PUSH0 PUSH3 0x1198 DUP3 PUSH3 0xF31 JUMP JUMPDEST SWAP2 POP PUSH32 0xFFFFFFFFFFFFFFFFFFFFFFFFFFFFFFFFFFFFFFFFFFFFFFFFFFFFFFFFFFFFFFFF DUP3 SUB PUSH3 0x11CD JUMPI PUSH3 0x11CC PUSH3 0x115F JUMP JUMPDEST JUMPDEST PUSH1 0x1 DUP3 ADD SWAP1 POP SWAP2 SWAP1 POP JUMP JUMPDEST PUSH0 DUP3 DUP3 MSTORE PUSH1 0x20 DUP3 ADD SWAP1 POP SWAP3 SWAP2 POP POP JUMP JUMPDEST PUSH32 0x4F776E61626C653A2063616C6C6572206973206E6F7420746865206F776E6572 PUSH0 DUP3 ADD MSTORE POP JUMP JUMPDEST PUSH0 PUSH3 0x121E PUSH1 0x20 DUP4 PUSH3 0x11D8 JUMP JUMPDEST SWAP2 POP PUSH3 0x122B DUP3 PUSH3 0x11E8 JUMP JUMPDEST PUSH1 0x20 DUP3 ADD SWAP1 POP SWAP2 SWAP1 POP JUMP JUMPDEST PUSH0 PUSH1 0x20 DUP3 ADD SWAP1 POP DUP2 DUP2 SUB PUSH0 DUP4 ADD MSTORE PUSH3 0x124F DUP2 PUSH3 0x1210 JUMP JUMPDEST SWAP1 POP SWAP2 SWAP1 POP JUMP JUMPDEST PUSH0 DUP2 SWAP1 POP SWAP3 SWAP2 POP POP JUMP JUMPDEST PUSH32 0x646174613A6170706C69636174696F6E2F6A736F6E3B6261736536342C000000 PUSH0 DUP3 ADD MSTORE POP JUMP JUMPDEST PUSH0 PUSH3 0x1296 PUSH1 0x1D DUP4 PUSH3 0x1256 JUMP JUMPDEST SWAP2 POP PUSH3 0x12A3 DUP3 PUSH3 0x1260 JUMP JUMPDEST PUSH1 0x1D DUP3 ADD SWAP1 POP SWAP2 SWAP1 POP JUMP JUMPDEST PUSH0 JUMPDEST DUP4 DUP2 LT ISZERO PUSH3 0x12CD JUMPI DUP1 DUP3 ADD MLOAD DUP2 DUP5 ADD MSTORE PUSH1 0x20 DUP2 ADD SWAP1 POP PUSH3 0x12B0 JUMP JUMPDEST PUSH0 DUP5 DUP5 ADD MSTORE POP POP POP POP JUMP JUMPDEST PUSH0 PUSH3 0x12E4 DUP3 PUSH3 0xE17 JUMP JUMPDEST PUSH3 0x12F0 DUP2 DUP6 PUSH3 0x1256 JUMP JUMPDEST SWAP4 POP PUSH3 0x1302 DUP2 DUP6 PUSH1 0x20 DUP7 ADD PUSH3 0x12AE JUMP JUMPDEST DUP1 DUP5 ADD SWAP2 POP POP SWAP3 SWAP2 POP POP JUMP JUMPDEST PUSH0 PUSH3 0x131A DUP3 PUSH3 0x1288 JUMP JUMPDEST SWAP2 POP PUSH3 0x1328 DUP3 DUP5 PUSH3 0x12D8 JUMP JUMPDEST SWAP2 POP DUP2 SWAP1 POP SWAP3 SWAP2 POP POP JUMP JUMPDEST PUSH32 0x496E76616C696420746F6B656E20494400000000000000000000000000000000 PUSH0 DUP3 ADD MSTORE POP JUMP JUMPDEST PUSH0 PUSH3 0x1369 PUSH1 0x10 DUP4 PUSH3 0x11D8 JUMP JUMPDEST SWAP2 POP PUSH3 0x1376 DUP3 PUSH3 0x1333 JUMP JUMPDEST PUSH1 0x20 DUP3 ADD SWAP1 POP SWAP2 SWAP1 POP JUMP JUMPDEST PUSH0 PUSH1 0x20 DUP3 ADD SWAP1 POP DUP2 DUP2 SUB PUSH0 DUP4 ADD MSTORE PUSH3 0x139A DUP2 PUSH3 0x135B JUMP JUMPDEST SWAP1 POP SWAP2 SWAP1 POP JUMP JUMPDEST PUSH0 PUSH3 0x13AD DUP3 PUSH3 0xF31 JUMP JUMPDEST SWAP2 POP PUSH3 0x13BA DUP4 PUSH3 0xF31 JUMP JUMPDEST SWAP3 POP DUP3 DUP3 ADD SWAP1 POP DUP1 DUP3 GT ISZERO PUSH3 0x13D5 JUMPI PUSH3 0x13D4 PUSH3 0x115F JUMP JUMPDEST JUMPDEST SWAP3 SWAP2 POP POP JUMP JUMPDEST PUSH32 0x546F6B656E2063616E2774206265206D696E7465642C20616E64206974206861 PUSH0 DUP3 ADD MSTORE PUSH32 0x73206265656E206275726E742E00000000000000000000000000000000000000 PUSH1 0x20 DUP3 ADD MSTORE POP JUMP JUMPDEST PUSH0 PUSH3 0x1437 PUSH1 0x2D DUP4 PUSH3 0x11D8 JUMP JUMPDEST SWAP2 POP PUSH3 0x1444 DUP3 PUSH3 0x13DB JUMP JUMPDEST PUSH1 0x40 DUP3 ADD SWAP1 POP SWAP2 SWAP1 POP JUMP JUMPDEST PUSH0 PUSH1 0x20 DUP3 ADD SWAP1 POP DUP2 DUP2 SUB PUSH0 DUP4 ADD MSTORE PUSH3 0x1468 DUP2 PUSH3 0x1429 JUMP JUMPDEST SWAP1 POP SWAP2 SWAP1 POP JUMP JUMPDEST PUSH32 0x3C7376672077696474683D2731353027206865696768743D273135302720786D PUSH0 DUP3 ADD MSTORE PUSH32 0x6C6E733D27687474703A2F2F7777772E77332E6F72672F323030302F73766727 PUSH1 0x20 DUP3 ADD MSTORE PUSH32 0x3E3C726563742077696474683D2731353027206865696768743D273135302720 PUSH1 0x40 DUP3 ADD MSTORE PUSH32 0x66696C6C3D2723313231323132272F3E3C2F7376673E00000000000000000000 PUSH1 0x60 DUP3 ADD MSTORE POP JUMP JUMPDEST PUSH0 PUSH3 0x1517 PUSH1 0x76 DUP4 PUSH3 0x1256 JUMP JUMPDEST SWAP2 POP PUSH3 0x1524 DUP3 PUSH3 0x146F JUMP JUMPDEST PUSH1 0x76 DUP3 ADD SWAP1 POP SWAP2 SWAP1 POP JUMP JUMPDEST PUSH0 PUSH3 0x153B DUP3 PUSH3 0x1509 JUMP JUMPDEST SWAP2 POP DUP2 SWAP1 POP SWAP2 SWAP1 POP JUMP JUMPDEST PUSH32 0x4E487B7100000000000000000000000000000000000000000000000000000000 PUSH0 MSTORE PUSH1 0x12 PUSH1 0x4 MSTORE PUSH1 0x24 PUSH0 REVERT JUMPDEST PUSH0 PUSH3 0x157E DUP3 PUSH3 0xF31 JUMP JUMPDEST SWAP2 POP PUSH3 0x158B DUP4 PUSH3 0xF31 JUMP JUMPDEST SWAP3 POP DUP3 PUSH3 0x159E JUMPI PUSH3 0x159D PUSH3 0x1545 JUMP JUMPDEST JUMPDEST DUP3 DUP3 MOD SWAP1 POP SWAP3 SWAP2 POP POP JUMP JUMPDEST PUSH0 PUSH3 0x15B5 DUP3 PUSH3 0xF31 JUMP JUMPDEST SWAP2 POP PUSH3 0x15C2 DUP4 PUSH3 0xF31 JUMP JUMPDEST SWAP3 POP DUP3 PUSH3 0x15D5 JUMPI PUSH3 0x15D4 PUSH3 0x1545 JUMP JUMPDEST JUMPDEST DUP3 DUP3 DIV SWAP1 POP SWAP3 SWAP2 POP POP JUMP JUMPDEST PUSH32 0x7B226E616D65223A220000000000000000000000000000000000000000000000 PUSH0 DUP3 ADD MSTORE POP JUMP JUMPDEST PUSH0 PUSH3 0x1616 PUSH1 0x9 DUP4 PUSH3 0x1256 JUMP JUMPDEST SWAP2 POP PUSH3 0x1623 DUP3 PUSH3 0x15E0 JUMP JUMPDEST PUSH1 0x9 DUP3 ADD SWAP1 POP SWAP2 SWAP1 POP JUMP JUMPDEST PUSH32 0x3C3135302A31353070782C20233132313231323E200000000000000000000000 PUSH0 DUP3 ADD MSTORE POP JUMP JUMPDEST PUSH0 PUSH3 0x1664 PUSH1 0x15 DUP4 PUSH3 0x1256 JUMP JUMPDEST SWAP2 POP PUSH3 0x1671 DUP3 PUSH3 0x162E JUMP JUMPDEST PUSH1 0x15 DUP3 ADD SWAP1 POP SWAP2 SWAP1 POP JUMP JUMPDEST PUSH32 0x2D00000000000000000000000000000000000000000000000000000000000000 PUSH0 DUP3 ADD MSTORE POP JUMP JUMPDEST PUSH0 PUSH3 0x16B2 PUSH1 0x1 DUP4 PUSH3 0x1256 JUMP JUMPDEST SWAP2 POP PUSH3 0x16BF DUP3 PUSH3 0x167C JUMP JUMPDEST PUSH1 0x1 DUP3 ADD SWAP1 POP SWAP2 SWAP1 POP JUMP JUMPDEST PUSH32 0x222C226465736372697074696F6E223A2254657374222C000000000000000000 PUSH0 DUP3 ADD MSTORE POP JUMP JUMPDEST PUSH0 PUSH3 0x1700 PUSH1 0x17 DUP4 PUSH3 0x1256 JUMP JUMPDEST SWAP2 POP PUSH3 0x170D DUP3 PUSH3 0x16CA JUMP JUMPDEST PUSH1 0x17 DUP3 ADD SWAP1 POP SWAP2 SWAP1 POP JUMP JUMPDEST PUSH32 0x22616E696D6174696F6E5F75726C223A2022646174613A696D6167652F737667 PUSH0 DUP3 ADD MSTORE PUSH32 0x2B786D6C3B6261736536342C0000000000000000000000000000000000000000 PUSH1 0x20 DUP3 ADD MSTORE POP JUMP JUMPDEST PUSH0 PUSH3 0x1774 PUSH1 0x2C DUP4 PUSH3 0x1256 JUMP JUMPDEST SWAP2 POP PUSH3 0x1781 DUP3 PUSH3 0x1718 JUMP JUMPDEST PUSH1 0x2C DUP3 ADD SWAP1 POP SWAP2 SWAP1 POP JUMP JUMPDEST PUSH32 0x227D000000000000000000000000000000000000000000000000000000000000 PUSH0 DUP3 ADD MSTORE POP JUMP JUMPDEST PUSH0 PUSH3 0x17C2 PUSH1 0x2 DUP4 PUSH3 0x1256 JUMP JUMPDEST SWAP2 POP PUSH3 0x17CF DUP3 PUSH3 0x178C JUMP JUMPDEST PUSH1 0x2 DUP3 ADD SWAP1 POP SWAP2 SWAP1 POP JUMP JUMPDEST PUSH0 PUSH3 0x17E6 DUP3 PUSH3 0x1608 JUMP JUMPDEST SWAP2 POP PUSH3 0x17F3 DUP3 PUSH3 0x1656 JUMP JUMPDEST SWAP2 POP PUSH3 0x1801 DUP3 DUP7 PUSH3 0x12D8 JUMP JUMPDEST SWAP2 POP PUSH3 0x180E DUP3 PUSH3 0x16A4 JUMP JUMPDEST SWAP2 POP PUSH3 0x181C DUP3 DUP6 PUSH3 0x12D8 JUMP JUMPDEST SWAP2 POP PUSH3 0x1829 DUP3 PUSH3 0x16F2 JUMP JUMPDEST SWAP2 POP PUSH3 0x1836 DUP3 PUSH3 0x1766 JUMP JUMPDEST SWAP2 POP PUSH3 0x1844 DUP3 DUP5 PUSH3 0x12D8 JUMP JUMPDEST SWAP2 POP PUSH3 0x1851 DUP3 PUSH3 0x17B4 JUMP JUMPDEST SWAP2 POP DUP2 SWAP1 POP SWAP5 SWAP4 POP POP POP POP JUMP JUMPDEST PUSH0 PUSH3 0x186A DUP3 PUSH3 0xF31 JUMP JUMPDEST SWAP2 POP PUSH3 0x1877 DUP4 PUSH3 0xF31 JUMP JUMPDEST SWAP3 POP DUP3 DUP3 MUL PUSH3 0x1887 DUP2 PUSH3 0xF31 JUMP JUMPDEST SWAP2 POP DUP3 DUP3 DIV DUP5 EQ DUP4 ISZERO OR PUSH3 0x18A1 JUMPI PUSH3 0x18A0 PUSH3 0x115F JUMP JUMPDEST JUMPDEST POP SWAP3 SWAP2 POP POP JUMP JUMPDEST PUSH32 0x4552433732313A206D696E7420746F20746865207A65726F2061646472657373 PUSH0 DUP3 ADD MSTORE POP JUMP JUMPDEST PUSH0 PUSH3 0x18DE PUSH1 0x20 DUP4 PUSH3 0x11D8 JUMP JUMPDEST SWAP2 POP PUSH3 0x18EB DUP3 PUSH3 0x18A8 JUMP JUMPDEST PUSH1 0x20 DUP3 ADD SWAP1 POP SWAP2 SWAP1 POP JUMP JUMPDEST PUSH0 PUSH1 0x20 DUP3 ADD SWAP1 POP DUP2 DUP2 SUB PUSH0 DUP4 ADD MSTORE PUSH3 0x190F DUP2 PUSH3 0x18D0 JUMP JUMPDEST SWAP1 POP SWAP2 SWAP1 POP JUMP JUMPDEST PUSH32 0x4552433732313A20746F6B656E20616C7265616479206D696E74656400000000 PUSH0 DUP3 ADD MSTORE POP JUMP JUMPDEST PUSH0 PUSH3 0x194C PUSH1 0x1C DUP4 PUSH3 0x11D8 JUMP JUMPDEST SWAP2 POP PUSH3 0x1959 DUP3 PUSH3 0x1916 JUMP JUMPDEST PUSH1 0x20 DUP3 ADD SWAP1 POP SWAP2 SWAP1 POP JUMP JUMPDEST PUSH0 PUSH1 0x20 DUP3 ADD SWAP1 POP DUP2 DUP2 SUB PUSH0 DUP4 ADD MSTORE PUSH3 0x197D DUP2 PUSH3 0x193E JUMP JUMPDEST SWAP1 POP SWAP2 SWAP1 POP JUMP JUMPDEST PUSH0 PUSH3 0x1990 DUP3 PUSH3 0xF31 JUMP JUMPDEST SWAP2 POP PUSH3 0x199D DUP4 PUSH3 0xF31 JUMP JUMPDEST SWAP3 POP DUP3 DUP3 SUB SWAP1 POP DUP2 DUP2 GT ISZERO PUSH3 0x19B8 JUMPI PUSH3 0x19B7 PUSH3 0x115F JUMP JUMPDEST JUMPDEST SWAP3 SWAP2 POP POP JUMP JUMPDEST PUSH32 0x4E487B7100000000000000000000000000000000000000000000000000000000 PUSH0 MSTORE PUSH1 0x32 PUSH1 0x4 MSTORE PUSH1 0x24 PUSH0 REVERT JUMPDEST PUSH32 0x4552433732313A206F776E657220717565727920666F72206E6F6E6578697374 PUSH0 DUP3 ADD MSTORE PUSH32 0x656E7420746F6B656E0000000000000000000000000000000000000000000000 PUSH1 0x20 DUP3 ADD MSTORE POP JUMP JUMPDEST PUSH0 PUSH3 0x1A47 PUSH1 0x29 DUP4 PUSH3 0x11D8 JUMP JUMPDEST SWAP2 POP PUSH3 0x1A54 DUP3 PUSH3 0x19EB JUMP JUMPDEST PUSH1 0x40 DUP3 ADD SWAP1 POP SWAP2 SWAP1 POP JUMP JUMPDEST PUSH0 PUSH1 0x20 DUP3 ADD SWAP1 POP DUP2 DUP2 SUB PUSH0 DUP4 ADD MSTORE PUSH3 0x1A78 DUP2 PUSH3 0x1A39 JUMP JUMPDEST SWAP1 POP SWAP2 SWAP1 POP JUMP JUMPDEST PUSH2 0x393A DUP1 PUSH3 0x1A8D PUSH0 CODECOPY PUSH0 RETURN INVALID PUSH1 0x80 PUSH1 0x40 MSTORE CALLVALUE DUP1 ISZERO PUSH2 0xF JUMPI PUSH0 DUP1 REVERT JUMPDEST POP PUSH1 0x4 CALLDATASIZE LT PUSH2 0x11F JUMPI PUSH0 CALLDATALOAD PUSH1 0xE0 SHR DUP1 PUSH4 0x6352211E GT PUSH2 0xAB JUMPI DUP1 PUSH4 0xA22CB465 GT PUSH2 0x6F JUMPI DUP1 PUSH4 0xA22CB465 EQ PUSH2 0x2F1 JUMPI DUP1 PUSH4 0xB88D4FDE EQ PUSH2 0x30D JUMPI DUP1 PUSH4 0xC87B56DD EQ PUSH2 0x329 JUMPI DUP1 PUSH4 0xE985E9C5 EQ PUSH2 0x359 JUMPI DUP1 PUSH4 0xF2FDE38B EQ PUSH2 0x389 JUMPI PUSH2 0x11F JUMP JUMPDEST DUP1 PUSH4 0x6352211E EQ PUSH2 0x24B JUMPI DUP1 PUSH4 0x70A08231 EQ PUSH2 0x27B JUMPI DUP1 PUSH4 0x715018A6 EQ PUSH2 0x2AB JUMPI DUP1 PUSH4 0x8DA5CB5B EQ PUSH2 0x2B5 JUMPI DUP1 PUSH4 0x95D89B41 EQ PUSH2 0x2D3 JUMPI PUSH2 0x11F JUMP JUMPDEST DUP1 PUSH4 0x19C4F2DF GT PUSH2 0xF2 JUMPI DUP1 PUSH4 0x19C4F2DF EQ PUSH2 0x1BD JUMPI DUP1 PUSH4 0x20E3DFEE EQ PUSH2 0x1C7 JUMPI DUP1 PUSH4 0x23B872DD EQ PUSH2 0x1E3 JUMPI DUP1 PUSH4 0x423FCB01 EQ PUSH2 0x1FF JUMPI DUP1 PUSH4 0x42842E0E EQ PUSH2 0x22F JUMPI PUSH2 0x11F JUMP JUMPDEST DUP1 PUSH4 0x1FFC9A7 EQ PUSH2 0x123 JUMPI DUP1 PUSH4 0x6FDDE03 EQ PUSH2 0x153 JUMPI DUP1 PUSH4 0x81812FC EQ PUSH2 0x171 JUMPI DUP1 PUSH4 0x95EA7B3 EQ PUSH2 0x1A1 JUMPI JUMPDEST PUSH0 DUP1 REVERT JUMPDEST PUSH2 0x13D PUSH1 0x4 DUP1 CALLDATASIZE SUB DUP2 ADD SWAP1 PUSH2 0x138 SWAP2 SWAP1 PUSH2 0x2058 JUMP JUMPDEST PUSH2 0x3A5 JUMP JUMPDEST PUSH1 0x40 MLOAD PUSH2 0x14A SWAP2 SWAP1 PUSH2 0x209D JUMP JUMPDEST PUSH1 0x40 MLOAD DUP1 SWAP2 SUB SWAP1 RETURN JUMPDEST PUSH2 0x15B PUSH2 0x486 JUMP JUMPDEST PUSH1 0x40 MLOAD PUSH2 0x168 SWAP2 SWAP1 PUSH2 0x2140 JUMP JUMPDEST PUSH1 0x40 MLOAD DUP1 SWAP2 SUB SWAP1 RETURN JUMPDEST PUSH2 0x18B PUSH1 0x4 DUP1 CALLDATASIZE SUB DUP2 ADD SWAP1 PUSH2 0x186 SWAP2 SWAP1 PUSH2 0x2193 JUMP JUMPDEST PUSH2 0x515 JUMP JUMPDEST PUSH1 0x40 MLOAD PUSH2 0x198 SWAP2 SWAP1 PUSH2 0x21FD JUMP JUMPDEST PUSH1 0x40 MLOAD DUP1 SWAP2 SUB SWAP1 RETURN JUMPDEST PUSH2 0x1BB PUSH1 0x4 DUP1 CALLDATASIZE SUB DUP2 ADD SWAP1 PUSH2 0x1B6 SWAP2 SWAP1 PUSH2 0x2240 JUMP JUMPDEST PUSH2 0x596 JUMP JUMPDEST STOP JUMPDEST PUSH2 0x1C5 PUSH2 0x6AC JUMP JUMPDEST STOP JUMPDEST PUSH2 0x1E1 PUSH1 0x4 DUP1 CALLDATASIZE SUB DUP2 ADD SWAP1 PUSH2 0x1DC SWAP2 SWAP1 PUSH2 0x2193 JUMP JUMPDEST PUSH2 0x7CD JUMP JUMPDEST STOP JUMPDEST PUSH2 0x1FD PUSH1 0x4 DUP1 CALLDATASIZE SUB DUP2 ADD SWAP1 PUSH2 0x1F8 SWAP2 SWAP1 PUSH2 0x227E JUMP JUMPDEST PUSH2 0x88F JUMP JUMPDEST STOP JUMPDEST PUSH2 0x219 PUSH1 0x4 DUP1 CALLDATASIZE SUB DUP2 ADD SWAP1 PUSH2 0x214 SWAP2 SWAP1 PUSH2 0x2193 JUMP JUMPDEST PUSH2 0x8EF JUMP JUMPDEST PUSH1 0x40 MLOAD PUSH2 0x226 SWAP2 SWAP1 PUSH2 0x2320 JUMP JUMPDEST PUSH1 0x40 MLOAD DUP1 SWAP2 SUB SWAP1 RETURN JUMPDEST PUSH2 0x249 PUSH1 0x4 DUP1 CALLDATASIZE SUB DUP2 ADD SWAP1 PUSH2 0x244 SWAP2 SWAP1 PUSH2 0x227E JUMP JUMPDEST PUSH2 0x9C0 JUMP JUMPDEST STOP JUMPDEST PUSH2 0x265 PUSH1 0x4 DUP1 CALLDATASIZE SUB DUP2 ADD SWAP1 PUSH2 0x260 SWAP2 SWAP1 PUSH2 0x2193 JUMP JUMPDEST PUSH2 0x9DF JUMP JUMPDEST PUSH1 0x40 MLOAD PUSH2 0x272 SWAP2 SWAP1 PUSH2 0x21FD JUMP JUMPDEST PUSH1 0x40 MLOAD DUP1 SWAP2 SUB SWAP1 RETURN JUMPDEST PUSH2 0x295 PUSH1 0x4 DUP1 CALLDATASIZE SUB DUP2 ADD SWAP1 PUSH2 0x290 SWAP2 SWAP1 PUSH2 0x2340 JUMP JUMPDEST PUSH2 0xA8B JUMP JUMPDEST PUSH1 0x40 MLOAD PUSH2 0x2A2 SWAP2 SWAP1 PUSH2 0x237A JUMP JUMPDEST PUSH1 0x40 MLOAD DUP1 SWAP2 SUB SWAP1 RETURN JUMPDEST PUSH2 0x2B3 PUSH2 0xB3F JUMP JUMPDEST STOP JUMPDEST PUSH2 0x2BD PUSH2 0xBC6 JUMP JUMPDEST PUSH1 0x40 MLOAD PUSH2 0x2CA SWAP2 SWAP1 PUSH2 0x21FD JUMP JUMPDEST PUSH1 0x40 MLOAD DUP1 SWAP2 SUB SWAP1 RETURN JUMPDEST PUSH2 0x2DB PUSH2 0xBEE JUMP JUMPDEST PUSH1 0x40 MLOAD PUSH2 0x2E8 SWAP2 SWAP1 PUSH2 0x2140 JUMP JUMPDEST PUSH1 0x40 MLOAD DUP1 SWAP2 SUB SWAP1 RETURN JUMPDEST PUSH2 0x30B PUSH1 0x4 DUP1 CALLDATASIZE SUB DUP2 ADD SWAP1 PUSH2 0x306 SWAP2 SWAP1 PUSH2 0x23BD JUMP JUMPDEST PUSH2 0xC7E JUMP JUMPDEST STOP JUMPDEST PUSH2 0x327 PUSH1 0x4 DUP1 CALLDATASIZE SUB DUP2 ADD SWAP1 PUSH2 0x322 SWAP2 SWAP1 PUSH2 0x2527 JUMP JUMPDEST PUSH2 0xC94 JUMP JUMPDEST STOP JUMPDEST PUSH2 0x343 PUSH1 0x4 DUP1 CALLDATASIZE SUB DUP2 ADD SWAP1 PUSH2 0x33E SWAP2 SWAP1 PUSH2 0x2193 JUMP JUMPDEST PUSH2 0xCF6 JUMP JUMPDEST PUSH1 0x40 MLOAD PUSH2 0x350 SWAP2 SWAP1 PUSH2 0x2140 JUMP JUMPDEST PUSH1 0x40 MLOAD DUP1 SWAP2 SUB SWAP1 RETURN JUMPDEST PUSH2 0x373 PUSH1 0x4 DUP1 CALLDATASIZE SUB DUP2 ADD SWAP1 PUSH2 0x36E SWAP2 SWAP1 PUSH2 0x25A7 JUMP JUMPDEST PUSH2 0xD08 JUMP JUMPDEST PUSH1 0x40 MLOAD PUSH2 0x380 SWAP2 SWAP1 PUSH2 0x209D JUMP JUMPDEST PUSH1 0x40 MLOAD DUP1 SWAP2 SUB SWAP1 RETURN JUMPDEST PUSH2 0x3A3 PUSH1 0x4 DUP1 CALLDATASIZE SUB DUP2 ADD SWAP1 PUSH2 0x39E SWAP2 SWAP1 PUSH2 0x2340 JUMP JUMPDEST PUSH2 0xD96 JUMP JUMPDEST STOP JUMPDEST PUSH0 PUSH32 0x80AC58CD00000000000000000000000000000000000000000000000000000000 PUSH28 0xFFFFFFFFFFFFFFFFFFFFFFFFFFFFFFFFFFFFFFFFFFFFFFFFFFFFFFFF NOT AND DUP3 PUSH28 0xFFFFFFFFFFFFFFFFFFFFFFFFFFFFFFFFFFFFFFFFFFFFFFFFFFFFFFFF NOT AND EQ DUP1 PUSH2 0x46F JUMPI POP PUSH32 0x5B5E139F00000000000000000000000000000000000000000000000000000000 PUSH28 0xFFFFFFFFFFFFFFFFFFFFFFFFFFFFFFFFFFFFFFFFFFFFFFFFFFFFFFFF NOT AND DUP3 PUSH28 0xFFFFFFFFFFFFFFFFFFFFFFFFFFFFFFFFFFFFFFFFFFFFFFFFFFFFFFFF NOT AND EQ JUMPDEST DUP1 PUSH2 0x47F JUMPI POP PUSH2 0x47E DUP3 PUSH2 0xE8C JUMP JUMPDEST JUMPDEST SWAP1 POP SWAP2 SWAP1 POP JUMP JUMPDEST PUSH1 0x60 PUSH0 DUP1 SLOAD PUSH2 0x494 SWAP1 PUSH2 0x2612 JUMP JUMPDEST DUP1 PUSH1 0x1F ADD PUSH1 0x20 DUP1 SWAP2 DIV MUL PUSH1 0x20 ADD PUSH1 0x40 MLOAD SWAP1 DUP2 ADD PUSH1 0x40 MSTORE DUP1 SWAP3 SWAP2 SWAP1 DUP2 DUP2 MSTORE PUSH1 0x20 ADD DUP3 DUP1 SLOAD PUSH2 0x4C0 SWAP1 PUSH2 0x2612 JUMP JUMPDEST DUP1 ISZERO PUSH2 0x50B JUMPI DUP1 PUSH1 0x1F LT PUSH2 0x4E2 JUMPI PUSH2 0x100 DUP1 DUP4 SLOAD DIV MUL DUP4 MSTORE SWAP2 PUSH1 0x20 ADD SWAP2 PUSH2 0x50B JUMP JUMPDEST DUP3 ADD SWAP2 SWAP1 PUSH0 MSTORE PUSH1 0x20 PUSH0 KECCAK256 SWAP1 JUMPDEST DUP2 SLOAD DUP2 MSTORE SWAP1 PUSH1 0x1 ADD SWAP1 PUSH1 0x20 ADD DUP1 DUP4 GT PUSH2 0x4EE JUMPI DUP3 SWAP1 SUB PUSH1 0x1F AND DUP3 ADD SWAP2 JUMPDEST POP POP POP POP POP SWAP1 POP SWAP1 JUMP JUMPDEST PUSH0 PUSH2 0x51F DUP3 PUSH2 0xEF5 JUMP JUMPDEST PUSH2 0x55E JUMPI PUSH1 0x40 MLOAD PUSH32 0x8C379A000000000000000000000000000000000000000000000000000000000 DUP2 MSTORE PUSH1 0x4 ADD PUSH2 0x555 SWAP1 PUSH2 0x26B2 JUMP JUMPDEST PUSH1 0x40 MLOAD DUP1 SWAP2 SUB SWAP1 REVERT JUMPDEST PUSH1 0x4 PUSH0 DUP4 DUP2 MSTORE PUSH1 0x20 ADD SWAP1 DUP2 MSTORE PUSH1 0x20 ADD PUSH0 KECCAK256 PUSH0 SWAP1 SLOAD SWAP1 PUSH2 0x100 EXP SWAP1 DIV PUSH20 0xFFFFFFFFFFFFFFFFFFFFFFFFFFFFFFFFFFFFFFFF AND SWAP1 POP SWAP2 SWAP1 POP JUMP JUMPDEST PUSH0 PUSH2 0x5A0 DUP3 PUSH2 0x9DF JUMP JUMPDEST SWAP1 POP DUP1 PUSH20 0xFFFFFFFFFFFFFFFFFFFFFFFFFFFFFFFFFFFFFFFF AND DUP4 PUSH20 0xFFFFFFFFFFFFFFFFFFFFFFFFFFFFFFFFFFFFFFFF AND SUB PUSH2 0x610 JUMPI PUSH1 0x40 MLOAD PUSH32 0x8C379A000000000000000000000000000000000000000000000000000000000 DUP2 MSTORE PUSH1 0x4 ADD PUSH2 0x607 SWAP1 PUSH2 0x2740 JUMP JUMPDEST PUSH1 0x40 MLOAD DUP1 SWAP2 SUB SWAP1 REVERT JUMPDEST DUP1 PUSH20 0xFFFFFFFFFFFFFFFFFFFFFFFFFFFFFFFFFFFFFFFF AND PUSH2 0x62F PUSH2 0xF5D JUMP JUMPDEST PUSH20 0xFFFFFFFFFFFFFFFFFFFFFFFFFFFFFFFFFFFFFFFF AND EQ DUP1 PUSH2 0x65E JUMPI POP PUSH2 0x65D DUP2 PUSH2 0x658 PUSH2 0xF5D JUMP JUMPDEST PUSH2 0xD08 JUMP JUMPDEST JUMPDEST PUSH2 0x69D JUMPI PUSH1 0x40 MLOAD PUSH32 0x8C379A000000000000000000000000000000000000000000000000000000000 DUP2 MSTORE PUSH1 0x4 ADD PUSH2 0x694 SWAP1 PUSH2 0x27CE JUMP JUMPDEST PUSH1 0x40 MLOAD DUP1 SWAP2 SUB SWAP1 REVERT JUMPDEST PUSH2 0x6A7 DUP4 DUP4 PUSH2 0xF64 JUMP JUMPDEST POP POP POP JUMP JUMPDEST PUSH2 0x6B4 PUSH2 0xF5D JUMP JUMPDEST PUSH20 0xFFFFFFFFFFFFFFFFFFFFFFFFFFFFFFFFFFFFFFFF AND PUSH2 0x6D2 PUSH2 0xBC6 JUMP JUMPDEST PUSH20 0xFFFFFFFFFFFFFFFFFFFFFFFFFFFFFFFFFFFFFFFF AND EQ PUSH2 0x728 JUMPI PUSH1 0x40 MLOAD PUSH32 0x8C379A000000000000000000000000000000000000000000000000000000000 DUP2 MSTORE PUSH1 0x4 ADD PUSH2 0x71F SWAP1 PUSH2 0x2836 JUMP JUMPDEST PUSH1 0x40 MLOAD DUP1 SWAP2 SUB SWAP1 REVERT JUMPDEST PUSH0 PUSH1 0x1 SWAP1 POP JUMPDEST PUSH1 0x32 DUP2 GT PUSH2 0x7CA JUMPI PUSH2 0x740 PUSH1 0xB PUSH2 0x101A JUMP JUMPDEST PUSH0 PUSH2 0x74B PUSH1 0xB PUSH2 0x102E JUMP JUMPDEST SWAP1 POP PUSH0 PUSH2 0x75F PUSH2 0x75A DUP4 PUSH2 0x8EF JUMP JUMPDEST PUSH2 0x103A JUMP JUMPDEST PUSH1 0x40 MLOAD PUSH1 0x20 ADD PUSH2 0x76F SWAP2 SWAP1 PUSH2 0x28D8 JUMP JUMPDEST PUSH1 0x40 MLOAD PUSH1 0x20 DUP2 DUP4 SUB SUB DUP2 MSTORE SWAP1 PUSH1 0x40 MSTORE SWAP1 POP DUP1 PUSH1 0x8 PUSH0 DUP5 DUP2 MSTORE PUSH1 0x20 ADD SWAP1 DUP2 MSTORE PUSH1 0x20 ADD PUSH0 KECCAK256 SWAP1 DUP2 PUSH2 0x79E SWAP2 SWAP1 PUSH2 0x2A96 JUMP JUMPDEST POP TIMESTAMP PUSH1 0x9 PUSH0 DUP5 DUP2 MSTORE PUSH1 0x20 ADD SWAP1 DUP2 MSTORE PUSH1 0x20 ADD PUSH0 KECCAK256 DUP2 SWAP1 SSTORE POP POP POP DUP1 DUP1 PUSH2 0x7C2 SWAP1 PUSH2 0x2B92 JUMP JUMPDEST SWAP2 POP POP PUSH2 0x72E JUMP JUMPDEST POP JUMP JUMPDEST PUSH2 0x7D7 PUSH1 0xB PUSH2 0x102E JUMP JUMPDEST DUP2 GT ISZERO PUSH2 0x819 JUMPI PUSH1 0x40 MLOAD PUSH32 0x8C379A000000000000000000000000000000000000000000000000000000000 DUP2 MSTORE PUSH1 0x4 ADD PUSH2 0x810 SWAP1 PUSH2 0x2C23 JUMP JUMPDEST PUSH1 0x40 MLOAD DUP1 SWAP2 SUB SWAP1 REVERT JUMPDEST PUSH1 0xA SLOAD PUSH1 0x9 PUSH0 DUP4 DUP2 MSTORE PUSH1 0x20 ADD SWAP1 DUP2 MSTORE PUSH1 0x20 ADD PUSH0 KECCAK256 SLOAD PUSH2 0x838 SWAP2 SWAP1 PUSH2 0x2C41 JUMP JUMPDEST TIMESTAMP LT PUSH2 0x882 JUMPI PUSH2 0x847 DUP2 PUSH2 0x1199 JUMP JUMPDEST PUSH1 0x40 MLOAD PUSH32 0x8C379A000000000000000000000000000000000000000000000000000000000 DUP2 MSTORE PUSH1 0x4 ADD PUSH2 0x879 SWAP1 PUSH2 0x2CE4 JUMP JUMPDEST PUSH1 0x40 MLOAD DUP1 SWAP2 SUB SWAP1 REVERT JUMPDEST PUSH2 0x88C CALLER DUP3 PUSH2 0x11A5 JUMP JUMPDEST POP JUMP JUMPDEST PUSH2 0x8A0 PUSH2 0x89A PUSH2 0xF5D JUMP JUMPDEST DUP3 PUSH2 0x1374 JUMP JUMPDEST PUSH2 0x8DF JUMPI PUSH1 0x40 MLOAD PUSH32 0x8C379A000000000000000000000000000000000000000000000000000000000 DUP2 MSTORE PUSH1 0x4 ADD PUSH2 0x8D6 SWAP1 PUSH2 0x2D72 JUMP JUMPDEST PUSH1 0x40 MLOAD DUP1 SWAP2 SUB SWAP1 REVERT JUMPDEST PUSH2 0x8EA DUP4 DUP4 DUP4 PUSH2 0x1450 JUMP JUMPDEST POP POP POP JUMP JUMPDEST PUSH1 0x60 PUSH0 PUSH1 0x40 MLOAD PUSH1 0x20 ADD PUSH2 0x901 SWAP1 PUSH2 0x2E4C JUMP JUMPDEST PUSH1 0x40 MLOAD PUSH1 0x20 DUP2 DUP4 SUB SUB DUP2 MSTORE SWAP1 PUSH1 0x40 MSTORE SWAP1 POP PUSH0 PUSH2 0x95A PUSH0 PUSH1 0x32 DUP7 PUSH2 0x924 SWAP2 SWAP1 PUSH2 0x2E8D JUMP JUMPDEST EQ PUSH2 0x947 JUMPI PUSH1 0x1 PUSH1 0x32 DUP7 PUSH2 0x938 SWAP2 SWAP1 PUSH2 0x2EBD JUMP JUMPDEST PUSH2 0x942 SWAP2 SWAP1 PUSH2 0x2C41 JUMP JUMPDEST PUSH2 0x955 JUMP JUMPDEST PUSH1 0x32 DUP6 PUSH2 0x954 SWAP2 SWAP1 PUSH2 0x2EBD JUMP JUMPDEST JUMPDEST PUSH2 0x16AB JUMP JUMPDEST PUSH2 0x98A PUSH0 PUSH1 0x32 DUP8 PUSH2 0x96B SWAP2 SWAP1 PUSH2 0x2E8D JUMP JUMPDEST EQ PUSH2 0x982 JUMPI PUSH1 0x32 DUP7 PUSH2 0x97D SWAP2 SWAP1 PUSH2 0x2E8D JUMP JUMPDEST PUSH2 0x985 JUMP JUMPDEST PUSH1 0x32 JUMPDEST PUSH2 0x16AB JUMP JUMPDEST PUSH2 0x993 DUP5 PUSH2 0x103A JUMP JUMPDEST PUSH1 0x40 MLOAD PUSH1 0x20 ADD PUSH2 0x9A5 SWAP4 SWAP3 SWAP2 SWAP1 PUSH2 0x30CF JUMP JUMPDEST PUSH1 0x40 MLOAD PUSH1 0x20 DUP2 DUP4 SUB SUB DUP2 MSTORE SWAP1 PUSH1 0x40 MSTORE SWAP1 POP DUP1 SWAP3 POP POP POP SWAP2 SWAP1 POP JUMP JUMPDEST PUSH2 0x9DA DUP4 DUP4 DUP4 PUSH1 0x40 MLOAD DUP1 PUSH1 0x20 ADD PUSH1 0x40 MSTORE DUP1 PUSH0 DUP2 MSTORE POP PUSH2 0xC94 JUMP JUMPDEST POP POP POP JUMP JUMPDEST PUSH0 DUP1 PUSH1 0x2 PUSH0 DUP5 DUP2 MSTORE PUSH1 0x20 ADD SWAP1 DUP2 MSTORE PUSH1 0x20 ADD PUSH0 KECCAK256 PUSH0 SWAP1 SLOAD SWAP1 PUSH2 0x100 EXP SWAP1 DIV PUSH20 0xFFFFFFFFFFFFFFFFFFFFFFFFFFFFFFFFFFFFFFFF AND SWAP1 POP PUSH0 PUSH20 0xFFFFFFFFFFFFFFFFFFFFFFFFFFFFFFFFFFFFFFFF AND DUP2 PUSH20 0xFFFFFFFFFFFFFFFFFFFFFFFFFFFFFFFFFFFFFFFF AND SUB PUSH2 0xA82 JUMPI PUSH1 0x40 MLOAD PUSH32 0x8C379A000000000000000000000000000000000000000000000000000000000 DUP2 MSTORE PUSH1 0x4 ADD PUSH2 0xA79 SWAP1 PUSH2 0x31B1 JUMP JUMPDEST PUSH1 0x40 MLOAD DUP1 SWAP2 SUB SWAP1 REVERT JUMPDEST DUP1 SWAP2 POP POP SWAP2 SWAP1 POP JUMP JUMPDEST PUSH0 DUP1 PUSH20 0xFFFFFFFFFFFFFFFFFFFFFFFFFFFFFFFFFFFFFFFF AND DUP3 PUSH20 0xFFFFFFFFFFFFFFFFFFFFFFFFFFFFFFFFFFFFFFFF AND SUB PUSH2 0xAFA JUMPI PUSH1 0x40 MLOAD PUSH32 0x8C379A000000000000000000000000000000000000000000000000000000000 DUP2 MSTORE PUSH1 0x4 ADD PUSH2 0xAF1 SWAP1 PUSH2 0x323F JUMP JUMPDEST PUSH1 0x40 MLOAD DUP1 SWAP2 SUB SWAP1 REVERT JUMPDEST PUSH1 0x3 PUSH0 DUP4 PUSH20 0xFFFFFFFFFFFFFFFFFFFFFFFFFFFFFFFFFFFFFFFF AND PUSH20 0xFFFFFFFFFFFFFFFFFFFFFFFFFFFFFFFFFFFFFFFF AND DUP2 MSTORE PUSH1 0x20 ADD SWAP1 DUP2 MSTORE PUSH1 0x20 ADD PUSH0 KECCAK256 SLOAD SWAP1 POP SWAP2 SWAP1 POP JUMP JUMPDEST PUSH2 0xB47 PUSH2 0xF5D JUMP JUMPDEST PUSH20 0xFFFFFFFFFFFFFFFFFFFFFFFFFFFFFFFFFFFFFFFF AND PUSH2 0xB65 PUSH2 0xBC6 JUMP JUMPDEST PUSH20 0xFFFFFFFFFFFFFFFFFFFFFFFFFFFFFFFFFFFFFFFF AND EQ PUSH2 0xBBB JUMPI PUSH1 0x40 MLOAD PUSH32 0x8C379A000000000000000000000000000000000000000000000000000000000 DUP2 MSTORE PUSH1 0x4 ADD PUSH2 0xBB2 SWAP1 PUSH2 0x2836 JUMP JUMPDEST PUSH1 0x40 MLOAD DUP1 SWAP2 SUB SWAP1 REVERT JUMPDEST PUSH2 0xBC4 PUSH0 PUSH2 0x1804 JUMP JUMPDEST JUMP JUMPDEST PUSH0 PUSH1 0x7 PUSH0 SWAP1 SLOAD SWAP1 PUSH2 0x100 EXP SWAP1 DIV PUSH20 0xFFFFFFFFFFFFFFFFFFFFFFFFFFFFFFFFFFFFFFFF AND SWAP1 POP SWAP1 JUMP JUMPDEST PUSH1 0x60 PUSH1 0x1 DUP1 SLOAD PUSH2 0xBFD SWAP1 PUSH2 0x2612 JUMP JUMPDEST DUP1 PUSH1 0x1F ADD PUSH1 0x20 DUP1 SWAP2 DIV MUL PUSH1 0x20 ADD PUSH1 0x40 MLOAD SWAP1 DUP2 ADD PUSH1 0x40 MSTORE DUP1 SWAP3 SWAP2 SWAP1 DUP2 DUP2 MSTORE PUSH1 0x20 ADD DUP3 DUP1 SLOAD PUSH2 0xC29 SWAP1 PUSH2 0x2612 JUMP JUMPDEST DUP1 ISZERO PUSH2 0xC74 JUMPI DUP1 PUSH1 0x1F LT PUSH2 0xC4B JUMPI PUSH2 0x100 DUP1 DUP4 SLOAD DIV MUL DUP4 MSTORE SWAP2 PUSH1 0x20 ADD SWAP2 PUSH2 0xC74 JUMP JUMPDEST DUP3 ADD SWAP2 SWAP1 PUSH0 MSTORE PUSH1 0x20 PUSH0 KECCAK256 SWAP1 JUMPDEST DUP2 SLOAD DUP2 MSTORE SWAP1 PUSH1 0x1 ADD SWAP1 PUSH1 0x20 ADD DUP1 DUP4 GT PUSH2 0xC57 JUMPI DUP3 SWAP1 SUB PUSH1 0x1F AND DUP3 ADD SWAP2 JUMPDEST POP POP POP POP POP SWAP1 POP SWAP1 JUMP JUMPDEST PUSH2 0xC90 PUSH2 0xC89 PUSH2 0xF5D JUMP JUMPDEST DUP4 DUP4 PUSH2 0x18C7 JUMP JUMPDEST POP POP JUMP JUMPDEST PUSH2 0xCA5 PUSH2 0xC9F PUSH2 0xF5D JUMP JUMPDEST DUP4 PUSH2 0x1374 JUMP JUMPDEST PUSH2 0xCE4 JUMPI PUSH1 0x40 MLOAD PUSH32 0x8C379A000000000000000000000000000000000000000000000000000000000 DUP2 MSTORE PUSH1 0x4 ADD PUSH2 0xCDB SWAP1 PUSH2 0x2D72 JUMP JUMPDEST PUSH1 0x40 MLOAD DUP1 SWAP2 SUB SWAP1 REVERT JUMPDEST PUSH2 0xCF0 DUP5 DUP5 DUP5 DUP5 PUSH2 0x1A2E JUMP JUMPDEST POP POP POP POP JUMP JUMPDEST PUSH1 0x60 PUSH2 0xD01 DUP3 PUSH2 0x1A8A JUMP JUMPDEST SWAP1 POP SWAP2 SWAP1 POP JUMP JUMPDEST PUSH0 PUSH1 0x5 PUSH0 DUP5 PUSH20 0xFFFFFFFFFFFFFFFFFFFFFFFFFFFFFFFFFFFFFFFF AND PUSH20 0xFFFFFFFFFFFFFFFFFFFFFFFFFFFFFFFFFFFFFFFF AND DUP2 MSTORE PUSH1 0x20 ADD SWAP1 DUP2 MSTORE PUSH1 0x20 ADD PUSH0 KECCAK256 PUSH0 DUP4 PUSH20 0xFFFFFFFFFFFFFFFFFFFFFFFFFFFFFFFFFFFFFFFF AND PUSH20 0xFFFFFFFFFFFFFFFFFFFFFFFFFFFFFFFFFFFFFFFF AND DUP2 MSTORE PUSH1 0x20 ADD SWAP1 DUP2 MSTORE PUSH1 0x20 ADD PUSH0 KECCAK256 PUSH0 SWAP1 SLOAD SWAP1 PUSH2 0x100 EXP SWAP1 DIV PUSH1 0xFF AND SWAP1 POP SWAP3 SWAP2 POP POP JUMP JUMPDEST PUSH2 0xD9E PUSH2 0xF5D JUMP JUMPDEST PUSH20 0xFFFFFFFFFFFFFFFFFFFFFFFFFFFFFFFFFFFFFFFF AND PUSH2 0xDBC PUSH2 0xBC6 JUMP JUMPDEST PUSH20 0xFFFFFFFFFFFFFFFFFFFFFFFFFFFFFFFFFFFFFFFF AND EQ PUSH2 0xE12 JUMPI PUSH1 0x40 MLOAD PUSH32 0x8C379A000000000000000000000000000000000000000000000000000000000 DUP2 MSTORE PUSH1 0x4 ADD PUSH2 0xE09 SWAP1 PUSH2 0x2836 JUMP JUMPDEST PUSH1 0x40 MLOAD DUP1 SWAP2 SUB SWAP1 REVERT JUMPDEST PUSH0 PUSH20 0xFFFFFFFFFFFFFFFFFFFFFFFFFFFFFFFFFFFFFFFF AND DUP2 PUSH20 0xFFFFFFFFFFFFFFFFFFFFFFFFFFFFFFFFFFFFFFFF AND SUB PUSH2 0xE80 JUMPI PUSH1 0x40 MLOAD PUSH32 0x8C379A000000000000000000000000000000000000000000000000000000000 DUP2 MSTORE PUSH1 0x4 ADD PUSH2 0xE77 SWAP1 PUSH2 0x32CD JUMP JUMPDEST PUSH1 0x40 MLOAD DUP1 SWAP2 SUB SWAP1 REVERT JUMPDEST PUSH2 0xE89 DUP2 PUSH2 0x1804 JUMP JUMPDEST POP JUMP JUMPDEST PUSH0 PUSH32 0x1FFC9A700000000000000000000000000000000000000000000000000000000 PUSH28 0xFFFFFFFFFFFFFFFFFFFFFFFFFFFFFFFFFFFFFFFFFFFFFFFFFFFFFFFF NOT AND DUP3 PUSH28 0xFFFFFFFFFFFFFFFFFFFFFFFFFFFFFFFFFFFFFFFFFFFFFFFFFFFFFFFF NOT AND EQ SWAP1 POP SWAP2 SWAP1 POP JUMP JUMPDEST PUSH0 DUP1 PUSH20 0xFFFFFFFFFFFFFFFFFFFFFFFFFFFFFFFFFFFFFFFF AND PUSH1 0x2 PUSH0 DUP5 DUP2 MSTORE PUSH1 0x20 ADD SWAP1 DUP2 MSTORE PUSH1 0x20 ADD PUSH0 KECCAK256 PUSH0 SWAP1 SLOAD SWAP1 PUSH2 0x100 EXP SWAP1 DIV PUSH20 0xFFFFFFFFFFFFFFFFFFFFFFFFFFFFFFFFFFFFFFFF AND PUSH20 0xFFFFFFFFFFFFFFFFFFFFFFFFFFFFFFFFFFFFFFFF AND EQ ISZERO SWAP1 POP SWAP2 SWAP1 POP JUMP JUMPDEST PUSH0 CALLER SWAP1 POP SWAP1 JUMP JUMPDEST DUP2 PUSH1 0x4 PUSH0 DUP4 DUP2 MSTORE PUSH1 0x20 ADD SWAP1 DUP2 MSTORE PUSH1 0x20 ADD PUSH0 KECCAK256 PUSH0 PUSH2 0x100 EXP DUP2 SLOAD DUP2 PUSH20 0xFFFFFFFFFFFFFFFFFFFFFFFFFFFFFFFFFFFFFFFF MUL NOT AND SWAP1 DUP4 PUSH20 0xFFFFFFFFFFFFFFFFFFFFFFFFFFFFFFFFFFFFFFFF AND MUL OR SWAP1 SSTORE POP DUP1 DUP3 PUSH20 0xFFFFFFFFFFFFFFFFFFFFFFFFFFFFFFFFFFFFFFFF AND PUSH2 0xFD4 DUP4 PUSH2 0x9DF JUMP JUMPDEST PUSH20 0xFFFFFFFFFFFFFFFFFFFFFFFFFFFFFFFFFFFFFFFF AND PUSH32 0x8C5BE1E5EBEC7D5BD14F71427D1E84F3DD0314C0F7B2291E5B200AC8C7C3B925 PUSH1 0x40 MLOAD PUSH1 0x40 MLOAD DUP1 SWAP2 SUB SWAP1 LOG4 POP POP JUMP JUMPDEST PUSH1 0x1 DUP2 PUSH0 ADD PUSH0 DUP3 DUP3 SLOAD ADD SWAP3 POP POP DUP2 SWAP1 SSTORE POP POP JUMP JUMPDEST PUSH0 DUP2 PUSH0 ADD SLOAD SWAP1 POP SWAP2 SWAP1 POP JUMP JUMPDEST PUSH1 0x60 PUSH0 DUP3 MLOAD SUB PUSH2 0x105A JUMPI PUSH1 0x40 MLOAD DUP1 PUSH1 0x20 ADD PUSH1 0x40 MSTORE DUP1 PUSH0 DUP2 MSTORE POP SWAP1 POP PUSH2 0x1194 JUMP JUMPDEST PUSH0 PUSH1 0x40 MLOAD DUP1 PUSH1 0x60 ADD PUSH1 0x40 MSTORE DUP1 PUSH1 0x40 DUP2 MSTORE PUSH1 0x20 ADD PUSH2 0x38C5 PUSH1 0x40 SWAP2 CODECOPY SWAP1 POP PUSH0 PUSH1 0x3 PUSH1 0x2 DUP6 MLOAD PUSH2 0x1087 SWAP2 SWAP1 PUSH2 0x2C41 JUMP JUMPDEST PUSH2 0x1091 SWAP2 SWAP1 PUSH2 0x2EBD JUMP JUMPDEST PUSH1 0x4 PUSH2 0x109D SWAP2 SWAP1 PUSH2 0x32EB JUMP JUMPDEST PUSH8 0xFFFFFFFFFFFFFFFF DUP2 GT ISZERO PUSH2 0x10B6 JUMPI PUSH2 0x10B5 PUSH2 0x2403 JUMP JUMPDEST JUMPDEST PUSH1 0x40 MLOAD SWAP1 DUP1 DUP3 MSTORE DUP1 PUSH1 0x1F ADD PUSH1 0x1F NOT AND PUSH1 0x20 ADD DUP3 ADD PUSH1 0x40 MSTORE DUP1 ISZERO PUSH2 0x10E8 JUMPI DUP2 PUSH1 0x20 ADD PUSH1 0x1 DUP3 MUL DUP1 CALLDATASIZE DUP4 CALLDATACOPY DUP1 DUP3 ADD SWAP2 POP POP SWAP1 POP JUMPDEST POP SWAP1 POP PUSH1 0x1 DUP3 ADD PUSH1 0x20 DUP3 ADD DUP6 DUP7 MLOAD DUP8 ADD JUMPDEST DUP1 DUP3 LT ISZERO PUSH2 0x1154 JUMPI PUSH1 0x3 DUP3 ADD SWAP2 POP DUP2 MLOAD PUSH1 0x3F DUP2 PUSH1 0x12 SHR AND DUP6 ADD MLOAD DUP5 MSTORE8 PUSH1 0x1 DUP5 ADD SWAP4 POP PUSH1 0x3F DUP2 PUSH1 0xC SHR AND DUP6 ADD MLOAD DUP5 MSTORE8 PUSH1 0x1 DUP5 ADD SWAP4 POP PUSH1 0x3F DUP2 PUSH1 0x6 SHR AND DUP6 ADD MLOAD DUP5 MSTORE8 PUSH1 0x1 DUP5 ADD SWAP4 POP PUSH1 0x3F DUP2 AND DUP6 ADD MLOAD DUP5 MSTORE8 PUSH1 0x1 DUP5 ADD SWAP4 POP POP PUSH2 0x10F9 JUMP JUMPDEST POP POP PUSH1 0x3 DUP7 MLOAD MOD PUSH1 0x1 DUP2 EQ PUSH2 0x1170 JUMPI PUSH1 0x2 DUP2 EQ PUSH2 0x1183 JUMPI PUSH2 0x118B JUMP JUMPDEST PUSH1 0x3D PUSH1 0x1 DUP4 SUB MSTORE8 PUSH1 0x3D PUSH1 0x2 DUP4 SUB MSTORE8 PUSH2 0x118B JUMP JUMPDEST PUSH1 0x3D PUSH1 0x1 DUP4 SUB MSTORE8 JUMPDEST POP POP POP DUP1 SWAP3 POP POP POP JUMPDEST SWAP2 SWAP1 POP JUMP JUMPDEST PUSH2 0x11A2 DUP2 PUSH2 0x1BD3 JUMP JUMPDEST POP JUMP JUMPDEST PUSH0 PUSH20 0xFFFFFFFFFFFFFFFFFFFFFFFFFFFFFFFFFFFFFFFF AND DUP3 PUSH20 0xFFFFFFFFFFFFFFFFFFFFFFFFFFFFFFFFFFFFFFFF AND SUB PUSH2 0x1213 JUMPI PUSH1 0x40 MLOAD PUSH32 0x8C379A000000000000000000000000000000000000000000000000000000000 DUP2 MSTORE PUSH1 0x4 ADD PUSH2 0x120A SWAP1 PUSH2 0x3376 JUMP JUMPDEST PUSH1 0x40 MLOAD DUP1 SWAP2 SUB SWAP1 REVERT JUMPDEST PUSH2 0x121C DUP2 PUSH2 0xEF5 JUMP JUMPDEST ISZERO PUSH2 0x125C JUMPI PUSH1 0x40 MLOAD PUSH32 0x8C379A000000000000000000000000000000000000000000000000000000000 DUP2 MSTORE PUSH1 0x4 ADD PUSH2 0x1253 SWAP1 PUSH2 0x33DE JUMP JUMPDEST PUSH1 0x40 MLOAD DUP1 SWAP2 SUB SWAP1 REVERT JUMPDEST PUSH2 0x1267 PUSH0 DUP4 DUP4 PUSH2 0x1C20 JUMP JUMPDEST PUSH1 0x1 PUSH1 0x3 PUSH0 DUP5 PUSH20 0xFFFFFFFFFFFFFFFFFFFFFFFFFFFFFFFFFFFFFFFF AND PUSH20 0xFFFFFFFFFFFFFFFFFFFFFFFFFFFFFFFFFFFFFFFF AND DUP2 MSTORE PUSH1 0x20 ADD SWAP1 DUP2 MSTORE PUSH1 0x20 ADD PUSH0 KECCAK256 PUSH0 DUP3 DUP3 SLOAD PUSH2 0x12B4 SWAP2 SWAP1 PUSH2 0x2C41 JUMP JUMPDEST SWAP3 POP POP DUP2 SWAP1 SSTORE POP DUP2 PUSH1 0x2 PUSH0 DUP4 DUP2 MSTORE PUSH1 0x20 ADD SWAP1 DUP2 MSTORE PUSH1 0x20 ADD PUSH0 KECCAK256 PUSH0 PUSH2 0x100 EXP DUP2 SLOAD DUP2 PUSH20 0xFFFFFFFFFFFFFFFFFFFFFFFFFFFFFFFFFFFFFFFF MUL NOT AND SWAP1 DUP4 PUSH20 0xFFFFFFFFFFFFFFFFFFFFFFFFFFFFFFFFFFFFFFFF AND MUL OR SWAP1 SSTORE POP DUP1 DUP3 PUSH20 0xFFFFFFFFFFFFFFFFFFFFFFFFFFFFFFFFFFFFFFFF AND PUSH0 PUSH20 0xFFFFFFFFFFFFFFFFFFFFFFFFFFFFFFFFFFFFFFFF AND PUSH32 0xDDF252AD1BE2C89B69C2B068FC378DAA952BA7F163C4A11628F55A4DF523B3EF PUSH1 0x40 MLOAD PUSH1 0x40 MLOAD DUP1 SWAP2 SUB SWAP1 LOG4 PUSH2 0x1370 PUSH0 DUP4 DUP4 PUSH2 0x1C25 JUMP JUMPDEST POP POP JUMP JUMPDEST PUSH0 PUSH2 0x137E DUP3 PUSH2 0xEF5 JUMP JUMPDEST PUSH2 0x13BD JUMPI PUSH1 0x40 MLOAD PUSH32 0x8C379A000000000000000000000000000000000000000000000000000000000 DUP2 MSTORE PUSH1 0x4 ADD PUSH2 0x13B4 SWAP1 PUSH2 0x346C JUMP JUMPDEST PUSH1 0x40 MLOAD DUP1 SWAP2 SUB SWAP1 REVERT JUMPDEST PUSH0 PUSH2 0x13C7 DUP4 PUSH2 0x9DF JUMP JUMPDEST SWAP1 POP DUP1 PUSH20 0xFFFFFFFFFFFFFFFFFFFFFFFFFFFFFFFFFFFFFFFF AND DUP5 PUSH20 0xFFFFFFFFFFFFFFFFFFFFFFFFFFFFFFFFFFFFFFFF AND EQ DUP1 PUSH2 0x1409 JUMPI POP PUSH2 0x1408 DUP2 DUP6 PUSH2 0xD08 JUMP JUMPDEST JUMPDEST DUP1 PUSH2 0x1447 JUMPI POP DUP4 PUSH20 0xFFFFFFFFFFFFFFFFFFFFFFFFFFFFFFFFFFFFFFFF AND PUSH2 0x142F DUP5 PUSH2 0x515 JUMP JUMPDEST PUSH20 0xFFFFFFFFFFFFFFFFFFFFFFFFFFFFFFFFFFFFFFFF AND EQ JUMPDEST SWAP2 POP POP SWAP3 SWAP2 POP POP JUMP JUMPDEST DUP3 PUSH20 0xFFFFFFFFFFFFFFFFFFFFFFFFFFFFFFFFFFFFFFFF AND PUSH2 0x1470 DUP3 PUSH2 0x9DF JUMP JUMPDEST PUSH20 0xFFFFFFFFFFFFFFFFFFFFFFFFFFFFFFFFFFFFFFFF AND EQ PUSH2 0x14C6 JUMPI PUSH1 0x40 MLOAD PUSH32 0x8C379A000000000000000000000000000000000000000000000000000000000 DUP2 MSTORE PUSH1 0x4 ADD PUSH2 0x14BD SWAP1 PUSH2 0x34FA JUMP JUMPDEST PUSH1 0x40 MLOAD DUP1 SWAP2 SUB SWAP1 REVERT JUMPDEST PUSH0 PUSH20 0xFFFFFFFFFFFFFFFFFFFFFFFFFFFFFFFFFFFFFFFF AND DUP3 PUSH20 0xFFFFFFFFFFFFFFFFFFFFFFFFFFFFFFFFFFFFFFFF AND SUB PUSH2 0x1534 JUMPI PUSH1 0x40 MLOAD PUSH32 0x8C379A000000000000000000000000000000000000000000000000000000000 DUP2 MSTORE PUSH1 0x4 ADD PUSH2 0x152B SWAP1 PUSH2 0x3588 JUMP JUMPDEST PUSH1 0x40 MLOAD DUP1 SWAP2 SUB SWAP1 REVERT JUMPDEST PUSH2 0x153F DUP4 DUP4 DUP4 PUSH2 0x1C20 JUMP JUMPDEST PUSH2 0x1549 PUSH0 DUP3 PUSH2 0xF64 JUMP JUMPDEST PUSH1 0x1 PUSH1 0x3 PUSH0 DUP6 PUSH20 0xFFFFFFFFFFFFFFFFFFFFFFFFFFFFFFFFFFFFFFFF AND PUSH20 0xFFFFFFFFFFFFFFFFFFFFFFFFFFFFFFFFFFFFFFFF AND DUP2 MSTORE PUSH1 0x20 ADD SWAP1 DUP2 MSTORE PUSH1 0x20 ADD PUSH0 KECCAK256 PUSH0 DUP3 DUP3 SLOAD PUSH2 0x1596 SWAP2 SWAP1 PUSH2 0x35A6 JUMP JUMPDEST SWAP3 POP POP DUP2 SWAP1 SSTORE POP PUSH1 0x1 PUSH1 0x3 PUSH0 DUP5 PUSH20 0xFFFFFFFFFFFFFFFFFFFFFFFFFFFFFFFFFFFFFFFF AND PUSH20 0xFFFFFFFFFFFFFFFFFFFFFFFFFFFFFFFFFFFFFFFF AND DUP2 MSTORE PUSH1 0x20 ADD SWAP1 DUP2 MSTORE PUSH1 0x20 ADD PUSH0 KECCAK256 PUSH0 DUP3 DUP3 SLOAD PUSH2 0x15EA SWAP2 SWAP1 PUSH2 0x2C41 JUMP JUMPDEST SWAP3 POP POP DUP2 SWAP1 SSTORE POP DUP2 PUSH1 0x2 PUSH0 DUP4 DUP2 MSTORE PUSH1 0x20 ADD SWAP1 DUP2 MSTORE PUSH1 0x20 ADD PUSH0 KECCAK256 PUSH0 PUSH2 0x100 EXP DUP2 SLOAD DUP2 PUSH20 0xFFFFFFFFFFFFFFFFFFFFFFFFFFFFFFFFFFFFFFFF MUL NOT AND SWAP1 DUP4 PUSH20 0xFFFFFFFFFFFFFFFFFFFFFFFFFFFFFFFFFFFFFFFF AND MUL OR SWAP1 SSTORE POP DUP1 DUP3 PUSH20 0xFFFFFFFFFFFFFFFFFFFFFFFFFFFFFFFFFFFFFFFF AND DUP5 PUSH20 0xFFFFFFFFFFFFFFFFFFFFFFFFFFFFFFFFFFFFFFFF AND PUSH32 0xDDF252AD1BE2C89B69C2B068FC378DAA952BA7F163C4A11628F55A4DF523B3EF PUSH1 0x40 MLOAD PUSH1 0x40 MLOAD DUP1 SWAP2 SUB SWAP1 LOG4 PUSH2 0x16A6 DUP4 DUP4 DUP4 PUSH2 0x1C25 JUMP JUMPDEST POP POP POP JUMP JUMPDEST PUSH1 0x60 PUSH0 DUP3 SUB PUSH2 0x16F1 JUMPI PUSH1 0x40 MLOAD DUP1 PUSH1 0x40 ADD PUSH1 0x40 MSTORE DUP1 PUSH1 0x1 DUP2 MSTORE PUSH1 0x20 ADD PUSH32 0x3000000000000000000000000000000000000000000000000000000000000000 DUP2 MSTORE POP SWAP1 POP PUSH2 0x17FF JUMP JUMPDEST PUSH0 DUP3 SWAP1 POP PUSH0 JUMPDEST PUSH0 DUP3 EQ PUSH2 0x1720 JUMPI DUP1 DUP1 PUSH2 0x1709 SWAP1 PUSH2 0x2B92 JUMP JUMPDEST SWAP2 POP POP PUSH1 0xA DUP3 PUSH2 0x1719 SWAP2 SWAP1 PUSH2 0x2EBD JUMP JUMPDEST SWAP2 POP PUSH2 0x16F7 JUMP JUMPDEST PUSH0 DUP2 PUSH8 0xFFFFFFFFFFFFFFFF DUP2 GT ISZERO PUSH2 0x173B JUMPI PUSH2 0x173A PUSH2 0x2403 JUMP JUMPDEST JUMPDEST PUSH1 0x40 MLOAD SWAP1 DUP1 DUP3 MSTORE DUP1 PUSH1 0x1F ADD PUSH1 0x1F NOT AND PUSH1 0x20 ADD DUP3 ADD PUSH1 0x40 MSTORE DUP1 ISZERO PUSH2 0x176D JUMPI DUP2 PUSH1 0x20 ADD PUSH1 0x1 DUP3 MUL DUP1 CALLDATASIZE DUP4 CALLDATACOPY DUP1 DUP3 ADD SWAP2 POP POP SWAP1 POP JUMPDEST POP SWAP1 POP JUMPDEST PUSH0 DUP6 EQ PUSH2 0x17F8 JUMPI PUSH1 0x1 DUP3 PUSH2 0x1785 SWAP2 SWAP1 PUSH2 0x35A6 JUMP JUMPDEST SWAP2 POP PUSH1 0xA DUP6 PUSH2 0x1794 SWAP2 SWAP1 PUSH2 0x2E8D JUMP JUMPDEST PUSH1 0x30 PUSH2 0x17A0 SWAP2 SWAP1 PUSH2 0x2C41 JUMP JUMPDEST PUSH1 0xF8 SHL DUP2 DUP4 DUP2 MLOAD DUP2 LT PUSH2 0x17B6 JUMPI PUSH2 0x17B5 PUSH2 0x35D9 JUMP JUMPDEST JUMPDEST PUSH1 0x20 ADD ADD SWAP1 PUSH31 0xFFFFFFFFFFFFFFFFFFFFFFFFFFFFFFFFFFFFFFFFFFFFFFFFFFFFFFFFFFFFFF NOT AND SWAP1 DUP2 PUSH0 BYTE SWAP1 MSTORE8 POP PUSH1 0xA DUP6 PUSH2 0x17F1 SWAP2 SWAP1 PUSH2 0x2EBD JUMP JUMPDEST SWAP5 POP PUSH2 0x1771 JUMP JUMPDEST DUP1 SWAP4 POP POP POP POP JUMPDEST SWAP2 SWAP1 POP JUMP JUMPDEST PUSH0 PUSH1 0x7 PUSH0 SWAP1 SLOAD SWAP1 PUSH2 0x100 EXP SWAP1 DIV PUSH20 0xFFFFFFFFFFFFFFFFFFFFFFFFFFFFFFFFFFFFFFFF AND SWAP1 POP DUP2 PUSH1 0x7 PUSH0 PUSH2 0x100 EXP DUP2 SLOAD DUP2 PUSH20 0xFFFFFFFFFFFFFFFFFFFFFFFFFFFFFFFFFFFFFFFF MUL NOT AND SWAP1 DUP4 PUSH20 0xFFFFFFFFFFFFFFFFFFFFFFFFFFFFFFFFFFFFFFFF AND MUL OR SWAP1 SSTORE POP DUP2 PUSH20 0xFFFFFFFFFFFFFFFFFFFFFFFFFFFFFFFFFFFFFFFF AND DUP2 PUSH20 0xFFFFFFFFFFFFFFFFFFFFFFFFFFFFFFFFFFFFFFFF AND PUSH32 0x8BE0079C531659141344CD1FD0A4F28419497F9722A3DAAFE3B4186F6B6457E0 PUSH1 0x40 MLOAD PUSH1 0x40 MLOAD DUP1 SWAP2 SUB SWAP1 LOG3 POP POP JUMP JUMPDEST DUP2 PUSH20 0xFFFFFFFFFFFFFFFFFFFFFFFFFFFFFFFFFFFFFFFF AND DUP4 PUSH20 0xFFFFFFFFFFFFFFFFFFFFFFFFFFFFFFFFFFFFFFFF AND SUB PUSH2 0x1935 JUMPI PUSH1 0x40 MLOAD PUSH32 0x8C379A000000000000000000000000000000000000000000000000000000000 DUP2 MSTORE PUSH1 0x4 ADD PUSH2 0x192C SWAP1 PUSH2 0x3650 JUMP JUMPDEST PUSH1 0x40 MLOAD DUP1 SWAP2 SUB SWAP1 REVERT JUMPDEST DUP1 PUSH1 0x5 PUSH0 DUP6 PUSH20 0xFFFFFFFFFFFFFFFFFFFFFFFFFFFFFFFFFFFFFFFF AND PUSH20 0xFFFFFFFFFFFFFFFFFFFFFFFFFFFFFFFFFFFFFFFF AND DUP2 MSTORE PUSH1 0x20 ADD SWAP1 DUP2 MSTORE PUSH1 0x20 ADD PUSH0 KECCAK256 PUSH0 DUP5 PUSH20 0xFFFFFFFFFFFFFFFFFFFFFFFFFFFFFFFFFFFFFFFF AND PUSH20 0xFFFFFFFFFFFFFFFFFFFFFFFFFFFFFFFFFFFFFFFF AND DUP2 MSTORE PUSH1 0x20 ADD SWAP1 DUP2 MSTORE PUSH1 0x20 ADD PUSH0 KECCAK256 PUSH0 PUSH2 0x100 EXP DUP2 SLOAD DUP2 PUSH1 0xFF MUL NOT AND SWAP1 DUP4 ISZERO ISZERO MUL OR SWAP1 SSTORE POP DUP2 PUSH20 0xFFFFFFFFFFFFFFFFFFFFFFFFFFFFFFFFFFFFFFFF AND DUP4 PUSH20 0xFFFFFFFFFFFFFFFFFFFFFFFFFFFFFFFFFFFFFFFF AND PUSH32 0x17307EAB39AB6107E8899845AD3D59BD9653F200F220920489CA2B5937696C31 DUP4 PUSH1 0x40 MLOAD PUSH2 0x1A21 SWAP2 SWAP1 PUSH2 0x209D JUMP JUMPDEST PUSH1 0x40 MLOAD DUP1 SWAP2 SUB SWAP1 LOG3 POP POP POP JUMP JUMPDEST PUSH2 0x1A39 DUP5 DUP5 DUP5 PUSH2 0x1450 JUMP JUMPDEST PUSH2 0x1A45 DUP5 DUP5 DUP5 DUP5 PUSH2 0x1C2A JUMP JUMPDEST PUSH2 0x1A84 JUMPI PUSH1 0x40 MLOAD PUSH32 0x8C379A000000000000000000000000000000000000000000000000000000000 DUP2 MSTORE PUSH1 0x4 ADD PUSH2 0x1A7B SWAP1 PUSH2 0x36DE JUMP JUMPDEST PUSH1 0x40 MLOAD DUP1 SWAP2 SUB SWAP1 REVERT JUMPDEST POP POP POP POP JUMP JUMPDEST PUSH1 0x60 PUSH2 0x1A95 DUP3 PUSH2 0xEF5 JUMP JUMPDEST PUSH2 0x1AD4 JUMPI PUSH1 0x40 MLOAD PUSH32 0x8C379A000000000000000000000000000000000000000000000000000000000 DUP2 MSTORE PUSH1 0x4 ADD PUSH2 0x1ACB SWAP1 PUSH2 0x376C JUMP JUMPDEST PUSH1 0x40 MLOAD DUP1 SWAP2 SUB SWAP1 REVERT JUMPDEST PUSH0 PUSH1 0x6 PUSH0 DUP5 DUP2 MSTORE PUSH1 0x20 ADD SWAP1 DUP2 MSTORE PUSH1 0x20 ADD PUSH0 KECCAK256 DUP1 SLOAD PUSH2 0x1AF1 SWAP1 PUSH2 0x2612 JUMP JUMPDEST DUP1 PUSH1 0x1F ADD PUSH1 0x20 DUP1 SWAP2 DIV MUL PUSH1 0x20 ADD PUSH1 0x40 MLOAD SWAP1 DUP2 ADD PUSH1 0x40 MSTORE DUP1 SWAP3 SWAP2 SWAP1 DUP2 DUP2 MSTORE PUSH1 0x20 ADD DUP3 DUP1 SLOAD PUSH2 0x1B1D SWAP1 PUSH2 0x2612 JUMP JUMPDEST DUP1 ISZERO PUSH2 0x1B68 JUMPI DUP1 PUSH1 0x1F LT PUSH2 0x1B3F JUMPI PUSH2 0x100 DUP1 DUP4 SLOAD DIV MUL DUP4 MSTORE SWAP2 PUSH1 0x20 ADD SWAP2 PUSH2 0x1B68 JUMP JUMPDEST DUP3 ADD SWAP2 SWAP1 PUSH0 MSTORE PUSH1 0x20 PUSH0 KECCAK256 SWAP1 JUMPDEST DUP2 SLOAD DUP2 MSTORE SWAP1 PUSH1 0x1 ADD SWAP1 PUSH1 0x20 ADD DUP1 DUP4 GT PUSH2 0x1B4B JUMPI DUP3 SWAP1 SUB PUSH1 0x1F AND DUP3 ADD SWAP2 JUMPDEST POP POP POP POP POP SWAP1 POP PUSH0 PUSH2 0x1B78 PUSH2 0x1DAC JUMP JUMPDEST SWAP1 POP PUSH0 DUP2 MLOAD SUB PUSH2 0x1B8C JUMPI DUP2 SWAP3 POP POP POP PUSH2 0x1BCE JUMP JUMPDEST PUSH0 DUP3 MLOAD GT ISZERO PUSH2 0x1BC0 JUMPI DUP1 DUP3 PUSH1 0x40 MLOAD PUSH1 0x20 ADD PUSH2 0x1BA8 SWAP3 SWAP2 SWAP1 PUSH2 0x378A JUMP JUMPDEST PUSH1 0x40 MLOAD PUSH1 0x20 DUP2 DUP4 SUB SUB DUP2 MSTORE SWAP1 PUSH1 0x40 MSTORE SWAP3 POP POP POP PUSH2 0x1BCE JUMP JUMPDEST PUSH2 0x1BC9 DUP5 PUSH2 0x1DC2 JUMP JUMPDEST SWAP3 POP POP POP JUMPDEST SWAP2 SWAP1 POP JUMP JUMPDEST PUSH2 0x1BDC DUP2 PUSH2 0x1E66 JUMP JUMPDEST PUSH0 PUSH1 0x6 PUSH0 DUP4 DUP2 MSTORE PUSH1 0x20 ADD SWAP1 DUP2 MSTORE PUSH1 0x20 ADD PUSH0 KECCAK256 DUP1 SLOAD PUSH2 0x1BF9 SWAP1 PUSH2 0x2612 JUMP JUMPDEST SWAP1 POP EQ PUSH2 0x1C1D JUMPI PUSH1 0x6 PUSH0 DUP3 DUP2 MSTORE PUSH1 0x20 ADD SWAP1 DUP2 MSTORE PUSH1 0x20 ADD PUSH0 KECCAK256 PUSH0 PUSH2 0x1C1C SWAP2 SWAP1 PUSH2 0x1F9A JUMP JUMPDEST JUMPDEST POP JUMP JUMPDEST POP POP POP JUMP JUMPDEST POP POP POP JUMP JUMPDEST PUSH0 PUSH2 0x1C4A DUP5 PUSH20 0xFFFFFFFFFFFFFFFFFFFFFFFFFFFFFFFFFFFFFFFF AND PUSH2 0x1F78 JUMP JUMPDEST ISZERO PUSH2 0x1D9F JUMPI DUP4 PUSH20 0xFFFFFFFFFFFFFFFFFFFFFFFFFFFFFFFFFFFFFFFF AND PUSH4 0x150B7A02 PUSH2 0x1C73 PUSH2 0xF5D JUMP JUMPDEST DUP8 DUP7 DUP7 PUSH1 0x40 MLOAD DUP6 PUSH4 0xFFFFFFFF AND PUSH1 0xE0 SHL DUP2 MSTORE PUSH1 0x4 ADD PUSH2 0x1C95 SWAP5 SWAP4 SWAP3 SWAP2 SWAP1 PUSH2 0x37AD JUMP JUMPDEST PUSH1 0x20 PUSH1 0x40 MLOAD DUP1 DUP4 SUB DUP2 PUSH0 DUP8 GAS CALL SWAP3 POP POP POP DUP1 ISZERO PUSH2 0x1CD0 JUMPI POP PUSH1 0x40 MLOAD RETURNDATASIZE PUSH1 0x1F NOT PUSH1 0x1F DUP3 ADD AND DUP3 ADD DUP1 PUSH1 0x40 MSTORE POP DUP2 ADD SWAP1 PUSH2 0x1CCD SWAP2 SWAP1 PUSH2 0x380B JUMP JUMPDEST PUSH1 0x1 JUMPDEST PUSH2 0x1D4F JUMPI RETURNDATASIZE DUP1 PUSH0 DUP2 EQ PUSH2 0x1CFE JUMPI PUSH1 0x40 MLOAD SWAP2 POP PUSH1 0x1F NOT PUSH1 0x3F RETURNDATASIZE ADD AND DUP3 ADD PUSH1 0x40 MSTORE RETURNDATASIZE DUP3 MSTORE RETURNDATASIZE PUSH0 PUSH1 0x20 DUP5 ADD RETURNDATACOPY PUSH2 0x1D03 JUMP JUMPDEST PUSH1 0x60 SWAP2 POP JUMPDEST POP PUSH0 DUP2 MLOAD SUB PUSH2 0x1D47 JUMPI PUSH1 0x40 MLOAD PUSH32 0x8C379A000000000000000000000000000000000000000000000000000000000 DUP2 MSTORE PUSH1 0x4 ADD PUSH2 0x1D3E SWAP1 PUSH2 0x36DE JUMP JUMPDEST PUSH1 0x40 MLOAD DUP1 SWAP2 SUB SWAP1 REVERT JUMPDEST DUP1 MLOAD DUP2 PUSH1 0x20 ADD REVERT JUMPDEST PUSH4 0x150B7A02 PUSH1 0xE0 SHL PUSH28 0xFFFFFFFFFFFFFFFFFFFFFFFFFFFFFFFFFFFFFFFFFFFFFFFFFFFFFFFF NOT AND DUP2 PUSH28 0xFFFFFFFFFFFFFFFFFFFFFFFFFFFFFFFFFFFFFFFFFFFFFFFFFFFFFFFF NOT AND EQ SWAP2 POP POP PUSH2 0x1DA4 JUMP JUMPDEST PUSH1 0x1 SWAP1 POP JUMPDEST SWAP5 SWAP4 POP POP POP POP JUMP JUMPDEST PUSH1 0x60 PUSH1 0x40 MLOAD DUP1 PUSH1 0x20 ADD PUSH1 0x40 MSTORE DUP1 PUSH0 DUP2 MSTORE POP SWAP1 POP SWAP1 JUMP JUMPDEST PUSH1 0x60 PUSH2 0x1DCD DUP3 PUSH2 0xEF5 JUMP JUMPDEST PUSH2 0x1E0C JUMPI PUSH1 0x40 MLOAD PUSH32 0x8C379A000000000000000000000000000000000000000000000000000000000 DUP2 MSTORE PUSH1 0x4 ADD PUSH2 0x1E03 SWAP1 PUSH2 0x38A6 JUMP JUMPDEST PUSH1 0x40 MLOAD DUP1 SWAP2 SUB SWAP1 REVERT JUMPDEST PUSH0 PUSH2 0x1E15 PUSH2 0x1DAC JUMP JUMPDEST SWAP1 POP PUSH0 DUP2 MLOAD GT PUSH2 0x1E33 JUMPI PUSH1 0x40 MLOAD DUP1 PUSH1 0x20 ADD PUSH1 0x40 MSTORE DUP1 PUSH0 DUP2 MSTORE POP PUSH2 0x1E5E JUMP JUMPDEST DUP1 PUSH2 0x1E3D DUP5 PUSH2 0x16AB JUMP JUMPDEST PUSH1 0x40 MLOAD PUSH1 0x20 ADD PUSH2 0x1E4E SWAP3 SWAP2 SWAP1 PUSH2 0x378A JUMP JUMPDEST PUSH1 0x40 MLOAD PUSH1 0x20 DUP2 DUP4 SUB SUB DUP2 MSTORE SWAP1 PUSH1 0x40 MSTORE JUMPDEST SWAP2 POP POP SWAP2 SWAP1 POP JUMP JUMPDEST PUSH0 PUSH2 0x1E70 DUP3 PUSH2 0x9DF JUMP JUMPDEST SWAP1 POP PUSH2 0x1E7D DUP2 PUSH0 DUP5 PUSH2 0x1C20 JUMP JUMPDEST PUSH2 0x1E87 PUSH0 DUP4 PUSH2 0xF64 JUMP JUMPDEST PUSH1 0x1 PUSH1 0x3 PUSH0 DUP4 PUSH20 0xFFFFFFFFFFFFFFFFFFFFFFFFFFFFFFFFFFFFFFFF AND PUSH20 0xFFFFFFFFFFFFFFFFFFFFFFFFFFFFFFFFFFFFFFFF AND DUP2 MSTORE PUSH1 0x20 ADD SWAP1 DUP2 MSTORE PUSH1 0x20 ADD PUSH0 KECCAK256 PUSH0 DUP3 DUP3 SLOAD PUSH2 0x1ED4 SWAP2 SWAP1 PUSH2 0x35A6 JUMP JUMPDEST SWAP3 POP POP DUP2 SWAP1 SSTORE POP PUSH1 0x2 PUSH0 DUP4 DUP2 MSTORE PUSH1 0x20 ADD SWAP1 DUP2 MSTORE PUSH1 0x20 ADD PUSH0 KECCAK256 PUSH0 PUSH2 0x100 EXP DUP2 SLOAD SWAP1 PUSH20 0xFFFFFFFFFFFFFFFFFFFFFFFFFFFFFFFFFFFFFFFF MUL NOT AND SWAP1 SSTORE DUP2 PUSH0 PUSH20 0xFFFFFFFFFFFFFFFFFFFFFFFFFFFFFFFFFFFFFFFF AND DUP3 PUSH20 0xFFFFFFFFFFFFFFFFFFFFFFFFFFFFFFFFFFFFFFFF AND PUSH32 0xDDF252AD1BE2C89B69C2B068FC378DAA952BA7F163C4A11628F55A4DF523B3EF PUSH1 0x40 MLOAD PUSH1 0x40 MLOAD DUP1 SWAP2 SUB SWAP1 LOG4 PUSH2 0x1F74 DUP2 PUSH0 DUP5 PUSH2 0x1C25 JUMP JUMPDEST POP POP JUMP JUMPDEST PUSH0 DUP1 DUP3 PUSH20 0xFFFFFFFFFFFFFFFFFFFFFFFFFFFFFFFFFFFFFFFF AND EXTCODESIZE GT SWAP1 POP SWAP2 SWAP1 POP JUMP JUMPDEST POP DUP1 SLOAD PUSH2 0x1FA6 SWAP1 PUSH2 0x2612 JUMP JUMPDEST PUSH0 DUP3 SSTORE DUP1 PUSH1 0x1F LT PUSH2 0x1FB7 JUMPI POP PUSH2 0x1FD4 JUMP JUMPDEST PUSH1 0x1F ADD PUSH1 0x20 SWAP1 DIV SWAP1 PUSH0 MSTORE PUSH1 0x20 PUSH0 KECCAK256 SWAP1 DUP2 ADD SWAP1 PUSH2 0x1FD3 SWAP2 SWAP1 PUSH2 0x1FD7 JUMP JUMPDEST JUMPDEST POP JUMP JUMPDEST JUMPDEST DUP1 DUP3 GT ISZERO PUSH2 0x1FEE JUMPI PUSH0 DUP2 PUSH0 SWAP1 SSTORE POP PUSH1 0x1 ADD PUSH2 0x1FD8 JUMP JUMPDEST POP SWAP1 JUMP JUMPDEST PUSH0 PUSH1 0x40 MLOAD SWAP1 POP SWAP1 JUMP JUMPDEST PUSH0 DUP1 REVERT JUMPDEST PUSH0 DUP1 REVERT JUMPDEST PUSH0 PUSH32 0xFFFFFFFF00000000000000000000000000000000000000000000000000000000 DUP3 AND SWAP1 POP SWAP2 SWAP1 POP JUMP JUMPDEST PUSH2 0x2037 DUP2 PUSH2 0x2003 JUMP JUMPDEST DUP2 EQ PUSH2 0x2041 JUMPI PUSH0 DUP1 REVERT JUMPDEST POP JUMP JUMPDEST PUSH0 DUP2 CALLDATALOAD SWAP1 POP PUSH2 0x2052 DUP2 PUSH2 0x202E JUMP JUMPDEST SWAP3 SWAP2 POP POP JUMP JUMPDEST PUSH0 PUSH1 0x20 DUP3 DUP5 SUB SLT ISZERO PUSH2 0x206D JUMPI PUSH2 0x206C PUSH2 0x1FFB JUMP JUMPDEST JUMPDEST PUSH0 PUSH2 0x207A DUP5 DUP3 DUP6 ADD PUSH2 0x2044 JUMP JUMPDEST SWAP2 POP POP SWAP3 SWAP2 POP POP JUMP JUMPDEST PUSH0 DUP2 ISZERO ISZERO SWAP1 POP SWAP2 SWAP1 POP JUMP JUMPDEST PUSH2 0x2097 DUP2 PUSH2 0x2083 JUMP JUMPDEST DUP3 MSTORE POP POP JUMP JUMPDEST PUSH0 PUSH1 0x20 DUP3 ADD SWAP1 POP PUSH2 0x20B0 PUSH0 DUP4 ADD DUP5 PUSH2 0x208E JUMP JUMPDEST SWAP3 SWAP2 POP POP JUMP JUMPDEST PUSH0 DUP2 MLOAD SWAP1 POP SWAP2 SWAP1 POP JUMP JUMPDEST PUSH0 DUP3 DUP3 MSTORE PUSH1 0x20 DUP3 ADD SWAP1 POP SWAP3 SWAP2 POP POP JUMP JUMPDEST PUSH0 JUMPDEST DUP4 DUP2 LT ISZERO PUSH2 0x20ED JUMPI DUP1 DUP3 ADD MLOAD DUP2 DUP5 ADD MSTORE PUSH1 0x20 DUP2 ADD SWAP1 POP PUSH2 0x20D2 JUMP JUMPDEST PUSH0 DUP5 DUP5 ADD MSTORE POP POP POP POP JUMP JUMPDEST PUSH0 PUSH1 0x1F NOT PUSH1 0x1F DUP4 ADD AND SWAP1 POP SWAP2 SWAP1 POP JUMP JUMPDEST PUSH0 PUSH2 0x2112 DUP3 PUSH2 0x20B6 JUMP JUMPDEST PUSH2 0x211C DUP2 DUP6 PUSH2 0x20C0 JUMP JUMPDEST SWAP4 POP PUSH2 0x212C DUP2 DUP6 PUSH1 0x20 DUP7 ADD PUSH2 0x20D0 JUMP JUMPDEST PUSH2 0x2135 DUP2 PUSH2 0x20F8 JUMP JUMPDEST DUP5 ADD SWAP2 POP POP SWAP3 SWAP2 POP POP JUMP JUMPDEST PUSH0 PUSH1 0x20 DUP3 ADD SWAP1 POP DUP2 DUP2 SUB PUSH0 DUP4 ADD MSTORE PUSH2 0x2158 DUP2 DUP5 PUSH2 0x2108 JUMP JUMPDEST SWAP1 POP SWAP3 SWAP2 POP POP JUMP JUMPDEST PUSH0 DUP2 SWAP1 POP SWAP2 SWAP1 POP JUMP JUMPDEST PUSH2 0x2172 DUP2 PUSH2 0x2160 JUMP JUMPDEST DUP2 EQ PUSH2 0x217C JUMPI PUSH0 DUP1 REVERT JUMPDEST POP JUMP JUMPDEST PUSH0 DUP2 CALLDATALOAD SWAP1 POP PUSH2 0x218D DUP2 PUSH2 0x2169 JUMP JUMPDEST SWAP3 SWAP2 POP POP JUMP JUMPDEST PUSH0 PUSH1 0x20 DUP3 DUP5 SUB SLT ISZERO PUSH2 0x21A8 JUMPI PUSH2 0x21A7 PUSH2 0x1FFB JUMP JUMPDEST JUMPDEST PUSH0 PUSH2 0x21B5 DUP5 DUP3 DUP6 ADD PUSH2 0x217F JUMP JUMPDEST SWAP2 POP POP SWAP3 SWAP2 POP POP JUMP JUMPDEST PUSH0 PUSH20 0xFFFFFFFFFFFFFFFFFFFFFFFFFFFFFFFFFFFFFFFF DUP3 AND SWAP1 POP SWAP2 SWAP1 POP JUMP JUMPDEST PUSH0 PUSH2 0x21E7 DUP3 PUSH2 0x21BE JUMP JUMPDEST SWAP1 POP SWAP2 SWAP1 POP JUMP JUMPDEST PUSH2 0x21F7 DUP2 PUSH2 0x21DD JUMP JUMPDEST DUP3 MSTORE POP POP JUMP JUMPDEST PUSH0 PUSH1 0x20 DUP3 ADD SWAP1 POP PUSH2 0x2210 PUSH0 DUP4 ADD DUP5 PUSH2 0x21EE JUMP JUMPDEST SWAP3 SWAP2 POP POP JUMP JUMPDEST PUSH2 0x221F DUP2 PUSH2 0x21DD JUMP JUMPDEST DUP2 EQ PUSH2 0x2229 JUMPI PUSH0 DUP1 REVERT JUMPDEST POP JUMP JUMPDEST PUSH0 DUP2 CALLDATALOAD SWAP1 POP PUSH2 0x223A DUP2 PUSH2 0x2216 JUMP JUMPDEST SWAP3 SWAP2 POP POP JUMP JUMPDEST PUSH0 DUP1 PUSH1 0x40 DUP4 DUP6 SUB SLT ISZERO PUSH2 0x2256 JUMPI PUSH2 0x2255 PUSH2 0x1FFB JUMP JUMPDEST JUMPDEST PUSH0 PUSH2 0x2263 DUP6 DUP3 DUP7 ADD PUSH2 0x222C JUMP JUMPDEST SWAP3 POP POP PUSH1 0x20 PUSH2 0x2274 DUP6 DUP3 DUP7 ADD PUSH2 0x217F JUMP JUMPDEST SWAP2 POP POP SWAP3 POP SWAP3 SWAP1 POP JUMP JUMPDEST PUSH0 DUP1 PUSH0 PUSH1 0x60 DUP5 DUP7 SUB SLT ISZERO PUSH2 0x2295 JUMPI PUSH2 0x2294 PUSH2 0x1FFB JUMP JUMPDEST JUMPDEST PUSH0 PUSH2 0x22A2 DUP7 DUP3 DUP8 ADD PUSH2 0x222C JUMP JUMPDEST SWAP4 POP POP PUSH1 0x20 PUSH2 0x22B3 DUP7 DUP3 DUP8 ADD PUSH2 0x222C JUMP JUMPDEST SWAP3 POP POP PUSH1 0x40 PUSH2 0x22C4 DUP7 DUP3 DUP8 ADD PUSH2 0x217F JUMP JUMPDEST SWAP2 POP POP SWAP3 POP SWAP3 POP SWAP3 JUMP JUMPDEST PUSH0 DUP2 MLOAD SWAP1 POP SWAP2 SWAP1 POP JUMP JUMPDEST PUSH0 DUP3 DUP3 MSTORE PUSH1 0x20 DUP3 ADD SWAP1 POP SWAP3 SWAP2 POP POP JUMP JUMPDEST PUSH0 PUSH2 0x22F2 DUP3 PUSH2 0x22CE JUMP JUMPDEST PUSH2 0x22FC DUP2 DUP6 PUSH2 0x22D8 JUMP JUMPDEST SWAP4 POP PUSH2 0x230C DUP2 DUP6 PUSH1 0x20 DUP7 ADD PUSH2 0x20D0 JUMP JUMPDEST PUSH2 0x2315 DUP2 PUSH2 0x20F8 JUMP JUMPDEST DUP5 ADD SWAP2 POP POP SWAP3 SWAP2 POP POP JUMP JUMPDEST PUSH0 PUSH1 0x20 DUP3 ADD SWAP1 POP DUP2 DUP2 SUB PUSH0 DUP4 ADD MSTORE PUSH2 0x2338 DUP2 DUP5 PUSH2 0x22E8 JUMP JUMPDEST SWAP1 POP SWAP3 SWAP2 POP POP JUMP JUMPDEST PUSH0 PUSH1 0x20 DUP3 DUP5 SUB SLT ISZERO PUSH2 0x2355 JUMPI PUSH2 0x2354 PUSH2 0x1FFB JUMP JUMPDEST JUMPDEST PUSH0 PUSH2 0x2362 DUP5 DUP3 DUP6 ADD PUSH2 0x222C JUMP JUMPDEST SWAP2 POP POP SWAP3 SWAP2 POP POP JUMP JUMPDEST PUSH2 0x2374 DUP2 PUSH2 0x2160 JUMP JUMPDEST DUP3 MSTORE POP POP JUMP JUMPDEST PUSH0 PUSH1 0x20 DUP3 ADD SWAP1 POP PUSH2 0x238D PUSH0 DUP4 ADD DUP5 PUSH2 0x236B JUMP JUMPDEST SWAP3 SWAP2 POP POP JUMP JUMPDEST PUSH2 0x239C DUP2 PUSH2 0x2083 JUMP JUMPDEST DUP2 EQ PUSH2 0x23A6 JUMPI PUSH0 DUP1 REVERT JUMPDEST POP JUMP JUMPDEST PUSH0 DUP2 CALLDATALOAD SWAP1 POP PUSH2 0x23B7 DUP2 PUSH2 0x2393 JUMP JUMPDEST SWAP3 SWAP2 POP POP JUMP JUMPDEST PUSH0 DUP1 PUSH1 0x40 DUP4 DUP6 SUB SLT ISZERO PUSH2 0x23D3 JUMPI PUSH2 0x23D2 PUSH2 0x1FFB JUMP JUMPDEST JUMPDEST PUSH0 PUSH2 0x23E0 DUP6 DUP3 DUP7 ADD PUSH2 0x222C JUMP JUMPDEST SWAP3 POP POP PUSH1 0x20 PUSH2 0x23F1 DUP6 DUP3 DUP7 ADD PUSH2 0x23A9 JUMP JUMPDEST SWAP2 POP POP SWAP3 POP SWAP3 SWAP1 POP JUMP JUMPDEST PUSH0 DUP1 REVERT JUMPDEST PUSH0 DUP1 REVERT JUMPDEST PUSH32 0x4E487B7100000000000000000000000000000000000000000000000000000000 PUSH0 MSTORE PUSH1 0x41 PUSH1 0x4 MSTORE PUSH1 0x24 PUSH0 REVERT JUMPDEST PUSH2 0x2439 DUP3 PUSH2 0x20F8 JUMP JUMPDEST DUP2 ADD DUP2 DUP2 LT PUSH8 0xFFFFFFFFFFFFFFFF DUP3 GT OR ISZERO PUSH2 0x2458 JUMPI PUSH2 0x2457 PUSH2 0x2403 JUMP JUMPDEST JUMPDEST DUP1 PUSH1 0x40 MSTORE POP POP POP JUMP JUMPDEST PUSH0 PUSH2 0x246A PUSH2 0x1FF2 JUMP JUMPDEST SWAP1 POP PUSH2 0x2476 DUP3 DUP3 PUSH2 0x2430 JUMP JUMPDEST SWAP2 SWAP1 POP JUMP JUMPDEST PUSH0 PUSH8 0xFFFFFFFFFFFFFFFF DUP3 GT ISZERO PUSH2 0x2495 JUMPI PUSH2 0x2494 PUSH2 0x2403 JUMP JUMPDEST JUMPDEST PUSH2 0x249E DUP3 PUSH2 0x20F8 JUMP JUMPDEST SWAP1 POP PUSH1 0x20 DUP2 ADD SWAP1 POP SWAP2 SWAP1 POP JUMP JUMPDEST DUP3 DUP2 DUP4 CALLDATACOPY PUSH0 DUP4 DUP4 ADD MSTORE POP POP POP JUMP JUMPDEST PUSH0 PUSH2 0x24CB PUSH2 0x24C6 DUP5 PUSH2 0x247B JUMP JUMPDEST PUSH2 0x2461 JUMP JUMPDEST SWAP1 POP DUP3 DUP2 MSTORE PUSH1 0x20 DUP2 ADD DUP5 DUP5 DUP5 ADD GT ISZERO PUSH2 0x24E7 JUMPI PUSH2 0x24E6 PUSH2 0x23FF JUMP JUMPDEST JUMPDEST PUSH2 0x24F2 DUP5 DUP3 DUP6 PUSH2 0x24AB JUMP JUMPDEST POP SWAP4 SWAP3 POP POP POP JUMP JUMPDEST PUSH0 DUP3 PUSH1 0x1F DUP4 ADD SLT PUSH2 0x250E JUMPI PUSH2 0x250D PUSH2 0x23FB JUMP JUMPDEST JUMPDEST DUP2 CALLDATALOAD PUSH2 0x251E DUP5 DUP3 PUSH1 0x20 DUP7 ADD PUSH2 0x24B9 JUMP JUMPDEST SWAP2 POP POP SWAP3 SWAP2 POP POP JUMP JUMPDEST PUSH0 DUP1 PUSH0 DUP1 PUSH1 0x80 DUP6 DUP8 SUB SLT ISZERO PUSH2 0x253F JUMPI PUSH2 0x253E PUSH2 0x1FFB JUMP JUMPDEST JUMPDEST PUSH0 PUSH2 0x254C DUP8 DUP3 DUP9 ADD PUSH2 0x222C JUMP JUMPDEST SWAP5 POP POP PUSH1 0x20 PUSH2 0x255D DUP8 DUP3 DUP9 ADD PUSH2 0x222C JUMP JUMPDEST SWAP4 POP POP PUSH1 0x40 PUSH2 0x256E DUP8 DUP3 DUP9 ADD PUSH2 0x217F JUMP JUMPDEST SWAP3 POP POP PUSH1 0x60 DUP6 ADD CALLDATALOAD PUSH8 0xFFFFFFFFFFFFFFFF DUP2 GT ISZERO PUSH2 0x258F JUMPI PUSH2 0x258E PUSH2 0x1FFF JUMP JUMPDEST JUMPDEST PUSH2 0x259B DUP8 DUP3 DUP9 ADD PUSH2 0x24FA JUMP JUMPDEST SWAP2 POP POP SWAP3 SWAP6 SWAP2 SWAP5 POP SWAP3 POP JUMP JUMPDEST PUSH0 DUP1 PUSH1 0x40 DUP4 DUP6 SUB SLT ISZERO PUSH2 0x25BD JUMPI PUSH2 0x25BC PUSH2 0x1FFB JUMP JUMPDEST JUMPDEST PUSH0 PUSH2 0x25CA DUP6 DUP3 DUP7 ADD PUSH2 0x222C JUMP JUMPDEST SWAP3 POP POP PUSH1 0x20 PUSH2 0x25DB DUP6 DUP3 DUP7 ADD PUSH2 0x222C JUMP JUMPDEST SWAP2 POP POP SWAP3 POP SWAP3 SWAP1 POP JUMP JUMPDEST PUSH32 0x4E487B7100000000000000000000000000000000000000000000000000000000 PUSH0 MSTORE PUSH1 0x22 PUSH1 0x4 MSTORE PUSH1 0x24 PUSH0 REVERT JUMPDEST PUSH0 PUSH1 0x2 DUP3 DIV SWAP1 POP PUSH1 0x1 DUP3 AND DUP1 PUSH2 0x2629 JUMPI PUSH1 0x7F DUP3 AND SWAP2 POP JUMPDEST PUSH1 0x20 DUP3 LT DUP2 SUB PUSH2 0x263C JUMPI PUSH2 0x263B PUSH2 0x25E5 JUMP JUMPDEST JUMPDEST POP SWAP2 SWAP1 POP JUMP JUMPDEST PUSH32 0x4552433732313A20617070726F76656420717565727920666F72206E6F6E6578 PUSH0 DUP3 ADD MSTORE PUSH32 0x697374656E7420746F6B656E0000000000000000000000000000000000000000 PUSH1 0x20 DUP3 ADD MSTORE POP JUMP JUMPDEST PUSH0 PUSH2 0x269C PUSH1 0x2C DUP4 PUSH2 0x20C0 JUMP JUMPDEST SWAP2 POP PUSH2 0x26A7 DUP3 PUSH2 0x2642 JUMP JUMPDEST PUSH1 0x40 DUP3 ADD SWAP1 POP SWAP2 SWAP1 POP JUMP JUMPDEST PUSH0 PUSH1 0x20 DUP3 ADD SWAP1 POP DUP2 DUP2 SUB PUSH0 DUP4 ADD MSTORE PUSH2 0x26C9 DUP2 PUSH2 0x2690 JUMP JUMPDEST SWAP1 POP SWAP2 SWAP1 POP JUMP JUMPDEST PUSH32 0x4552433732313A20617070726F76616C20746F2063757272656E74206F776E65 PUSH0 DUP3 ADD MSTORE PUSH32 0x7200000000000000000000000000000000000000000000000000000000000000 PUSH1 0x20 DUP3 ADD MSTORE POP JUMP JUMPDEST PUSH0 PUSH2 0x272A PUSH1 0x21 DUP4 PUSH2 0x20C0 JUMP JUMPDEST SWAP2 POP PUSH2 0x2735 DUP3 PUSH2 0x26D0 JUMP JUMPDEST PUSH1 0x40 DUP3 ADD SWAP1 POP SWAP2 SWAP1 POP JUMP JUMPDEST PUSH0 PUSH1 0x20 DUP3 ADD SWAP1 POP DUP2 DUP2 SUB PUSH0 DUP4 ADD MSTORE PUSH2 0x2757 DUP2 PUSH2 0x271E JUMP JUMPDEST SWAP1 POP SWAP2 SWAP1 POP JUMP JUMPDEST PUSH32 0x4552433732313A20617070726F76652063616C6C6572206973206E6F74206F77 PUSH0 DUP3 ADD MSTORE PUSH32 0x6E6572206E6F7220617070726F76656420666F7220616C6C0000000000000000 PUSH1 0x20 DUP3 ADD MSTORE POP JUMP JUMPDEST PUSH0 PUSH2 0x27B8 PUSH1 0x38 DUP4 PUSH2 0x20C0 JUMP JUMPDEST SWAP2 POP PUSH2 0x27C3 DUP3 PUSH2 0x275E JUMP JUMPDEST PUSH1 0x40 DUP3 ADD SWAP1 POP SWAP2 SWAP1 POP JUMP JUMPDEST PUSH0 PUSH1 0x20 DUP3 ADD SWAP1 POP DUP2 DUP2 SUB PUSH0 DUP4 ADD MSTORE PUSH2 0x27E5 DUP2 PUSH2 0x27AC JUMP JUMPDEST SWAP1 POP SWAP2 SWAP1 POP JUMP JUMPDEST PUSH32 0x4F776E61626C653A2063616C6C6572206973206E6F7420746865206F776E6572 PUSH0 DUP3 ADD MSTORE POP JUMP JUMPDEST PUSH0 PUSH2 0x2820 PUSH1 0x20 DUP4 PUSH2 0x20C0 JUMP JUMPDEST SWAP2 POP PUSH2 0x282B DUP3 PUSH2 0x27EC JUMP JUMPDEST PUSH1 0x20 DUP3 ADD SWAP1 POP SWAP2 SWAP1 POP JUMP JUMPDEST PUSH0 PUSH1 0x20 DUP3 ADD SWAP1 POP DUP2 DUP2 SUB PUSH0 DUP4 ADD MSTORE PUSH2 0x284D DUP2 PUSH2 0x2814 JUMP JUMPDEST SWAP1 POP SWAP2 SWAP1 POP JUMP JUMPDEST PUSH0 DUP2 SWAP1 POP SWAP3 SWAP2 POP POP JUMP JUMPDEST PUSH32 0x646174613A6170706C69636174696F6E2F6A736F6E3B6261736536342C000000 PUSH0 DUP3 ADD MSTORE POP JUMP JUMPDEST PUSH0 PUSH2 0x2892 PUSH1 0x1D DUP4 PUSH2 0x2854 JUMP JUMPDEST SWAP2 POP PUSH2 0x289D DUP3 PUSH2 0x285E JUMP JUMPDEST PUSH1 0x1D DUP3 ADD SWAP1 POP SWAP2 SWAP1 POP JUMP JUMPDEST PUSH0 PUSH2 0x28B2 DUP3 PUSH2 0x20B6 JUMP JUMPDEST PUSH2 0x28BC DUP2 DUP6 PUSH2 0x2854 JUMP JUMPDEST SWAP4 POP PUSH2 0x28CC DUP2 DUP6 PUSH1 0x20 DUP7 ADD PUSH2 0x20D0 JUMP JUMPDEST DUP1 DUP5 ADD SWAP2 POP POP SWAP3 SWAP2 POP POP JUMP JUMPDEST PUSH0 PUSH2 0x28E2 DUP3 PUSH2 0x2886 JUMP JUMPDEST SWAP2 POP PUSH2 0x28EE DUP3 DUP5 PUSH2 0x28A8 JUMP JUMPDEST SWAP2 POP DUP2 SWAP1 POP SWAP3 SWAP2 POP POP JUMP JUMPDEST PUSH0 DUP2 SWAP1 POP DUP2 PUSH0 MSTORE PUSH1 0x20 PUSH0 KECCAK256 SWAP1 POP SWAP2 SWAP1 POP JUMP JUMPDEST PUSH0 PUSH1 0x20 PUSH1 0x1F DUP4 ADD DIV SWAP1 POP SWAP2 SWAP1 POP JUMP JUMPDEST PUSH0 DUP3 DUP3 SHL SWAP1 POP SWAP3 SWAP2 POP POP JUMP JUMPDEST PUSH0 PUSH1 0x8 DUP4 MUL PUSH2 0x2955 PUSH32 0xFFFFFFFFFFFFFFFFFFFFFFFFFFFFFFFFFFFFFFFFFFFFFFFFFFFFFFFFFFFFFFFF DUP3 PUSH2 0x291A JUMP JUMPDEST PUSH2 0x295F DUP7 DUP4 PUSH2 0x291A JUMP JUMPDEST SWAP6 POP DUP1 NOT DUP5 AND SWAP4 POP DUP1 DUP7 AND DUP5 OR SWAP3 POP POP POP SWAP4 SWAP3 POP POP POP JUMP JUMPDEST PUSH0 DUP2 SWAP1 POP SWAP2 SWAP1 POP JUMP JUMPDEST PUSH0 PUSH2 0x299A PUSH2 0x2995 PUSH2 0x2990 DUP5 PUSH2 0x2160 JUMP JUMPDEST PUSH2 0x2977 JUMP JUMPDEST PUSH2 0x2160 JUMP JUMPDEST SWAP1 POP SWAP2 SWAP1 POP JUMP JUMPDEST PUSH0 DUP2 SWAP1 POP SWAP2 SWAP1 POP JUMP JUMPDEST PUSH2 0x29B3 DUP4 PUSH2 0x2980 JUMP JUMPDEST PUSH2 0x29C7 PUSH2 0x29BF DUP3 PUSH2 0x29A1 JUMP JUMPDEST DUP5 DUP5 SLOAD PUSH2 0x2926 JUMP JUMPDEST DUP3 SSTORE POP POP POP POP JUMP JUMPDEST PUSH0 SWAP1 JUMP JUMPDEST PUSH2 0x29DB PUSH2 0x29CF JUMP JUMPDEST PUSH2 0x29E6 DUP2 DUP5 DUP5 PUSH2 0x29AA JUMP JUMPDEST POP POP POP JUMP JUMPDEST JUMPDEST DUP2 DUP2 LT ISZERO PUSH2 0x2A09 JUMPI PUSH2 0x29FE PUSH0 DUP3 PUSH2 0x29D3 JUMP JUMPDEST PUSH1 0x1 DUP2 ADD SWAP1 POP PUSH2 0x29EC JUMP JUMPDEST POP POP JUMP JUMPDEST PUSH1 0x1F DUP3 GT ISZERO PUSH2 0x2A4E JUMPI PUSH2 0x2A1F DUP2 PUSH2 0x28F9 JUMP JUMPDEST PUSH2 0x2A28 DUP5 PUSH2 0x290B JUMP JUMPDEST DUP2 ADD PUSH1 0x20 DUP6 LT ISZERO PUSH2 0x2A37 JUMPI DUP2 SWAP1 POP JUMPDEST PUSH2 0x2A4B PUSH2 0x2A43 DUP6 PUSH2 0x290B JUMP JUMPDEST DUP4 ADD DUP3 PUSH2 0x29EB JUMP JUMPDEST POP POP JUMPDEST POP POP POP JUMP JUMPDEST PUSH0 DUP3 DUP3 SHR SWAP1 POP SWAP3 SWAP2 POP POP JUMP JUMPDEST PUSH0 PUSH2 0x2A6E PUSH0 NOT DUP5 PUSH1 0x8 MUL PUSH2 0x2A53 JUMP JUMPDEST NOT DUP1 DUP4 AND SWAP2 POP POP SWAP3 SWAP2 POP POP JUMP JUMPDEST PUSH0 PUSH2 0x2A86 DUP4 DUP4 PUSH2 0x2A5F JUMP JUMPDEST SWAP2 POP DUP3 PUSH1 0x2 MUL DUP3 OR SWAP1 POP SWAP3 SWAP2 POP POP JUMP JUMPDEST PUSH2 0x2A9F DUP3 PUSH2 0x20B6 JUMP JUMPDEST PUSH8 0xFFFFFFFFFFFFFFFF DUP2 GT ISZERO PUSH2 0x2AB8 JUMPI PUSH2 0x2AB7 PUSH2 0x2403 JUMP JUMPDEST JUMPDEST PUSH2 0x2AC2 DUP3 SLOAD PUSH2 0x2612 JUMP JUMPDEST PUSH2 0x2ACD DUP3 DUP3 DUP6 PUSH2 0x2A0D JUMP JUMPDEST PUSH0 PUSH1 0x20 SWAP1 POP PUSH1 0x1F DUP4 GT PUSH1 0x1 DUP2 EQ PUSH2 0x2AFE JUMPI PUSH0 DUP5 ISZERO PUSH2 0x2AEC JUMPI DUP3 DUP8 ADD MLOAD SWAP1 POP JUMPDEST PUSH2 0x2AF6 DUP6 DUP3 PUSH2 0x2A7B JUMP JUMPDEST DUP7 SSTORE POP PUSH2 0x2B5D JUMP JUMPDEST PUSH1 0x1F NOT DUP5 AND PUSH2 0x2B0C DUP7 PUSH2 0x28F9 JUMP JUMPDEST PUSH0 JUMPDEST DUP3 DUP2 LT ISZERO PUSH2 0x2B33 JUMPI DUP5 DUP10 ADD MLOAD DUP3 SSTORE PUSH1 0x1 DUP3 ADD SWAP2 POP PUSH1 0x20 DUP6 ADD SWAP5 POP PUSH1 0x20 DUP2 ADD SWAP1 POP PUSH2 0x2B0E JUMP JUMPDEST DUP7 DUP4 LT ISZERO PUSH2 0x2B50 JUMPI DUP5 DUP10 ADD MLOAD PUSH2 0x2B4C PUSH1 0x1F DUP10 AND DUP3 PUSH2 0x2A5F JUMP JUMPDEST DUP4 SSTORE POP JUMPDEST PUSH1 0x1 PUSH1 0x2 DUP9 MUL ADD DUP9 SSTORE POP POP POP JUMPDEST POP POP POP POP POP POP JUMP JUMPDEST PUSH32 0x4E487B7100000000000000000000000000000000000000000000000000000000 PUSH0 MSTORE PUSH1 0x11 PUSH1 0x4 MSTORE PUSH1 0x24 PUSH0 REVERT JUMPDEST PUSH0 PUSH2 0x2B9C DUP3 PUSH2 0x2160 JUMP JUMPDEST SWAP2 POP PUSH32 0xFFFFFFFFFFFFFFFFFFFFFFFFFFFFFFFFFFFFFFFFFFFFFFFFFFFFFFFFFFFFFFFF DUP3 SUB PUSH2 0x2BCE JUMPI PUSH2 0x2BCD PUSH2 0x2B65 JUMP JUMPDEST JUMPDEST PUSH1 0x1 DUP3 ADD SWAP1 POP SWAP2 SWAP1 POP JUMP JUMPDEST PUSH32 0x496E76616C696420746F6B656E20494400000000000000000000000000000000 PUSH0 DUP3 ADD MSTORE POP JUMP JUMPDEST PUSH0 PUSH2 0x2C0D PUSH1 0x10 DUP4 PUSH2 0x20C0 JUMP JUMPDEST SWAP2 POP PUSH2 0x2C18 DUP3 PUSH2 0x2BD9 JUMP JUMPDEST PUSH1 0x20 DUP3 ADD SWAP1 POP SWAP2 SWAP1 POP JUMP JUMPDEST PUSH0 PUSH1 0x20 DUP3 ADD SWAP1 POP DUP2 DUP2 SUB PUSH0 DUP4 ADD MSTORE PUSH2 0x2C3A DUP2 PUSH2 0x2C01 JUMP JUMPDEST SWAP1 POP SWAP2 SWAP1 POP JUMP JUMPDEST PUSH0 PUSH2 0x2C4B DUP3 PUSH2 0x2160 JUMP JUMPDEST SWAP2 POP PUSH2 0x2C56 DUP4 PUSH2 0x2160 JUMP JUMPDEST SWAP3 POP DUP3 DUP3 ADD SWAP1 POP DUP1 DUP3 GT ISZERO PUSH2 0x2C6E JUMPI PUSH2 0x2C6D PUSH2 0x2B65 JUMP JUMPDEST JUMPDEST SWAP3 SWAP2 POP POP JUMP JUMPDEST PUSH32 0x546F6B656E2063616E2774206265206D696E7465642C20616E64206974206861 PUSH0 DUP3 ADD MSTORE PUSH32 0x73206265656E206275726E742E00000000000000000000000000000000000000 PUSH1 0x20 DUP3 ADD MSTORE POP JUMP JUMPDEST PUSH0 PUSH2 0x2CCE PUSH1 0x2D DUP4 PUSH2 0x20C0 JUMP JUMPDEST SWAP2 POP PUSH2 0x2CD9 DUP3 PUSH2 0x2C74 JUMP JUMPDEST PUSH1 0x40 DUP3 ADD SWAP1 POP SWAP2 SWAP1 POP JUMP JUMPDEST PUSH0 PUSH1 0x20 DUP3 ADD SWAP1 POP DUP2 DUP2 SUB PUSH0 DUP4 ADD MSTORE PUSH2 0x2CFB DUP2 PUSH2 0x2CC2 JUMP JUMPDEST SWAP1 POP SWAP2 SWAP1 POP JUMP JUMPDEST PUSH32 0x4552433732313A207472616E736665722063616C6C6572206973206E6F74206F PUSH0 DUP3 ADD MSTORE PUSH32 0x776E6572206E6F7220617070726F766564000000000000000000000000000000 PUSH1 0x20 DUP3 ADD MSTORE POP JUMP JUMPDEST PUSH0 PUSH2 0x2D5C PUSH1 0x31 DUP4 PUSH2 0x20C0 JUMP JUMPDEST SWAP2 POP PUSH2 0x2D67 DUP3 PUSH2 0x2D02 JUMP JUMPDEST PUSH1 0x40 DUP3 ADD SWAP1 POP SWAP2 SWAP1 POP JUMP JUMPDEST PUSH0 PUSH1 0x20 DUP3 ADD SWAP1 POP DUP2 DUP2 SUB PUSH0 DUP4 ADD MSTORE PUSH2 0x2D89 DUP2 PUSH2 0x2D50 JUMP JUMPDEST SWAP1 POP SWAP2 SWAP1 POP JUMP JUMPDEST PUSH32 0x3C7376672077696474683D2731353027206865696768743D273135302720786D PUSH0 DUP3 ADD MSTORE PUSH32 0x6C6E733D27687474703A2F2F7777772E77332E6F72672F323030302F73766727 PUSH1 0x20 DUP3 ADD MSTORE PUSH32 0x3E3C726563742077696474683D2731353027206865696768743D273135302720 PUSH1 0x40 DUP3 ADD MSTORE PUSH32 0x66696C6C3D2723313231323132272F3E3C2F7376673E00000000000000000000 PUSH1 0x60 DUP3 ADD MSTORE POP JUMP JUMPDEST PUSH0 PUSH2 0x2E36 PUSH1 0x76 DUP4 PUSH2 0x2854 JUMP JUMPDEST SWAP2 POP PUSH2 0x2E41 DUP3 PUSH2 0x2D90 JUMP JUMPDEST PUSH1 0x76 DUP3 ADD SWAP1 POP SWAP2 SWAP1 POP JUMP JUMPDEST PUSH0 PUSH2 0x2E56 DUP3 PUSH2 0x2E2A JUMP JUMPDEST SWAP2 POP DUP2 SWAP1 POP SWAP2 SWAP1 POP JUMP JUMPDEST PUSH32 0x4E487B7100000000000000000000000000000000000000000000000000000000 PUSH0 MSTORE PUSH1 0x12 PUSH1 0x4 MSTORE PUSH1 0x24 PUSH0 REVERT JUMPDEST PUSH0 PUSH2 0x2E97 DUP3 PUSH2 0x2160 JUMP JUMPDEST SWAP2 POP PUSH2 0x2EA2 DUP4 PUSH2 0x2160 JUMP JUMPDEST SWAP3 POP DUP3 PUSH2 0x2EB2 JUMPI PUSH2 0x2EB1 PUSH2 0x2E60 JUMP JUMPDEST JUMPDEST DUP3 DUP3 MOD SWAP1 POP SWAP3 SWAP2 POP POP JUMP JUMPDEST PUSH0 PUSH2 0x2EC7 DUP3 PUSH2 0x2160 JUMP JUMPDEST SWAP2 POP PUSH2 0x2ED2 DUP4 PUSH2 0x2160 JUMP JUMPDEST SWAP3 POP DUP3 PUSH2 0x2EE2 JUMPI PUSH2 0x2EE1 PUSH2 0x2E60 JUMP JUMPDEST JUMPDEST DUP3 DUP3 DIV SWAP1 POP SWAP3 SWAP2 POP POP JUMP JUMPDEST PUSH32 0x7B226E616D65223A220000000000000000000000000000000000000000000000 PUSH0 DUP3 ADD MSTORE POP JUMP JUMPDEST PUSH0 PUSH2 0x2F21 PUSH1 0x9 DUP4 PUSH2 0x2854 JUMP JUMPDEST SWAP2 POP PUSH2 0x2F2C DUP3 PUSH2 0x2EED JUMP JUMPDEST PUSH1 0x9 DUP3 ADD SWAP1 POP SWAP2 SWAP1 POP JUMP JUMPDEST PUSH32 0x3C3135302A31353070782C20233132313231323E200000000000000000000000 PUSH0 DUP3 ADD MSTORE POP JUMP JUMPDEST PUSH0 PUSH2 0x2F6B PUSH1 0x15 DUP4 PUSH2 0x2854 JUMP JUMPDEST SWAP2 POP PUSH2 0x2F76 DUP3 PUSH2 0x2F37 JUMP JUMPDEST PUSH1 0x15 DUP3 ADD SWAP1 POP SWAP2 SWAP1 POP JUMP JUMPDEST PUSH32 0x2D00000000000000000000000000000000000000000000000000000000000000 PUSH0 DUP3 ADD MSTORE POP JUMP JUMPDEST PUSH0 PUSH2 0x2FB5 PUSH1 0x1 DUP4 PUSH2 0x2854 JUMP JUMPDEST SWAP2 POP PUSH2 0x2FC0 DUP3 PUSH2 0x2F81 JUMP JUMPDEST PUSH1 0x1 DUP3 ADD SWAP1 POP SWAP2 SWAP1 POP JUMP JUMPDEST PUSH32 0x222C226465736372697074696F6E223A2254657374222C000000000000000000 PUSH0 DUP3 ADD MSTORE POP JUMP JUMPDEST PUSH0 PUSH2 0x2FFF PUSH1 0x17 DUP4 PUSH2 0x2854 JUMP JUMPDEST SWAP2 POP PUSH2 0x300A DUP3 PUSH2 0x2FCB JUMP JUMPDEST PUSH1 0x17 DUP3 ADD SWAP1 POP SWAP2 SWAP1 POP JUMP JUMPDEST PUSH32 0x22616E696D6174696F6E5F75726C223A2022646174613A696D6167652F737667 PUSH0 DUP3 ADD MSTORE PUSH32 0x2B786D6C3B6261736536342C0000000000000000000000000000000000000000 PUSH1 0x20 DUP3 ADD MSTORE POP JUMP JUMPDEST PUSH0 PUSH2 0x306F PUSH1 0x2C DUP4 PUSH2 0x2854 JUMP JUMPDEST SWAP2 POP PUSH2 0x307A DUP3 PUSH2 0x3015 JUMP JUMPDEST PUSH1 0x2C DUP3 ADD SWAP1 POP SWAP2 SWAP1 POP JUMP JUMPDEST PUSH32 0x227D000000000000000000000000000000000000000000000000000000000000 PUSH0 DUP3 ADD MSTORE POP JUMP JUMPDEST PUSH0 PUSH2 0x30B9 PUSH1 0x2 DUP4 PUSH2 0x2854 JUMP JUMPDEST SWAP2 POP PUSH2 0x30C4 DUP3 PUSH2 0x3085 JUMP JUMPDEST PUSH1 0x2 DUP3 ADD SWAP1 POP SWAP2 SWAP1 POP JUMP JUMPDEST PUSH0 PUSH2 0x30D9 DUP3 PUSH2 0x2F15 JUMP JUMPDEST SWAP2 POP PUSH2 0x30E4 DUP3 PUSH2 0x2F5F JUMP JUMPDEST SWAP2 POP PUSH2 0x30F0 DUP3 DUP7 PUSH2 0x28A8 JUMP JUMPDEST SWAP2 POP PUSH2 0x30FB DUP3 PUSH2 0x2FA9 JUMP JUMPDEST SWAP2 POP PUSH2 0x3107 DUP3 DUP6 PUSH2 0x28A8 JUMP JUMPDEST SWAP2 POP PUSH2 0x3112 DUP3 PUSH2 0x2FF3 JUMP JUMPDEST SWAP2 POP PUSH2 0x311D DUP3 PUSH2 0x3063 JUMP JUMPDEST SWAP2 POP PUSH2 0x3129 DUP3 DUP5 PUSH2 0x28A8 JUMP JUMPDEST SWAP2 POP PUSH2 0x3134 DUP3 PUSH2 0x30AD JUMP JUMPDEST SWAP2 POP DUP2 SWAP1 POP SWAP5 SWAP4 POP POP POP POP JUMP JUMPDEST PUSH32 0x4552433732313A206F776E657220717565727920666F72206E6F6E6578697374 PUSH0 DUP3 ADD MSTORE PUSH32 0x656E7420746F6B656E0000000000000000000000000000000000000000000000 PUSH1 0x20 DUP3 ADD MSTORE POP JUMP JUMPDEST PUSH0 PUSH2 0x319B PUSH1 0x29 DUP4 PUSH2 0x20C0 JUMP JUMPDEST SWAP2 POP PUSH2 0x31A6 DUP3 PUSH2 0x3141 JUMP JUMPDEST PUSH1 0x40 DUP3 ADD SWAP1 POP SWAP2 SWAP1 POP JUMP JUMPDEST PUSH0 PUSH1 0x20 DUP3 ADD SWAP1 POP DUP2 DUP2 SUB PUSH0 DUP4 ADD MSTORE PUSH2 0x31C8 DUP2 PUSH2 0x318F JUMP JUMPDEST SWAP1 POP SWAP2 SWAP1 POP JUMP JUMPDEST PUSH32 0x4552433732313A2062616C616E636520717565727920666F7220746865207A65 PUSH0 DUP3 ADD MSTORE PUSH32 0x726F206164647265737300000000000000000000000000000000000000000000 PUSH1 0x20 DUP3 ADD MSTORE POP JUMP JUMPDEST PUSH0 PUSH2 0x3229 PUSH1 0x2A DUP4 PUSH2 0x20C0 JUMP JUMPDEST SWAP2 POP PUSH2 0x3234 DUP3 PUSH2 0x31CF JUMP JUMPDEST PUSH1 0x40 DUP3 ADD SWAP1 POP SWAP2 SWAP1 POP JUMP JUMPDEST PUSH0 PUSH1 0x20 DUP3 ADD SWAP1 POP DUP2 DUP2 SUB PUSH0 DUP4 ADD MSTORE PUSH2 0x3256 DUP2 PUSH2 0x321D JUMP JUMPDEST SWAP1 POP SWAP2 SWAP1 POP JUMP JUMPDEST PUSH32 0x4F776E61626C653A206E6577206F776E657220697320746865207A65726F2061 PUSH0 DUP3 ADD MSTORE PUSH32 0x6464726573730000000000000000000000000000000000000000000000000000 PUSH1 0x20 DUP3 ADD MSTORE POP JUMP JUMPDEST PUSH0 PUSH2 0x32B7 PUSH1 0x26 DUP4 PUSH2 0x20C0 JUMP JUMPDEST SWAP2 POP PUSH2 0x32C2 DUP3 PUSH2 0x325D JUMP JUMPDEST PUSH1 0x40 DUP3 ADD SWAP1 POP SWAP2 SWAP1 POP JUMP JUMPDEST PUSH0 PUSH1 0x20 DUP3 ADD SWAP1 POP DUP2 DUP2 SUB PUSH0 DUP4 ADD MSTORE PUSH2 0x32E4 DUP2 PUSH2 0x32AB JUMP JUMPDEST SWAP1 POP SWAP2 SWAP1 POP JUMP JUMPDEST PUSH0 PUSH2 0x32F5 DUP3 PUSH2 0x2160 JUMP JUMPDEST SWAP2 POP PUSH2 0x3300 DUP4 PUSH2 0x2160 JUMP JUMPDEST SWAP3 POP DUP3 DUP3 MUL PUSH2 0x330E DUP2 PUSH2 0x2160 JUMP JUMPDEST SWAP2 POP DUP3 DUP3 DIV DUP5 EQ DUP4 ISZERO OR PUSH2 0x3325 JUMPI PUSH2 0x3324 PUSH2 0x2B65 JUMP JUMPDEST JUMPDEST POP SWAP3 SWAP2 POP POP JUMP JUMPDEST PUSH32 0x4552433732313A206D696E7420746F20746865207A65726F2061646472657373 PUSH0 DUP3 ADD MSTORE POP JUMP JUMPDEST PUSH0 PUSH2 0x3360 PUSH1 0x20 DUP4 PUSH2 0x20C0 JUMP JUMPDEST SWAP2 POP PUSH2 0x336B DUP3 PUSH2 0x332C JUMP JUMPDEST PUSH1 0x20 DUP3 ADD SWAP1 POP SWAP2 SWAP1 POP JUMP JUMPDEST PUSH0 PUSH1 0x20 DUP3 ADD SWAP1 POP DUP2 DUP2 SUB PUSH0 DUP4 ADD MSTORE PUSH2 0x338D DUP2 PUSH2 0x3354 JUMP JUMPDEST SWAP1 POP SWAP2 SWAP1 POP JUMP JUMPDEST PUSH32 0x4552433732313A20746F6B656E20616C7265616479206D696E74656400000000 PUSH0 DUP3 ADD MSTORE POP JUMP JUMPDEST PUSH0 PUSH2 0x33C8 PUSH1 0x1C DUP4 PUSH2 0x20C0 JUMP JUMPDEST SWAP2 POP PUSH2 0x33D3 DUP3 PUSH2 0x3394 JUMP JUMPDEST PUSH1 0x20 DUP3 ADD SWAP1 POP SWAP2 SWAP1 POP JUMP JUMPDEST PUSH0 PUSH1 0x20 DUP3 ADD SWAP1 POP DUP2 DUP2 SUB PUSH0 DUP4 ADD MSTORE PUSH2 0x33F5 DUP2 PUSH2 0x33BC JUMP JUMPDEST SWAP1 POP SWAP2 SWAP1 POP JUMP JUMPDEST PUSH32 0x4552433732313A206F70657261746F7220717565727920666F72206E6F6E6578 PUSH0 DUP3 ADD MSTORE PUSH32 0x697374656E7420746F6B656E0000000000000000000000000000000000000000 PUSH1 0x20 DUP3 ADD MSTORE POP JUMP JUMPDEST PUSH0 PUSH2 0x3456 PUSH1 0x2C DUP4 PUSH2 0x20C0 JUMP JUMPDEST SWAP2 POP PUSH2 0x3461 DUP3 PUSH2 0x33FC JUMP JUMPDEST PUSH1 0x40 DUP3 ADD SWAP1 POP SWAP2 SWAP1 POP JUMP JUMPDEST PUSH0 PUSH1 0x20 DUP3 ADD SWAP1 POP DUP2 DUP2 SUB PUSH0 DUP4 ADD MSTORE PUSH2 0x3483 DUP2 PUSH2 0x344A JUMP JUMPDEST SWAP1 POP SWAP2 SWAP1 POP JUMP JUMPDEST PUSH32 0x4552433732313A207472616E736665722066726F6D20696E636F727265637420 PUSH0 DUP3 ADD MSTORE PUSH32 0x6F776E6572000000000000000000000000000000000000000000000000000000 PUSH1 0x20 DUP3 ADD MSTORE POP JUMP JUMPDEST PUSH0 PUSH2 0x34E4 PUSH1 0x25 DUP4 PUSH2 0x20C0 JUMP JUMPDEST SWAP2 POP PUSH2 0x34EF DUP3 PUSH2 0x348A JUMP JUMPDEST PUSH1 0x40 DUP3 ADD SWAP1 POP SWAP2 SWAP1 POP JUMP JUMPDEST PUSH0 PUSH1 0x20 DUP3 ADD SWAP1 POP DUP2 DUP2 SUB PUSH0 DUP4 ADD MSTORE PUSH2 0x3511 DUP2 PUSH2 0x34D8 JUMP JUMPDEST SWAP1 POP SWAP2 SWAP1 POP JUMP JUMPDEST PUSH32 0x4552433732313A207472616E7366657220746F20746865207A65726F20616464 PUSH0 DUP3 ADD MSTORE PUSH32 0x7265737300000000000000000000000000000000000000000000000000000000 PUSH1 0x20 DUP3 ADD MSTORE POP JUMP JUMPDEST PUSH0 PUSH2 0x3572 PUSH1 0x24 DUP4 PUSH2 0x20C0 JUMP JUMPDEST SWAP2 POP PUSH2 0x357D DUP3 PUSH2 0x3518 JUMP JUMPDEST PUSH1 0x40 DUP3 ADD SWAP1 POP SWAP2 SWAP1 POP JUMP JUMPDEST PUSH0 PUSH1 0x20 DUP3 ADD SWAP1 POP DUP2 DUP2 SUB PUSH0 DUP4 ADD MSTORE PUSH2 0x359F DUP2 PUSH2 0x3566 JUMP JUMPDEST SWAP1 POP SWAP2 SWAP1 POP JUMP JUMPDEST PUSH0 PUSH2 0x35B0 DUP3 PUSH2 0x2160 JUMP JUMPDEST SWAP2 POP PUSH2 0x35BB DUP4 PUSH2 0x2160 JUMP JUMPDEST SWAP3 POP DUP3 DUP3 SUB SWAP1 POP DUP2 DUP2 GT ISZERO PUSH2 0x35D3 JUMPI PUSH2 0x35D2 PUSH2 0x2B65 JUMP JUMPDEST JUMPDEST SWAP3 SWAP2 POP POP JUMP JUMPDEST PUSH32 0x4E487B7100000000000000000000000000000000000000000000000000000000 PUSH0 MSTORE PUSH1 0x32 PUSH1 0x4 MSTORE PUSH1 0x24 PUSH0 REVERT JUMPDEST PUSH32 0x4552433732313A20617070726F766520746F2063616C6C657200000000000000 PUSH0 DUP3 ADD MSTORE POP JUMP JUMPDEST PUSH0 PUSH2 0x363A PUSH1 0x19 DUP4 PUSH2 0x20C0 JUMP JUMPDEST SWAP2 POP PUSH2 0x3645 DUP3 PUSH2 0x3606 JUMP JUMPDEST PUSH1 0x20 DUP3 ADD SWAP1 POP SWAP2 SWAP1 POP JUMP JUMPDEST PUSH0 PUSH1 0x20 DUP3 ADD SWAP1 POP DUP2 DUP2 SUB PUSH0 DUP4 ADD MSTORE PUSH2 0x3667 DUP2 PUSH2 0x362E JUMP JUMPDEST SWAP1 POP SWAP2 SWAP1 POP JUMP JUMPDEST PUSH32 0x4552433732313A207472616E7366657220746F206E6F6E204552433732315265 PUSH0 DUP3 ADD MSTORE PUSH32 0x63656976657220696D706C656D656E7465720000000000000000000000000000 PUSH1 0x20 DUP3 ADD MSTORE POP JUMP JUMPDEST PUSH0 PUSH2 0x36C8 PUSH1 0x32 DUP4 PUSH2 0x20C0 JUMP JUMPDEST SWAP2 POP PUSH2 0x36D3 DUP3 PUSH2 0x366E JUMP JUMPDEST PUSH1 0x40 DUP3 ADD SWAP1 POP SWAP2 SWAP1 POP JUMP JUMPDEST PUSH0 PUSH1 0x20 DUP3 ADD SWAP1 POP DUP2 DUP2 SUB PUSH0 DUP4 ADD MSTORE PUSH2 0x36F5 DUP2 PUSH2 0x36BC JUMP JUMPDEST SWAP1 POP SWAP2 SWAP1 POP JUMP JUMPDEST PUSH32 0x45524337323155524953746F726167653A2055524920717565727920666F7220 PUSH0 DUP3 ADD MSTORE PUSH32 0x6E6F6E6578697374656E7420746F6B656E000000000000000000000000000000 PUSH1 0x20 DUP3 ADD MSTORE POP JUMP JUMPDEST PUSH0 PUSH2 0x3756 PUSH1 0x31 DUP4 PUSH2 0x20C0 JUMP JUMPDEST SWAP2 POP PUSH2 0x3761 DUP3 PUSH2 0x36FC JUMP JUMPDEST PUSH1 0x40 DUP3 ADD SWAP1 POP SWAP2 SWAP1 POP JUMP JUMPDEST PUSH0 PUSH1 0x20 DUP3 ADD SWAP1 POP DUP2 DUP2 SUB PUSH0 DUP4 ADD MSTORE PUSH2 0x3783 DUP2 PUSH2 0x374A JUMP JUMPDEST SWAP1 POP SWAP2 SWAP1 POP JUMP JUMPDEST PUSH0 PUSH2 0x3795 DUP3 DUP6 PUSH2 0x28A8 JUMP JUMPDEST SWAP2 POP PUSH2 0x37A1 DUP3 DUP5 PUSH2 0x28A8 JUMP JUMPDEST SWAP2 POP DUP2 SWAP1 POP SWAP4 SWAP3 POP POP POP JUMP JUMPDEST PUSH0 PUSH1 0x80 DUP3 ADD SWAP1 POP PUSH2 0x37C0 PUSH0 DUP4 ADD DUP8 PUSH2 0x21EE JUMP JUMPDEST PUSH2 0x37CD PUSH1 0x20 DUP4 ADD DUP7 PUSH2 0x21EE JUMP JUMPDEST PUSH2 0x37DA PUSH1 0x40 DUP4 ADD DUP6 PUSH2 0x236B JUMP JUMPDEST DUP2 DUP2 SUB PUSH1 0x60 DUP4 ADD MSTORE PUSH2 0x37EC DUP2 DUP5 PUSH2 0x22E8 JUMP JUMPDEST SWAP1 POP SWAP6 SWAP5 POP POP POP POP POP JUMP JUMPDEST PUSH0 DUP2 MLOAD SWAP1 POP PUSH2 0x3805 DUP2 PUSH2 0x202E JUMP JUMPDEST SWAP3 SWAP2 POP POP JUMP JUMPDEST PUSH0 PUSH1 0x20 DUP3 DUP5 SUB SLT ISZERO PUSH2 0x3820 JUMPI PUSH2 0x381F PUSH2 0x1FFB JUMP JUMPDEST JUMPDEST PUSH0 PUSH2 0x382D DUP5 DUP3 DUP6 ADD PUSH2 0x37F7 JUMP JUMPDEST SWAP2 POP POP SWAP3 SWAP2 POP POP JUMP JUMPDEST PUSH32 0x4552433732314D657461646174613A2055524920717565727920666F72206E6F PUSH0 DUP3 ADD MSTORE PUSH32 0x6E6578697374656E7420746F6B656E0000000000000000000000000000000000 PUSH1 0x20 DUP3 ADD MSTORE POP JUMP JUMPDEST PUSH0 PUSH2 0x3890 PUSH1 0x2F DUP4 PUSH2 0x20C0 JUMP JUMPDEST SWAP2 POP PUSH2 0x389B DUP3 PUSH2 0x3836 JUMP JUMPDEST PUSH1 0x40 DUP3 ADD SWAP1 POP SWAP2 SWAP1 POP JUMP JUMPDEST PUSH0 PUSH1 0x20 DUP3 ADD SWAP1 POP DUP2 DUP2 SUB PUSH0 DUP4 ADD MSTORE PUSH2 0x38BD DUP2 PUSH2 0x3884 JUMP JUMPDEST SWAP1 POP SWAP2 SWAP1 POP JUMP INVALID COINBASE TIMESTAMP NUMBER PREVRANDAO GASLIMIT CHAINID SELFBALANCE BASEFEE BLOBHASH BLOBBASEFEE 0x4B 0x4C 0x4D 0x4E 0x4F POP MLOAD MSTORE MSTORE8 SLOAD SSTORE JUMP JUMPI PC MSIZE GAS PUSH2 0x6263 PUSH5 0x6566676869 PUSH11 0x6B6C6D6E6F707172737475 PUSH23 0x7778797A303132333435363738392B2FA2646970667358 0x22 SLT KECCAK256 0xB4 PUSH15 0x48D9B0F28428E1F73BAAF3A4F101BF 0xAB PUSH28 0x5B7FD6BDC8D846BA6E386651D764736F6C6343000818003341424344 GASLIMIT CHAINID SELFBALANCE BASEFEE BLOBHASH BLOBBASEFEE 0x4B 0x4C 0x4D 0x4E 0x4F POP MLOAD MSTORE MSTORE8 SLOAD SSTORE JUMP JUMPI PC MSIZE GAS PUSH2 0x6263 PUSH5 0x6566676869 PUSH11 0x6B6C6D6E6F707172737475 PUSH23 0x7778797A303132333435363738392B2F00000000000000 "
		},
		"gasEstimates": {
			"creation": {
				"codeDepositCost": "2930000",
				"executionCost": "infinite",
				"totalCost": "infinite"
			},
			"external": {
				"approve(address,uint256)": "infinite",
				"balanceOf(address)": "2909",
				"batchCreate()": "infinite",
				"getApproved(uint256)": "5211",
				"isApprovedForAll(address,address)": "infinite",
				"makeMetaData(uint256)": "infinite",
				"name()": "infinite",
				"nftMint(uint256)": "infinite",
				"owner()": "2604",
				"ownerOf(uint256)": "2982",
				"renounceOwnership()": "30433",
				"safeTransferFrom(address,address,uint256)": "infinite",
				"safeTransferFrom(address,address,uint256,bytes)": "infinite",
				"setApprovalForAll(address,bool)": "infinite",
				"supportsInterface(bytes4)": "787",
				"symbol()": "infinite",
				"tokenURI(uint256)": "infinite",
				"transferFrom(address,address,uint256)": "infinite",
				"transferOwnership(address)": "30817"
			},
			"internal": {
				"_burn(uint256)": "infinite"
			}
		},
		"methodIdentifiers": {
			"approve(address,uint256)": "095ea7b3",
			"balanceOf(address)": "70a08231",
			"batchCreate()": "19c4f2df",
			"getApproved(uint256)": "081812fc",
			"isApprovedForAll(address,address)": "e985e9c5",
			"makeMetaData(uint256)": "423fcb01",
			"name()": "06fdde03",
			"nftMint(uint256)": "20e3dfee",
			"owner()": "8da5cb5b",
			"ownerOf(uint256)": "6352211e",
			"renounceOwnership()": "715018a6",
			"safeTransferFrom(address,address,uint256)": "42842e0e",
			"safeTransferFrom(address,address,uint256,bytes)": "b88d4fde",
			"setApprovalForAll(address,bool)": "a22cb465",
			"supportsInterface(bytes4)": "01ffc9a7",
			"symbol()": "95d89b41",
			"tokenURI(uint256)": "c87b56dd",
			"transferFrom(address,address,uint256)": "23b872dd",
			"transferOwnership(address)": "f2fde38b"
		}
	},
	"abi": [
		{
			"inputs": [],
			"stateMutability": "nonpayable",
			"type": "constructor"
		},
		{
			"anonymous": false,
			"inputs": [
				{
					"indexed": true,
					"internalType": "address",
					"name": "owner",
					"type": "address"
				},
				{
					"indexed": true,
					"internalType": "address",
					"name": "approved",
					"type": "address"
				},
				{
					"indexed": true,
					"internalType": "uint256",
					"name": "tokenId",
					"type": "uint256"
				}
			],
			"name": "Approval",
			"type": "event"
		},
		{
			"anonymous": false,
			"inputs": [
				{
					"indexed": true,
					"internalType": "address",
					"name": "owner",
					"type": "address"
				},
				{
					"indexed": true,
					"internalType": "address",
					"name": "operator",
					"type": "address"
				},
				{
					"indexed": false,
					"internalType": "bool",
					"name": "approved",
					"type": "bool"
				}
			],
			"name": "ApprovalForAll",
			"type": "event"
		},
		{
			"anonymous": false,
			"inputs": [
				{
					"indexed": true,
					"internalType": "address",
					"name": "previousOwner",
					"type": "address"
				},
				{
					"indexed": true,
					"internalType": "address",
					"name": "newOwner",
					"type": "address"
				}
			],
			"name": "OwnershipTransferred",
			"type": "event"
		},
		{
			"anonymous": false,
			"inputs": [
				{
					"indexed": true,
					"internalType": "address",
					"name": "from",
					"type": "address"
				},
				{
					"indexed": true,
					"internalType": "address",
					"name": "to",
					"type": "address"
				},
				{
					"indexed": true,
					"internalType": "uint256",
					"name": "tokenId",
					"type": "uint256"
				}
			],
			"name": "Transfer",
			"type": "event"
		},
		{
			"inputs": [
				{
					"internalType": "address",
					"name": "to",
					"type": "address"
				},
				{
					"internalType": "uint256",
					"name": "tokenId",
					"type": "uint256"
				}
			],
			"name": "approve",
			"outputs": [],
			"stateMutability": "nonpayable",
			"type": "function"
		},
		{
			"inputs": [
				{
					"internalType": "address",
					"name": "owner",
					"type": "address"
				}
			],
			"name": "balanceOf",
			"outputs": [
				{
					"internalType": "uint256",
					"name": "",
					"type": "uint256"
				}
			],
			"stateMutability": "view",
			"type": "function"
		},
		{
			"inputs": [],
			"name": "batchCreate",
			"outputs": [],
			"stateMutability": "nonpayable",
			"type": "function"
		},
		{
			"inputs": [
				{
					"internalType": "uint256",
					"name": "tokenId",
					"type": "uint256"
				}
			],
			"name": "getApproved",
			"outputs": [
				{
					"internalType": "address",
					"name": "",
					"type": "address"
				}
			],
			"stateMutability": "view",
			"type": "function"
		},
		{
			"inputs": [
				{
					"internalType": "address",
					"name": "owner",
					"type": "address"
				},
				{
					"internalType": "address",
					"name": "operator",
					"type": "address"
				}
			],
			"name": "isApprovedForAll",
			"outputs": [
				{
					"internalType": "bool",
					"name": "",
					"type": "bool"
				}
			],
			"stateMutability": "view",
			"type": "function"
		},
		{
			"inputs": [
				{
					"internalType": "uint256",
					"name": "tokenId",
					"type": "uint256"
				}
			],
			"name": "makeMetaData",
			"outputs": [
				{
					"internalType": "bytes",
					"name": "",
					"type": "bytes"
				}
			],
			"stateMutability": "pure",
			"type": "function"
		},
		{
			"inputs": [],
			"name": "name",
			"outputs": [
				{
					"internalType": "string",
					"name": "",
					"type": "string"
				}
			],
			"stateMutability": "view",
			"type": "function"
		},
		{
			"inputs": [
				{
					"internalType": "uint256",
					"name": "tokenId",
					"type": "uint256"
				}
			],
			"name": "nftMint",
			"outputs": [],
			"stateMutability": "nonpayable",
			"type": "function"
		},
		{
			"inputs": [],
			"name": "owner",
			"outputs": [
				{
					"internalType": "address",
					"name": "",
					"type": "address"
				}
			],
			"stateMutability": "view",
			"type": "function"
		},
		{
			"inputs": [
				{
					"internalType": "uint256",
					"name": "tokenId",
					"type": "uint256"
				}
			],
			"name": "ownerOf",
			"outputs": [
				{
					"internalType": "address",
					"name": "",
					"type": "address"
				}
			],
			"stateMutability": "view",
			"type": "function"
		},
		{
			"inputs": [],
			"name": "renounceOwnership",
			"outputs": [],
			"stateMutability": "nonpayable",
			"type": "function"
		},
		{
			"inputs": [
				{
					"internalType": "address",
					"name": "from",
					"type": "address"
				},
				{
					"internalType": "address",
					"name": "to",
					"type": "address"
				},
				{
					"internalType": "uint256",
					"name": "tokenId",
					"type": "uint256"
				}
			],
			"name": "safeTransferFrom",
			"outputs": [],
			"stateMutability": "nonpayable",
			"type": "function"
		},
		{
			"inputs": [
				{
					"internalType": "address",
					"name": "from",
					"type": "address"
				},
				{
					"internalType": "address",
					"name": "to",
					"type": "address"
				},
				{
					"internalType": "uint256",
					"name": "tokenId",
					"type": "uint256"
				},
				{
					"internalType": "bytes",
					"name": "_data",
					"type": "bytes"
				}
			],
			"name": "safeTransferFrom",
			"outputs": [],
			"stateMutability": "nonpayable",
			"type": "function"
		},
		{
			"inputs": [
				{
					"internalType": "address",
					"name": "operator",
					"type": "address"
				},
				{
					"internalType": "bool",
					"name": "approved",
					"type": "bool"
				}
			],
			"name": "setApprovalForAll",
			"outputs": [],
			"stateMutability": "nonpayable",
			"type": "function"
		},
		{
			"inputs": [
				{
					"internalType": "bytes4",
					"name": "interfaceId",
					"type": "bytes4"
				}
			],
			"name": "supportsInterface",
			"outputs": [
				{
					"internalType": "bool",
					"name": "",
					"type": "bool"
				}
			],
			"stateMutability": "view",
			"type": "function"
		},
		{
			"inputs": [],
			"name": "symbol",
			"outputs": [
				{
					"internalType": "string",
					"name": "",
					"type": "string"
				}
			],
			"stateMutability": "view",
			"type": "function"
		},
		{
			"inputs": [
				{
					"internalType": "uint256",
					"name": "tokenId",
					"type": "uint256"
				}
			],
			"name": "tokenURI",
			"outputs": [
				{
					"internalType": "string",
					"name": "",
					"type": "string"
				}
			],
			"stateMutability": "view",
			"type": "function"
		},
		{
			"inputs": [
				{
					"internalType": "address",
					"name": "from",
					"type": "address"
				},
				{
					"internalType": "address",
					"name": "to",
					"type": "address"
				},
				{
					"internalType": "uint256",
					"name": "tokenId",
					"type": "uint256"
				}
			],
			"name": "transferFrom",
			"outputs": [],
			"stateMutability": "nonpayable",
			"type": "function"
		},
		{
			"inputs": [
				{
					"internalType": "address",
					"name": "newOwner",
					"type": "address"
				}
			],
			"name": "transferOwnership",
			"outputs": [],
			"stateMutability": "nonpayable",
			"type": "function"
		}
	]
}